:020000040800F2
:1000000000000220452600085D0D00085F0D000875
:10001000610D0008630D0008650D00080000000078
:10002000000000000000000000000000670D000854
:10003000690D0008000000006B0D00086D0D000840
:1000400095260008952600089526000895260008A4
:100050009526000895260008490600089526000800
:100060009526000895260008952600089526000884
:100070009526000895260008952600089526000874
:10008000750D00089526000895260008952600089D
:100090009526000895260008952600089526000854
:1000A0009526000895260008952600089526000844
:1000B0009526000895260008952600089526000834
:1000C0009526000895260008952600089526000824
:1000D0009526000895260008952600089526000814
:1000E0009526000895260008952600089526000804
:1000F00095260008952600089526000895260008F4
:1001000095260008952600089526000895260008E3
:1001100095260008952600089526000895260008D3
:1001200095260008952600089526000895260008C3
:100130009526000800000000000000009526000839
:1001400095260008952600089526000895260008A3
:100150009526000895260008952600089526000893
:100160009526000895260008952600089526000883
:100170009526000895260008952600080000000036
:1001800000000000952600080000000000000000AC
:1001900095260008000000000000000095260008D9
:1001A000000000000000000000000000952600088C
:1001B0009526000895260008952600089526000833
:0401C0009526000878
:1001C40010B5054C237833B9044B13B10448AFF38D
:1001D40000800123237010BD74EA00200000000099
:1001E400F026000808B5034B1BB103490348AFF3DD
:1001F400008008BD0000000078EA0020F026000816
:1002040053B94AB9002908BF00281CBF4FF0FF3179
:100214004FF0FF3000F088B9ADF1080C6DE904CE61
:1002240000F006F8DDF804E0DDE9022304B07047CD
:100234002DE9F047089D8E4604468846002B4AD196
:100244008A42174662D9B2FA82F64EB1C6F1200349
:1002540001FA06F820FA03F3B74043EA0808B44069
:100264004FEA174E1FFA87FCB8FBFEF1230C0EFB76
:10027400118843EA084301FB0CF29A4209D9FB189E
:1002840001F1FF3080F0EA809A4240F2E7800239BF
:100294003B449A1AA3B2B2FBFEF00EFB102243EACF
:1002A400024300FB0CFC9C4509D9FB1800F1FF320A
:1002B40080F0D6809C4540F2D3803B44023840EA2B
:1002C4000140A3EB0C0300211DB1F3400022C5E95A
:1002D4000032BDE8F0878B4205D90DB1C5E90001B4
:1002E40000210846F5E7B3FA83F1002946D17345A6
:1002F40002D3824200F20581841A6EEB03020120CC
:100304009046002DE5D0C5E90048E2E7002A00F058
:100314009080B2FA82F6002E40F0A4808A1A030C70
:100324004FEA174E80B2BCB20121B2FBFEFC0EFBB9
:100334001C2243EA024304FB0CF29A4207D9FB183D
:100344000CF1FF3802D29A4200F2E080C4469B1AB4
:10035400B3FBFEF20EFB123340EA034302FB04F448
:100364009C4207D9FB1802F1FF3002D29C4200F2F2
:10037400CA8002461B1B42EA0C40A5E7C1F12006D5
:100384008B4022FA06F71F430EFA01F420FA06F313
:100394002EFA06FE4FEA1749234300FA01F81FFA22
:1003A40087FCBEFBF9F01C0C09FB10EE44EA0E447A
:1003B40000FB0CFEA64502FA01F209D93C1900F132
:1003C400FF3A80F09C80A64540F2998002383C4474
:1003D400A4EB0E041FFA83FEB4FBF9F309FB1344E8
:1003E4004EEA044403FB0CFCA44508D93C1903F170
:1003F400FF3E80F08280A4457FD9023B3C4443EA1F
:100404000040A4EB0C04A0FB02EC64457346E146F7
:1004140062D35FD05DB1B8EB030264EB090404FA64
:1004240006F622FA01F31E43CC40C5E9006400211C
:100434004FE7B1FBF2FC010C41EA0E4180B240EA05
:1004440001423B4638463C46B846BE462026B1FBF0
:10045400F7F1A2EB080241EA0C4166E7014618E70E
:1004640010462CE7C6F120022EFA02F3B740B14041
:1004740020FA02F24FEA174E0A43B3FBFEF8BCB26D
:100484000EFB1833110C41EA034108FB04F9B04098
:1004940089454FEA104380B23ED9791808F1FF3CF0
:1004A40001D289451FD8A1EB0901B1FBFEF909FB73
:1004B40004F80EFB191192B242EA0142424529D2D4
:1004C400BA1809F1FF31C4D24245C2D2A9F10201DE
:1004D4003A44BEE7F0459DD2BEEB02036CEB070C39
:1004E4000138E14696E7A7EB09094944A8F1020C53
:1004F400B1FBFEF909FB04F8DBE773467FE75046DE
:1005040066E70846FDE63B44023A33E7ACF1020CE9
:100514003B441CE749469CE7A1EB0901C446B1FBF7
:10052400FEF909FB04F8C4E7704700BF2DE9F04F5A
:1005340089B00024039404940594069407940094C9
:100544002F4B1A6B42F080021A631A6B02F080027E
:100554000092009A01941A6B42F001021A631A6B1A
:1005640002F001020192019A02941A6B42F0020213
:100574001A631B6B03F002030293029B4FF4404B7C
:10058400CDF80CB001260496DFF87CA003A95046F0
:1005940001F060FC4FF44079CDF80C90DFF86C80EA
:1005A40003A9404601F056FC4FF410470397154D3C
:1005B40003A9284601F04EFC22465946504601F054
:1005C40039FD22464946404601F034FD224639466B
:1005D400284601F02FFD03964FF4881304930596E3
:1005E40003A9284601F036FC22460221062001F028
:1005F400A3FF062001F0B0FF09B0BDE8F08F00BFF3
:10060400003802400000024000080240000402409A
:1006140000B583B000210191094B1A6B42F400121A
:100624001A631B6B03F400130193019B0A46102009
:1006340001F082FF102001F08FFF03B05DF804FB8E
:100644000038024010B501F0EBFF0446464B1B682E
:10065400C31AB3F52F7F20D3434B1C60434B1A6856
:10066400D36823F40073D360414801F010FE414A7B
:1006740013680133136011683F4BA3FB01039B080C
:1006840003EB4303A1EB430313601368052B16D854
:10069400DFE803F0071F2E3D4C5B012001F0D2FC84
:1006A400DAE741F28833354A12683549304801F0B7
:1006B400B9FD012000F090FA324800F081FA2B4B8A
:1006C4001A68D36843F40073D360012001F0BAFCC4
:1006D40010BD41F28833294A12682B49244801F09D
:1006E400A1FD012000F078FA284800F069FAE6E755
:1006F40041F28833214A126825491D4801F092FDD0
:10070400012000F069FA234800F05AFAD7E741F2D1
:1007140088331A4A12682049154801F083FD0120E4
:1007240000F05AFA1D4800F04BFAC8E741F288334A
:10073400124A12681A490E4801F074FD012000F0B3
:100744004BFA184800F03CFAB9E741F288330B4AF7
:1007540012681549064801F065FD012000F03CFAD5
:10076400124800F02DFAAAE794EA002040EB00209A
:1007740098EA002090EA0020ABAAAAAA040000206C
:1007840058C3002008270008489C002014270008AC
:100794003875002024270008284E0020342700083C
:1007A4001827002040270008080000204C270008D4
:1007B40072B6FEE700B58FB000230A930B930C9337
:1007C4000D93089309930193029303930493059360
:1007D4000693079336484FF080420260436083607B
:1007E400344A1268013AC2600361836100F08EFCEE
:1007F400002850D14FF480530A930AA92C4800F0E2
:10080400EBFD002849D12A4800F0ACFC002846D171
:1008140000230893099308A9254800F06FFF0028D6
:100824003FD10022019202920392059201A920482D
:1008340000F028FD002836D1002300931E4A116BD6
:1008440041F400111163126B02F400120092009A39
:100854001A481B4A02604FF0C06242604022826024
:10086400C3604FF4806202614FF4006242614FF44E
:10087400005282614FF48072C2614FF4003202620E
:10088400436201F069FC80B9094A0C4B53629A63D4
:100894000FB05DF804FBFFF78BFFFFF789FFFFF74D
:1008A40087FFFFF785FFFFF783FFFFF781FF00BF97
:1008B40040EB0020000000200038024098EA0020AD
:1008C4008860024000B58FB000230A930B930C9309
:1008D4000D9308930993019302930393049305934F
:1008E400069307931E481F4A02604360836040F6E4
:1008F400FF72C2600361836100F008FC28BB4FF4FF
:1009040080530A930AA9164800F066FDF8B9144802
:1009140000F054FCE8B900230893099308A910488F
:1009240000F0ECFEB8B96023019300230293039313
:100934000593082201A90A4800F0D3FC68B90848C5
:1009440000F086FA0FB05DF804FBFFF731FFFFF704
:100954002FFFFFF72DFFFFF72BFFFFF729FF00BF46
:10096400F8EA00200004004000B595B034220021CC
:1009740007A801F08EFE00230293039304930593CA
:1009840006930093194A116C41F080511164126C62
:1009940002F080520092009A019315490A6822F4E9
:1009A400404242F480420A600A6802F440420192E2
:1009B400019A0222079201220A9210220B920D93AD
:1009C40007A801F025F868B90F23029300210391C9
:1009D40004910591069102A800F0D6FE20B915B045
:1009E4005DF804FBFFF7E4FEFFF7E2FE0038024087
:1009F4000070004008B501F0EDFDFFF7B5FFFFF70B
:100A040095FDFFF705FEFFF7D5FEFFF75BFF00F04E
:100A14006BF908210D4800F0EFFD0D4C0021204634
:100A240000F068FD41F288330A4A12680A490B480B
:100A340001F0F8FB012000F0CFF8094800F0C0F8FD
:100A44002268D36843F40073D360FEE7F8EA002019
:100A540040EB00200400002058C3002098EA002046
:100A64000827000882B000EB40000023019304E053
:100A740000BF00BF019B01330193019B8342F7D365
:100A840002B0704710B51420FFF7ECFF094CA369BE
:100A940043F40043A3611420FFF7E4FFA36943F088
:100AA4000043A3611420FFF7DDFFA36943F400436F
:100AB400A36110BD0008024010B504463D4A936985
:100AC40043F48043936110F0800F41D13A4A936913
:100AD40043F00043936114F0400F40D0364A9369C9
:100AE40043F48053936114F0200F3ED0334A93694A
:100AF40043F40073936114F0100F3CD02F4A9369B0
:100B040043F480739361FFF7BDFF14F0080F38D0EE
:100B1400294A936943F40043936114F0040F36D0D7
:100B2400254A936943F48053936114F0020F34D03F
:100B3400224A936943F40073936114F0010F32D095
:100B44001E4A936943F480739361FFF79BFF10BDC2
:100B5400A2F50062936943F400439361BBE7164A2C
:100B6400936943F080539361BDE7144A936943F05A
:100B740000739361BFE7114A936943F080739361F3
:100B8400C1E70D4A936943F000439361C5E70A4AFC
:100B9400936943F080539361C7E7084A936943F02C
:100BA40000739361C9E7054A936943F080739361C5
:100BB400CBE700BF000802400000024000040240EE
:100BC40038B50546002403E0FFF776FF0134E4B2AC
:100BD400285D0028F8D138BD10B504463F4A936912
:100BE40043F08043936110F0800F45D13C4A9369F0
:100BF40043F00043936114F0400F44D0384A9369A2
:100C040043F48053936114F0200F42D0354A936922
:100C140043F40073936114F0100F40D0314A936988
:100C240043F480739361FFF72DFF14F0080F3CD059
:100C34002B4A936943F40043936114F0040F3AD0B0
:100C4400274A936943F48053936114F0020F38D018
:100C5400244A936943F40073936114F0010F36D06E
:100C6400204A936943F480739361FFF70BFF40F6C6
:100C7400B830FFF7F7FE10BDA2F50062936943F4A4
:100C840000439361B7E7164A936943F08053936135
:100C9400B9E7144A936943F000739361BBE7114ABF
:100CA400936943F080739361BDE70D4A936943F000
:100CB40000439361C1E70A4A936943F08053936107
:100CC400C3E7084A936943F000739361C5E7054A93
:100CD400936943F080739361C7E700BF0008024043
:100CE400000002400004024008B5194B1A6B42F0A0
:100CF40001021A631A6B42F002021A631A6B42F081
:100D040004021A63134A136843F08243136002F522
:100D14008062136843F4A023136002F580621368B1
:100D240043F0A043136047F23050FFF79BFE33209B
:100D3400FFF752FF3220FFF74FFF0C20FFF74CFF65
:100D44002820FFF749FF0120FFF746FF08BD00BF39
:100D54000038024000000240FEE7FEE7FEE7FEE73F
:100D6400FEE770477047704708B501F04DFC08BDB9
:100D740008B5024801F09EFA08BD00BF98EA0020B9
:100D840082B0002100910B4B5A6C42F480425A64A9
:100D94005A6C02F480420092009A01911A6C42F05B
:100DA40080521A641B6C03F080530193019B02B0C0
:100DB400704700BF0038024010B582B00368B3F139
:100DC400804F04D01E4A93422CD002B010BD04467A
:100DD400002300931B4A116C41F001011164126C51
:100DE40002F001020092009A1748184A02604FF07C
:100DF400C06242608360C3604FF4806202614FF45A
:100E0400805242614FF480428261C3610362436253
:100E140001F0A2F918B90C4B63629C63D5E7FFF7A4
:100E2400C7FCF8E700230193064B1A6C42F0020258
:100E34001A641B6C03F002030193019BC5E700BF16
:100E4400000400400038024098EA00208860024014
:100E540000B587B000230193029303930493059391
:100E640002680E4B9A4202D007B05DF804FB0023DF
:100E740000930B4B1A6B42F002021A631B6B03F0D4
:100E840002030093009B0123019302230293059321
:100E940001A9044800F0DEFFE6E700BF00040040BB
:100EA400003802400004024030B4036A026A22F0AF
:100EB400010202624268846924F0730C0C6844EAFB
:100EC4000C0423F0020C8B6843EA0C03114DA84276
:100ED40003D005F58065A84205D123F00803CD6849
:100EE4002B4323F004030B4DA84203D005F5806582
:100EF400A84207D122F440724D6945EA020C8A697E
:100F040042EA0C02426084614A684263036230BC74
:100F1400704700BF0000014030B4036A026A22F443
:100F2400807202624268C46924F0730C0C6844EA5B
:100F34000C0523F400738C6843EA0423114CA0428B
:100F440003D004F58064A04206D123F40063CC6886
:100F540043EA042323F480630A4CA04203D004F53B
:100F64008064A04207D122F440524C6942EA041240
:100F74008C6942EA04124260C5614A68C263036232
:100F840030BC70470000014030B4036A026A22F4A6
:100F9400805202624468C26922F4E6420D6842EA61
:100FA400052223F400538D6843EA0533094DA84212
:100FB40003D005F58065A84204D124F480444D692A
:100FC40044EA85144460C2614A680264036230BC26
:100FD400704700BF0000014010B4036A046A24F0A3
:100FE40001040462846924F0F00C4CEA021223F038
:100FF4000A030B43826103625DF8044B704710B42B
:10100400036A046A24F010040462846924F4704CB2
:101014004CEA023223F0A00343EA01138261036223
:101024005DF8044B7047836823F070030B4343F06F
:101034000703836070477047704700000368324AB3
:10104400904212D0B0F1804F0FD0A2F57C42904272
:101054000BD002F58062904207D002F58062904284
:1010640003D002F57842904203D123F070034A681A
:101074001343254A90422AD0B0F1804F27D0A2F5DD
:101084007C42904223D002F5806290421FD002F548
:10109400806290421BD002F57842904217D002F54C
:1010A4007052904213D002F5806290420FD002F544
:1010B400806290420BD0A2F59832904207D002F59C
:1010C4008062904203D002F58062904203D123F4FF
:1010D4004073CA68134323F080034A6913438A6840
:1010E400C2620A688262084A904203D002F58062B2
:1010F400904201D10A690263026842F0040202606C
:1011040001224261036070470000014040B310B502
:10111400044690F83D30F3B1022384F83D30214673
:1011240051F8040BFFF78AFF012384F8463084F852
:101134003E3084F83F3084F8403084F8413084F8FD
:10114400423084F8433084F8443084F8453084F8DD
:101154003D30002010BD80F83C30FFF72DFEDBE76A
:101164000120704740B310B5044690F83D30F3B108
:10117400022384F83D30214651F8040BFFF75EFF4B
:10118400012384F8463084F83E3084F83F3084F8F4
:10119400403084F8413084F8423084F8433084F895
:1011A400443084F8453084F83D30002010BD80F888
:1011B4003C30FFF740FFDBE70120704740B310B538
:1011C400044690F83D30F3B1022384F83D302146C3
:1011D40051F8040BFFF732FF012384F8463084F8FA
:1011E4003E3084F83F3084F8403084F8413084F84D
:1011F400423084F8433084F8443084F8453084F82D
:101204003D30002010BD80F83C30FFF715FFDBE7D0
:101214000120704730B4036A026A22F010020262AD
:101224004468826922F4E6420D6842EA052223F00A
:1012340020038D6843EA0513114DA84203D005F538
:101244008065A84206D123F08003CD6843EA0513E4
:1012540023F040030A4DA84203D005F58065A84257
:1012640007D124F440644D6944EA85048D6944EA55
:101274008504446082614A688263036230BC7047BB
:101284000000014090F83C30012B28D010B50446F2
:10129400012380F83C300C2A1CD8DFE802F0071B3D
:1012A4001B1B0C1B1B1B111B1B1B16000068FFF7D1
:1012B400FBFD00200FE00068FFF7ACFF00200AE010
:1012C4000068FFF729FE002005E00068FFF75CFED8
:1012D400002000E00120002384F83C3010BD0220EF
:1012E400704738B590F83C30012B66D004460D4663
:1012F400012380F83C300C2A5AD8DFE802F0075961
:1013040059591B5959593059595944000068FFF724
:10131400CBFD2268936943F00803936122689369C3
:1013240023F0040393612268936929690B43936151
:1013340000203EE00068FFF76DFF2268936943F4E4
:10134400006393612268936923F480639361226844
:101354009369296943EA01239361002029E0006825
:10136400FFF7DAFD2268D36943F00803D3612268EA
:10137400D36923F00403D3612268D36929690B4339
:10138400D361002015E00068FFF7FEFD2268D369F1
:1013940043F40063D3612268D36923F48063D36187
:1013A4002268D369296943EA0123D361002000E05C
:1013B4000120002384F83C3038BD0220FCE710B43F
:1013C400846824F47F4C42EA03220A4342EA0C0272
:1013D40082605DF8044B704790F83C30012B78D064
:1013E40010B50446012380F83C30022380F83D30D8
:1013F4000268936823F47F4323F0770393600B68B8
:10140400602B4CD023D8402B54D011D8202B03D0A0
:101414000AD80BB1102B05D119462068FFF703FE3B
:10142400002028E0012026E0302BF5D0012022E026
:10143400502B0AD1CA6849680068FFF7CDFD5021D6
:101444002068FFF7F0FD002015E0012013E0B3F55C
:10145400805F3AD0B3F5005F14D0702B37D1CB68DE
:101464004A6889680068FFF7AAFF2268936843F016
:10147400770393600020012384F83D30002384F82F
:101484003C3010BDCB684A6889680068FFF797FF55
:101494002268936843F4804393600020EBE7CA68B2
:1014A40049680068FFF7ABFD60212068FFF7BBFDCA
:1014B4000020E0E7CA6849680068FFF78DFD402115
:1014C4002068FFF7B0FD0020D5E70020D3E7012016
:1014D400D1E70220704701F01F014FF0010C0CFA14
:1014E40001FC036A23EA0C030362036A8A40134380
:1014F4000362704710B504460846002942D194F8A7
:101504003E30DBB2013B18BF0123002B6ED1002813
:1015140051D1022384F83E30012201462068FFF7AE
:10152400DAFF2368334A934203D002F58062934280
:1015340003D15A6C42F400425A6423682D4A934200
:1015440049D0B3F1804F46D0A2F57C42934242D0B9
:1015540002F5806293423ED002F5806293423AD013
:1015640002F57842934236D002F57052934232D05B
:10157400A2F5943293422ED01A6842F001021A6006
:10158400002032E0042908D008290DD094F8413015
:10159400DBB2013B18BF0123B7E794F83F30DBB25D
:1015A400013B18BF0123B0E794F84030DBB2013BA4
:1015B40018BF0123A9E7042805D0082807D002236F
:1015C40084F84130A8E7022384F83F30A4E70223DB
:1015D40084F84030A0E79A6802F00702062A07D090
:1015E4001A6842F001021A60002010BD0120FCE7D5
:1015F4000020FAE70000014010B50446084600291F
:1016040042D194F83E30DBB2013B18BF0123002BDA
:101614006ED1002851D1022384F83E3001220146C4
:101624002068FFF758FF2368334A934203D002F53A
:101634008062934203D15A6C42F400425A64236894
:101644002D4A934249D0B3F1804F46D0A2F57C4253
:10165400934242D002F5806293423ED002F580620A
:1016640093423AD002F57842934236D002F5705252
:10167400934232D0A2F5943293422ED01A6842F0AB
:1016840001021A60002032E0042908D008290DD094
:1016940094F84130DBB2013B18BF0123B7E794F85B
:1016A4003F30DBB2013B18BF0123B0E794F8403070
:1016B400DBB2013B18BF0123A9E7042805D00828A1
:1016C40007D0022384F84130A8E7022384F83F308E
:1016D400A4E7022384F84030A0E79A6802F00702E6
:1016E400062A07D01A6842F001021A60002010BDD1
:1016F4000120FCE70020FAE70000014090F83C20BC
:10170400012A3DD010B40346012280F83C20022275
:1017140080F83D2002685068946820F0700C0868D6
:1017240040EA0C0050601A68164882421AD0B2F19E
:10173400804F17D0A0F57C40824213D000F5806022
:1017440082420FD000F5806082420BD000F57840D1
:10175400824207D000F57050824203D0A0F5943045
:10176400824204D124F0800449682143916001221B
:1017740083F83D20002083F83C005DF8044B70475B
:101784000220704700000140002800F09B8070B5E3
:101794000D4604464F4B1B6803F00F038B4208D2DF
:1017A400CBB24C4A1370136803F00F038B4240F022
:1017B4008B80236813F0020F17D013F0040F04D0AA
:1017C400454A936843F4E0539360236813F0080F89
:1017D40004D0414A936843F4604393603E4A93685B
:1017E40023F0F003A1680B439360236813F0010F07
:1017F40032D06368012B21D09A1E012A25D9364A9A
:10180400126812F0020F61D033498A6822F0030291
:1018140013438B6000F004FF06462F4B9B6803F0D4
:101824000C036268B3EB820F16D000F0F9FE801B44
:1018340041F288339842F0D9032042E0264A1268E4
:1018440012F4003FE0D101203BE0234A126812F079
:10185400007FD9D1012034E01E4B1B6803F00F0335
:10186400AB4207D9EAB21B4B1A701B6803F00F0393
:10187400AB422DD1236813F0040F06D0164A9368A7
:1018840023F4E053E1680B439360236813F0080FDB
:1018940007D0114A936823F46043216943EAC103E2
:1018A400936000F021F80C4B9B68C3F303130B4ABD
:1018B400D35CD8400A4B18600A4B186800F064FEE9
:1018C400002070BD012070470120FAE70120F8E7ED
:1018D4000120F6E7003C024000380240602700087F
:1018E40070EA00206CEA002008B5464B9B6803F0C0
:1018F4000C03082B05D00C2B43D0042B7FD142487A
:1019040019E0404B5A6802F03F025B6813F4800F01
:1019140012D03C4B5968C1F388113B480023A1FB0A
:101924000001FEF76DFC374B5B68C3F301430133E1
:101934005B00B0FBF3F008BD324B5868C0F388106D
:101944004FEA401CBCEB000C6EEB0E0E4FEA8E13FC
:1019540043EA9C634FEA8C11B1EB0C0163EB0E0379
:10196400DB0043EA5173C90011EB000C43F100039F
:10197400990200234FEA8C2041EA9C51FEF740FC77
:10198400D1E7204B5A6802F03F025B6813F4800FE2
:1019940010D01C4B5968C1F388111B480023A1FBCC
:1019A4000001FEF72DFC174B5B68C3F30273B0FB19
:1019B400F3F0C0E7134B5868C0F388104FEA401C9B
:1019C400BCEB000C6EEB0E0E4FEA8E1343EA9C63E5
:1019D4004FEA8C11B1EB0C0163EB0E03DB0043EA1D
:1019E4005173C90011EB000C43F100039902002369
:1019F4004FEA8C2041EA9C51FEF702FCD3E70348EE
:101A040099E700BF0038024040787D010024F400CB
:101A1400002800F0018270B582B00446036813F018
:101A2400010F41D0994B9B6803F00C03042B32D077
:101A3400964B9B6803F00C03082B27D0934B9B68B1
:101A440003F00C030C2B59D06368B3F5803F5BD0D3
:101A5400B3F5A02F5ED08D4B1A6822F480321A6041
:101A64001A6822F480221A606368002B5CD000F0AC
:101A7400D7FD0546854B1B6813F4003F14D100F0D5
:101A8400CFFD401B6428F5D90320CCE17F4B5B6874
:101A940013F4800FD2D07D4B1B6813F4003F03D0A6
:101AA4006368002B00F0BA81236813F0020F60D042
:101AB400764B9B6813F00C0F4AD0744B9B6803F071
:101AC4000C03082B3FD0714B9B6803F00C030C2BC9
:101AD40069D0E368002B75D06D4B01221A6000F0C9
:101AE4009FFD0546694B1B6813F0020F61D100F09E
:101AF40097FD401B0228F5D9032094E1634B5B68F2
:101B040013F4800FA0D0C6E7604A136843F480330F
:101B14001360A9E75D4B1A6842F480221A601A68C0
:101B240042F480321A609FE700F07AFD0546574B75
:101B34001B6813F4003FB7D000F072FD401B64280B
:101B4400F5D903206FE1514B5B6813F4800FBAD1D0
:101B54004E4B1B6813F0020F03D0E368012B40F0D7
:101B64005F814A4A136823F0F803216943EAC103F9
:101B74001360236813F0080F49D06369002B33D036
:101B8400434B0122C3F8802E00F04AFD05463F4B2B
:101B94005B6F13F0020F3AD100F042FD401B0228A4
:101BA400F5D903203FE1394B5B6813F4800F90D1E2
:101BB400CEE7364A136823F0F803216943EAC103E8
:101BC4001360D6E7324B00221A6000F029FD054667
:101BD4002E4B1B6813F0020FCBD000F021FD401BED
:101BE4000228F5D903201EE1294B0022C3F8802ED8
:101BF40000F016FD0546254B5B6F13F0020F06D06F
:101C040000F00EFD401B0228F5D903200BE12368E8
:101C140013F0040F76D01D4B1B6C13F0805F33D18F
:101C240000230193194B1A6C42F080521A641B6C06
:101C340003F080530193019B0125164B1B6813F499
:101C4400807F29D0A368012B3AD0052B3ED00F4BBF
:101C54001A6F22F001021A671A6F22F004021A673F
:101C6400A368002B3CD000F0DBFC0646074B1B6F3F
:101C740013F0020F45D100F0D3FC801B41F28833EE
:101C84009842F3D90320CEE00025D6E7003802407D
:101C940000004742007000406B4A136843F48073AD
:101CA400136000F0BDFC0646674B1B6813F4807F8D
:101CB400C8D100F0B5FC801B0228F5D90320B2E09E
:101CC400624A136F43F001031367C9E75F4B1A6F4E
:101CD40042F004021A671A6F42F001021A67BFE762
:101CE40000F09EFC0646594B1B6F13F0020F08D000
:101CF40000F096FC801B41F288339842F3D903200C
:101D040091E0EDB9A369002B00F08C804F4A9268F2
:101D140002F00C02082A54D0022B17D04C4B00229C
:101D24001A6600F07DFC0446484B1B6813F0007FE4
:101D340045D000F075FC001B0228F5D9032072E0A1
:101D4400424A136C23F080531364DBE7404B0022B8
:101D54001A6600F065FC05463C4B1B6813F0007FD7
:101D640006D000F05DFC401B0228F5D903205AE0A0
:101D7400E369226A1343626A43EA8213A26A52083D
:101D8400013A43EA0243E26A43EA0263226B43EA0A
:101D940002732E4A53602E4B01221A6600F040FC57
:101DA40004462A4B1B6813F0007F06D100F038FC70
:101DB400001B0228F5D9032035E0002033E0002081
:101DC40031E0012B31D0214B5B6803F48001E269DF
:101DD40091422CD103F03F02216A8A4229D1616ADF
:101DE40047F6C0721A40B2EB811F24D103F440318C
:101DF400A26A5208013AB1EB024F1ED103F070629D
:101E0400E16AB2EB016F1AD103F0E043226BB3EB4A
:101E1400027F16D1002006E001207047012002E075
:101E2400012000E0002002B070BD0120FBE701208A
:101E3400F9E70120F7E70120F5E70120F3E70120A6
:101E4400F1E70120EFE700BF0070004000380240D6
:101E54000000474200230F2B00F2E38070B582B0EC
:101E640065E085684FEA430E032404FA0EF425EA7C
:101E74000405CC6804FA0EF42C438460446824EA14
:101E840002044A68C2F300129A40224342605CE0B2
:101E9400DC08083450F8242003F00705AD004FF0A7
:101EA4000F0E0EFA05FE22EA0E0E0A69AA4042EA55
:101EB4000E0240F824205CE0062200E0002202FA30
:101EC4000EF22A430234574D45F82420564A9468AA
:101ED4006FEA0C0224EA0C054E6816F4801F01D048
:101EE4004CEA0405504CA560E46802EA04054E6817
:101EF40016F4001F01D04CEA04054B4CE5606468FD
:101F040002EA04054E6816F4003F01D04CEA0405C9
:101F1400454C6560246822404D6815F4803F01D02B
:101F24004CEA0402404C226001330F2B77D8012283
:101F34009A400C6804EA020C32EA0404F4D14C68B6
:101F440004F00304013C012C8BD94A6802F003021B
:101F5400032A09D0C4685D000322AA4024EA0204CB
:101F64008A68AA402243C2604A6802F00302022A35
:101F74008ED004684FEA430E032202FA0EF224EADA
:101F840002044A6802F0030202FA0EF222430260DB
:101F94004A6812F4403FC7D000220192234A546C8D
:101FA40044F480445464526C02F480420192019AD5
:101FB4009C08A51C1B4A52F8255003F0030E4FEA57
:101FC4008E0E0F2202FA0EF225EA0205184A9042FA
:101FD4003FF474AF02F58062904216D002F580623D
:101FE400904214D002F58062904212D002F58062D1
:101FF400904210D002F5806290420ED002F58062C9
:1020040090423FF459AF072259E7012257E70222D1
:1020140055E7032253E7042251E705224FE702B0B4
:1020240070BD704700380140003C01400038024058
:10203400000002400AB18161704709048161704760
:102044007047000008B5054B5B69034200D108BD29
:10205400024B5861FFF7F4FFF9E700BF003C014071
:1020640030B405682C6824F480242C600468636010
:102074008368402B05D0036899600368DA6030BC3C
:10208400704703689A600368D960F8E710B403687E
:10209400D9B210390A4AA2FB01421209094CA25CC6
:1020A400C2655F2907D96FF3090304338365806D23
:1020B4005DF8044B70476FF309038365F7E700BFCE
:1020C400ABAAAAAA58270008836A826992B9012B8D
:1020D4000AD0022B02D00BB100207047C36A13F060
:1020E400807F28D100207047C36AB3F1C07F24D019
:1020F40000207047B2F5005F09D0022B25D9032BCD
:1021040025D1C36A13F0807F23D100207047032BAD
:1021140003D8DFE803F01404140A00207047C36AEC
:1021240013F0807F0DD100207047C36AB3F1C07FE4
:1021340009D000207047012070470120704701201A
:10214400704701207047012070470120704700202C
:10215400704701207047000070B5044600F060FA33
:10216400002C5BD00546022384F83530002384F824
:1021740034302268136823F00103136023681A685B
:1021840012F0010F0AD000F04BFA431B052BF5D9CE
:1021940020236365032084F8350070BD1A68204944
:1021A40011406268A0680243E06802432069024368
:1021B40060690243A0690243E0690243206A024362
:1021C4000A43616A04291ED01A602668756925F0DD
:1021D4000705636A1D43042B07D1A36A1D43E36A01
:1021E4001BB12046FFF770FF90B975612046FFF7D9
:1021F4004DFFE26D3F23934083600020606501231F
:1022040084F83530C9E7E16A206B01430A43DBE710
:1022140040236365012084F83500BEE70120BCE754
:102224003F8010F038B50446856D90F834000128DD
:102234002BD0012084F8340094F83500C0B2012872
:1022440004D0002384F83430022038BD022084F8FE
:102254003500002060652046FFF702FFE26D3F2352
:102264009340AB602268136843F016031360236C39
:1022740023B12268136843F00803136022681368CB
:1022840043F0010313600020DFE70220DDE790F84C
:102294003530DBB2022B03D0802343650120704725
:1022A400052380F835300268136823F001031360B6
:1022B40000207047F0B583B0044600230193724BAD
:1022C4001D68724BA3FB0535AD0A876D3E68C26D70
:1022D40008239340334210D003681A6812F0040FA5
:1022E4000BD01A6822F004021A60C26D08239340CE
:1022F400BB60436D43F001034365E26D01239340EA
:10230400334209D02268526912F0800F04D0BB60B6
:10231400636D43F002036365E26D0423934033422B
:1023240009D02268126812F0020F04D0BB60636DFA
:1023340043F004036365E26D10239340334224D0D9
:102344002268126812F0080F1FD0BB6023681A6855
:1023540012F4802F0DD01B6813F4002F04D1236CCA
:102364009BB12046984710E0A36C73B12046984770
:102374000BE01A6812F4807F03D11A6822F0080275
:102384001A60236C0BB120469847E26D20239340DA
:10239400334255D02268126812F0100F50D0BB603F
:1023A40094F83530DBB2052B0ED023681A6812F48A
:1023B400802F33D01B6813F4002F2AD1636C002BB9
:1023C4003ED0204698473BE02268136823F016036A
:1023D40013602268536923F080035361236CA3B113
:1023E4002268136823F008031360E26D3F239340CF
:1023F400BB60012384F83530002384F83430236D26
:10240400002B3FD0204698473CE0A36C002BE7D13B
:10241400EBE7E36BA3B12046984711E01A6812F486
:10242400807F09D11A6822F010021A60012384F80F
:102434003530002384F83430E36B0BB120469847E1
:10244400636DFBB1636D13F0010F17D0052384F89E
:1024540035302268136823F001031360019B0133B4
:102464000193AB4204D823681B6813F0010FF5D124
:10247400012384F83530002384F83430E36C0BB145
:102484002046984703B0F0BD70EA0020B5814E1B8A
:10249400002807DB00F01F02400901239340024A91
:1024A40042F82030704700BF00E100E0002808DB5C
:1024B4000901C9B200F1604000F5614080F80013E1
:1024C400704700F00F000901C9B2014B195470475D
:1024D40014ED00E000B500F00700C0F1070CBCF1FA
:1024E400040F28BF4FF0040C031D062B0FD9C31E85
:1024F4004FF0FF3E0EFA0CF021EA000199400EFA6B
:1025040003FE22EA0E0241EA02005DF804FB002306
:10251400EEE70000074AD36823F4E0631B041B0CB6
:10252400000200F4E060034343F0BF6343F400336C
:10253400D360704700ED00E010B50446054BD86841
:10254400C0F30220FFF7C6FF01462046FFF7AEFFA7
:1025540010BD00BF00ED00E008B5FFF799FF08BD0E
:102564000138B0F1807F0BD24FF0E0235861054A67
:10257400F02182F823100020986107221A61704725
:102584000120704700ED00E010B504460E4B1A78A8
:102594004FF47A73B3FBF2F30C4A1068B0FBF3F018
:1025A400FFF7DEFF68B90F2C01D901200AE00022F1
:1025B40021464FF0FF30FFF7BFFF054B1C600020A2
:1025C40000E0012010BD00BF68EA002070EA00208E
:1025D4006CEA002008B50B4B1A6842F400721A60CA
:1025E4001A6842F480621A601A6842F480721A60AF
:1025F4000320FFF78FFF0F20FFF7C6FFFEF7C0FB96
:10260400002008BD003C0240034A1168034B1B78BC
:102614000B441360704700BF88EB002068EA002079
:10262400014B1868704700BF88EB0020034AD2F8BA
:10263400883043F47003C2F88830704700ED00E03E
:10264400DFF834D0FFF7F2FF0C480D490D4A0023A0
:1026540002E0D458C4500433C4188C42F9D30A4A53
:102664000A4C002301E013600432A242FBD300F0C1
:1026740019F8FEF7BFF9704700000220000000209F
:1026840074EA00208027000874EA00208CEB002004
:10269400FEE702440346934200D1704703F8011B4E
:1026A400F9E7000070B50D4D0D4C641BA410002615
:1026B400A64209D10B4D0C4C00F018F8641BA41071
:1026C4000026A64205D170BD55F8043B9847013653
:1026D400EEE755F8043B98470136F2E778270008FF
:1026E40078270008782700087C270008F8B500BF81
:1026F400F8BC08BC9E467047F8B500BFF8BC08BCDF
:042704009E46704736
:1027080053696E65205761766500000053617774E0
:102718006F6F7468205761766500000054726961B4
:102728006E67756C61722057617665005069616EDD
:102738006F2057617665000047756974617220578C
:10274800617665004472756D2057617665000000FA
:102758000006101600061016000000000000000019
:08276800010203040607080941
:08277000C4DAFF7F0100000044
:04277800E90100086B
:04277C00C50100088B
:10278000800C00003C040040FF07FF07FF07FF0725
:10279000FF070008FD07F8070008FF0701080C08FD
:1027A0002309AA08EC0BC70BC406AD004B0F0000B1
:1027B000F80E460D49023F0B08019905EF054D073C
:1027C000DB0B850FF00F100ABC087E0304003601F6
:1027D0004708050A310A710D790CF00D0F08350212
:1027E00042040F0751090108940780083C08710949
:1027F000AA088208840842062A046606C3079909C3
:10280000EE0A7309D309A3092307E005130534066B
:102810007207A708720AE3097D08990729078B0741
:1028200032084E08660761074F079F07FC07D30869
:10283000B8095B09BA08C406B9051E062507800851
:102840006B0993094909B50821078506BD06D0071C
:10285000AA08B3086C08C40774076007FB07DD0803
:10286000ED087C08B5072A070A075407F5078F0803
:10287000D608CB084F08DF07830741077907F90718
:10288000670878083908D9079507B80711084D086F
:1028900051082F08EB07AD07A307CF0717084D080E
:1028A00031081B081208F107D507C307D907EF073E
:1028B00006082F084A0841081308D507BB07BE07BA
:1028C000E20702082008280818080308F607EE07A0
:1028D000050820080408A607770825085606F60FFD
:1028E0000000410CDC0C0300FE0F9206D804200807
:1028F0009701ED067F065D07A00DED0F2F0EED0889
:10290000C40800000000E903270A44092D0B2E0D1E
:10291000C40CEA0C93046202A205F707230901071D
:102920001A083E08D9084F097708B508DF07F804E8
:10293000B90429074F08620A890A3109060AA8085A
:10294000910684054505DA06AF076E09940A470922
:102950001E0858074C07B8076808F10748076007C2
:102960005307C50735082E09B7092A090008860646
:1029700097059606BB07F90861096C094009090823
:10298000CC069A0604073B08D708960828089D0736
:10299000510782076208E808CD083C087C07250734
:1029A000080787073008BC08DD08A2081D08B9071A
:1029B00069074707B0072F087B0868081D08B70795
:1029C0009F07E1072F08550842081108CF07A10704
:1029D000AD07E50732084908280818080808E7077E
:1029E000C907CA07E007FB0719083A084C0832086C
:1029F000F607C407BA07CC07EE070C082808210819
:102A00000A08FE07ED07F7070D0820080308A001D4
:102A1000FF0F0000F00F8D040000F80F6007FC04AA
:102A2000D20D0F088D045B0C26078A06E90ABD0645
:102A3000D5088109BF07480AC106DE08FF097709E2
:102A40002307A50822087107090AFE045D073D0A4D
:102A5000E007290A2D06D907E009DA052A08FE0849
:102A6000FB06E608030775075B09E906BA08A7082D
:102A70003C071E09C007C707CD08A407A5077108B2
:102A80006E0717080508BF072108E207D6072E08BA
:102A90000008B1074208F107F5072608E4075108C6
:102AA0002908DA070708EB07BE07EE07E7070F0854
:102AB00021080E08F8072A08E507F9071408E407B3
:102AC000F007F707F1070108E007FF07FA07150805
:102AD00021081F0803080F08F307E3071008F90788
:102AE000F2071408F6070A08E707F1071C08FC07B5
:102AF0000C081108F7070E0808080008FF07FD0773
:102B0000F7070008ED07EA071308F2070D080008A9
:102B1000FC07FC07FC07F607FF070208FD07F8079C
:102B200006080C08F807FC070608FC070D08010852
:102B30000508FA070308FF07FF07080806080A0840
:102B40000A083E07F9089E094302D402FF0F040059
:102B5000F20FFE0AD7024E08530231073A06EB077E
:102B6000E70C260F4B0E4B09030804000000DB03A3
:102B7000C50A910ABA0C660C170E080F1D0426012F
:102B8000F2044A07BC0A1E09AB082709A309B307C8
:102B9000A007A3084C080F05E3048F074F09470B54
:102BA000AB0A71081D0A4708E305AB0554053C074D
:102BB0006E087B09410B2F0AD907E206B5060F07FD
:102BC0004B08E406CB057F0649079C09D509CD09CA
:102BD0007608E607B0067B053F061008F20878097C
:102BE000C108E3072A07FF07AC071E08740871082D
:102BF00032085907E206000789077908F4096C09C9
:102C00006708720778063007BE078408A90882089B
:102C1000F6075C073407A507E0073C08AD0849083C
:102C20008D080308C40746078A073D08CC086008DA
:102C30001608700779079307EC071A085F0837082A
:102C4000E307C5079907060825081608F10749088C
:102C5000050805082808BE07D907E1070908EA079B
:102C600029085B084E081B08D407CE07C7070208CF
:102C7000F307F3071808E307F50731084109EB06E6
:102C80002D09AD079906F80854081A08E4065606F7
:102C90002B07760683079E05D208AB078208270913
:102CA0009206E3087B075B065F0820075E08E407DF
:102CB0007F08FC079508000868072D08B30713086C
:102CC000D5070A080308800708081C084108DC0724
:102CD000EB07F607DA070708D3072D08E0072A08ED
:102CE000F207E407F20706081D080C080408F507B8
:102CF000E807F307E3070708120821081108FC0793
:102D0000F607F207F607FF070C080A080508EF07A1
:102D10000208CE070908E4073508D407DC071608BF
:102D2000B1072C08EA07F107EC07FE070808CB07F4
:102D30000A08FE070C08020805080E08E707FC074A
:102D4000020824080508F707FD07FD07FF0700082C
:102D5000F80702080408F607F007F9071108050844
:102D600005080108FB07F707F807F607F907FE074C
:102D700002080208080803080308020803080108FB
:102D8000FC07F907FB07F70700080108020800081D
:102D90000108FD070008FE0700080208FE07F80703
:102DA000FB07F907FD07FF07060807080708FE07E6
:102DB000F607FA070008D0070D0812087505420843
:102DC0008407C007B807D308D9066008DF08ED06F6
:102DD0004D0881069909CD08190737094D073E08A6
:102DE000BF0746072808F4073A087107D308F50714
:102DF0003E08FF07A7076008A0071308AA073508C1
:102E00002E08E6070C08C40710081A0819085E08FF
:102E100011083B08BC07EF07C207CC07DC071A08FC
:102E2000F607E10703081E08EC07EC07F907150889
:102E3000EF07F307F8070408020805080808010867
:102E4000FC070108F8070308F4070508F707F80767
:102E5000F907FB070E0811082F08FA07E2070F0809
:102E6000EC07DF07E907F707F907FE07EF07200878
:102E7000E207F407080803081708EF070008060828
:102E8000F207FF07E6070F08FD072D08EC07090802
:102E9000F6071A08FA0717084308DD071808F007AD
:102EA000F507EF0727080508F0070A08FB07FD07E5
:102EB000EB0707080408FE07000800080308FA07E4
:102EC000F807040800080208FD07FD07FE07FE07D3
:102ED000FC07FE07FB07FD070408FD07FB070208C8
:102EE000FD07FE07C80700080708E507850FC204AD
:102EF000D701FF0F01000106F40F2400960E160BF8
:102F00005801C10A430490069309DD08E205280729
:102F1000F905230530071F04F60AE0085C07AC0A30
:102F200027073207DB09EA078C0782092D06AB0762
:102F3000F808F405A208A7079E061909E506410747
:102F4000170A7E0684089D08F506F908A2072508D9
:102F50009E085A07320857086507480848087D0741
:102F60005508AD0702083E08870728082A08C70742
:102F70001F080C08E6073B08E607ED074208E307D1
:102F8000EA072508DF07FD070808E507080817080E
:102F9000E7071808E307F4071608ED077308F007BA
:102FA0000208F107F907020828082C08D6070608C6
:102FB0000F08F807FA07F3071708F207FE07F807E4
:102FC000FA07F3070408FD0718081108EA07FB07CA
:102FD0000208FA071108E2070F080708FA0716089F
:102FE000F907FE0700080608030811080C08100876
:102FF0000708ED07E807E407F707090821080B08A9
:103000000208F607E907F507F207FA0702080508BC
:103010001A08170814080008F907F407F007110840
:10302000C506CC0606083C0920084707CD082E0631
:1030300021066B077708B006430AB90660081C072B
:1030400014071F093F086D071F0819080C086C07B3
:10305000A30798074C08EC07B0077F08EB07570851
:10306000B007E907D4070A081C08F407EF07C307ED
:10307000F807C107F007F007D8074B08C607F9079C
:10308000EC072208FB07FF07ED07F4070508EA072E
:1030900007080208FB070508F4070508FE070208F1
:1030A000FC0701080A08FE070008F707FB070308EA
:1030B000020803080408FA07B80713083C08450982
:1030C0008C04F60DE1023C04FE0F4A049E05B00894
:1030D000A202DF02C608F705D50AFF0FB60D580A8F
:1030E000430BFC010000B101B703E806B40B7D0FF0
:1030F000480F950CAB07A503C70478073E072605C4
:10310000D907BF07E508AF0ADF090C0A5309BC0657
:103110000B05DE0455045D06EA08CD0A220D970B67
:10312000230946068704E004C4061709AE091709F7
:10313000DD07A807D6071B085B0847089107FF06AD
:103140002207CA07B50888093E0920088C07DD0652
:103150007D065F076A08CB06B809CE093E0AEB0A6E
:103160007E09BD082900FC0F00004B0E790D1F02DF
:10317000530BA101CD05F1056907710BA60FCE0F09
:10318000F409E908A103000030013008030A260A07
:103190007A0D640CC90D360825024A040D075C0936
:1031A00007088207950839087109AF088108850862
:1031B0004D062B046106C4079309F00A7609D3096A
:1031C000A5092907E205140530066F07A108710A51
:1031D000E70980089C0728078A072E08520862071B
:1031E000600752079D07FC07B008FB098609B6086F
:1031F0008E06CE052A065807630884098D094B09F7
:10320000AA083D077706BF06C107A808B4086E08DC
:10321000BF0776076207F907DA08E8088008BC07E5
:1032200033070A074A07F2079008D608C708540868
:10323000DD07860742077807FA0769087A08390820
:10324000DB079507B60711084E0853082F08ED074E
:10325000AD07A307CF0717084E0832081B0812084E
:10326000F107D807C407D907F00706082F0849084F
:1032700042081308D607BA07BE07E20701081F086D
:10328000280819080408F607EE0704081C080008B7
:1032900028089407CB070407F30594079409B2079D
:1032A000AB07EA07630836082F0717065808010816
:1032B000070895084B08A907F9071108E307CE0886
:1032C0001F08B3077608AA07C207D107A3078F080C
:1032D000C20706089307C907E9072708F407ED079F
:1032E00054086308E707C107E40704081108320817
:1032F0001908DE07F6070708F507050809081A0880
:10330000FC070108F107F107FC07100815080E0873
:103310000608EC07E907E307F1070308100811089E
:103320000D080108F707F107FF070308DA07F5079B
:10333000D90713080E082908E1073F08D607050832
:103340000C08F707E6070B081808EC07120808082E
:10335000350808081408ED07C5072B08D507F80736
:103360000C08E2071C082C089F0735085808FA07C4
:103370006E0811081108F7071F08E5072708280835
:10338000F8070008FD070708FD07F207F807EC0734
:103390000508000809080508FD070208FF070108DD
:1033A0000008FF07FE07FE0700080008FF07FE07EA
:1033B000FF07FE0702080508FF070008FB070B08C8
:1033C000FC070508F107F4079201F60F0000FF0F54
:1033D000AE040E00E10F8907EF04B90DDE08FC050D
:1033E0006A0C3607D3053A0A93064A09DD099307A2
:1033F000700BAE0626089D093509A106B0089A088B
:10340000C906D10A02050907C4098E070A0A8B06F4
:10341000CE07F109C7052908FA081007AC081D07EF
:103420008B0771090007C708AC081C070309CF0701
:10343000BF07B808B007A60773086E070F080B0888
:10344000B9072008EA07DC072A080608B30742087C
:10345000F707F5072608DF0751082C08DA070708E1
:10346000EA07BF07F007E50710081E080F08F30773
:103470003008EE0704082008D007FD07F107ED0724
:10348000F207DA07FF07FD071B08160822080008E5
:103490001008F707E3071108F407EF071408F90706
:1034A0001008E907ED072208FC070C081108F307CC
:1034B000100808080008FC07FD07F907FE07EF07DA
:1034C000E7071008F0071008FF07FE07FA07FD07D7
:1034D000F607FE070008FC07F60707080A08FA07C0
:1034E000FA070308FC070A08FF070608FC0701089B
:1034F000FF07FF07090803080A080C082F0713092C
:103500009909B4014C02FF0F1200F10F260B94022F
:10351000A608FD01FE067C068807950C240F5B0EAD
:103520006409F207000000004804FD0A3C0A5E0D31
:10353000170C3D0EDA0EA604F70080043707200BA7
:103540001F09B1082009E809F907A30777088F08C0
:103550000B059E04F4071E09A90BAF0A7408500955
:10356000DF07B60606055D0567072708BC09420B9D
:103570008C09CA084B07B60663079408C606FA0505
:10358000250779079209ED09B2097C080F08990609
:103590003E05F805D707B8084509B30818086407B9
:1035A0001908B6074E085608C008F7074607E3068D
:1035B000DA064E077408D109540985088D07B1064B
:1035C0000907BA076A08A1088808070850072607EC
:1035D0008807F7076008B508470882080408AE079F
:1035E00040079B073708BB08580809088307880766
:1035F000BC07EF073D0869083A08FC07C607AE0795
:1036000019081C0814080B08470804082A0825088C
:103610009807E007DA070B080D082B0860084F0829
:103620000908CF07C907D0070108F107F9071408EF
:10363000DE07F8073F0859094B072F088F070907CE
:103640002D08A409BD075508B607F20723072A0766
:10365000DF0500096508BC0800098E06EC08B907FB
:10366000CE0675084D075108C0079508AE078708B4
:10367000DF079507E607DB070808CC072C08E507F6
:10368000790714080D083C08CF0714080F08C6076F
:103690000D08C2072408E4072C08FA07DC07EF0727
:1036A000020821080908FC07F807E707F307E10704
:1036B0000608130820081008FA07F707F207F607AC
:1036C000FF070D080A080308EE070008CF07FF07E9
:1036D000E9073B08E607C8070908B6071B08D8072B
:1036E0000108EE07F107FE07D207030801080908E1
:1036F000FF0700081408EB07F6070A082108090865
:10370000F207F907FC070208FE07FC07F807FB07AA
:10371000F007F407FA071308000807080008FC0779
:10372000F507FB07F307F607FF070308020807087A
:1037300004080008000803080108FF07F907FA0752
:10374000FA07FF070108020800080108FE07000841
:10375000FF07FF070208FE07F807FB07F807FD074A
:10376000FF07060807080708FF07F6070108030810
:103770007D087309AB063F091000C10F0D00690AEF
:10378000FC0F93016D0B89005C0540053C06530A54
:10379000030FFF0F980AC3088005010000003A07D5
:1037A000380AFD09DF0C990CBF0DCE092802AD03C4
:1037B000CF060A0974083007BF081C086509C2084B
:1037C00076089108B10623041206B0074209F30AED
:1037D000AE09A009D609690709061D05FE055B07A4
:1037E0005408490A140A9C08B407280784070D08DE
:1037F0005208790750074C078B07ED07A208EC0920
:103800005509FC08F6060A06E10528076D085C095B
:1038100092092B09C40869078E06B40695078E081D
:10382000CA087508E50777075A07D407BE08F008E5
:103830009808DD07470710074107D6077B08D80817
:10384000D2086B08F00798073E076907EF075D0885
:1038500082084408E9079B07B30708084B08550886
:103860002E08F507B607A707CD0709084D08370842
:103870001C081008F607DC07BF07D607EC0700088E
:103880002608480843081E08DB07B807BB07DE0701
:1038900000081B0825081B080308F907F107FF07A4
:1038A0001D083D08E407520F0D04E501FA0F010061
:1038B000D505F20F7B00ED0E870B4701EF0AA7033A
:1038C0004007E7093309AC05D0069B06DE052A0749
:1038D00048047F0AB6088B06CA0A7A069907470A7F
:1038E000BF074F0794096D06A9070C09B105960893
:1038F0005D077E06270945075C07220AA0068008A7
:10390000BB080207F608AC072108960867072E08CF
:103910005D08650746084A0879075208AE0702089D
:103920003F0888072A082A08C6071D080D08E60769
:103930003B08E407EC074208E407E9072508E1072C
:10394000FC070808E50709081808E6071708EB0749
:10395000F3072108F1079308EE07F907EC070B08B6
:10396000070822082608D90717080C08F7070408D3
:10397000F3071108F307F507FC070308F3070B0823
:10398000060810081708F107FB07FE07FF071008D5
:10399000E6070B080D08FE071708F907FD07FF07E4
:1039A0000508020810080A0810080908ED07E807CA
:1039B000E507F6070A0820080C080208F507E807DB
:1039C000F507F207F907020804081B08150815088F
:1039D0000108F907F407F507170820074607240729
:1039E0004E0AAA064508C909A30634082108970803
:1039F0002D06040B350638097B077807AD07C50788
:103A0000D207010892087C073A083508910779081F
:103A1000A20722088208E607DB087E070008DC0709
:103A20000708ED07D6078607B707FC07AE07E807C4
:103A3000F807EA076A08D807F10703081808F30728
:103A40000908EE07FA070208E40711080408F70757
:103A50000408F7070508FE070208FD070108080823
:103A60000108FF07F607FB0704080208040804081A
:103A7000FA07B7071C082B08A7096A04DD0D200305
:103A80002A04FF0F95048305D808C602E502D00872
:103A9000EE05C30AFF0FCD0D490A430B2D020000AE
:103AA000A301B503D706A10B820F390FA50CDC07C4
:103AB000B803C404670753070E05CD07C507D3082D
:103AC000B20ADB090E0A5F09C4060C05DB045704C1
:103AD0005A06E308C90A210D9B0B270949068804E9
:103AE000D904BF061009B0091B09E007A807D507CC
:103AF0001B085A084908930700072107C807B4089C
:103B00008609410921088E07DF067D0655075A08F8
:103B10005707280AC009430AEA0A4809F0084B0077
:103B2000D60F0000390E790D2C02580B9801C905EB
:103B3000EC059907400B9D0FC40FD809EC08A303AF
:103B400000000F012108280A2B0A680D5F0CB90D2F
:103B500058081602450413075109090881079208FD
:103B600038087409B008810886084F062D046106DC
:103B7000C4079309F00A7609D309A5092907E205C4
:103B8000130530066F07A108700AE70980089C0733
:103B900028078A072E0852086207600752079D0708
:103BA000FC07B008FC098909BB088D06CF0524066F
:103BB0005707620886098C094B09AA083E0779064F
:103BC000BE06BA07A408BA087108C00776076507D9
:103BD000FD07DC08E3088308C107350704074C0725
:103BE000EF078E08D908C6085308DC078607400788
:103BF0007807F90768087A083908DB079507B607D8
:103C000011084E0853082F08EC07AD07A407CF078B
:103C100017084E0832081B081208F107D807C40716
:103C2000D907F00706082F084A0841081308D607E5
:103C3000BA07BE07E10701081F0828081908040889
:103C4000F607EE0705081B08FB0729089C075E0915
:103C5000F406AC0D0700120C970D2600F80F19079B
:103C6000E00311085B011307BA06BA07480DF50F08
:103C70004C0E0209540904000400C303ED0948096D
:103C8000210B690DD80CFD0CBE046C028C05ED07F0
:103C90003209F60625083E08D9084E097108B3080E
:103CA000E0070305B604230748085B0A8E0A3109BA
:103CB000030AB208920687054005D706AB076609D6
:103CC000960A510921085B074A07B4075E08FF07F7
:103CD0004D0760075007C10732082E09AD0960097A
:103CE00017086B0682059706C007C6087C09750988
:103CF00036092408DD069606FF062F08CF089C0823
:103D000027089C0758077A075808EE08C808400893
:103D10008407250709078A072908B708E008A308C8
:103D20002008BA0769074407B2072C087D0866080F
:103D30001C08BB079F07E2072F0856084208140813
:103D4000D207A207AD07E407310848082808180879
:103D50000908EA07CD07C907E007FA071808380875
:103D60004C083308F807C607B907CC07ED070B085E
:103D7000270821080A08FF07EE07F6070B08FA07CD
:103D800008086E01F70F0000ED0FDB040000FB0FC9
:103D9000DD0763045F0DF60863065E0C3B0748050C
:103DA000490A8F0689098B0910071C0C0F06CE07DC
:103DB000A2094009A406B5089A08E306F00A0B0513
:103DC000FE06D0098E07110A8706CC07FF09B70542
:103DD0002408F8080807B0081C077A0774090007C8
:103DE000C108A6081B070509D107BF07B808B00717
:103DF000A50772086C070E080C08B9072108EA0726
:103E0000DC072A080608B3074208F707F507260863
:103E1000DF0751082C08D9070708EA07C007F10790
:103E2000E30710081B080F08FA073D0800081108EF
:103E30000808C8070008EC07ED07ED07D5070208DA
:103E400007081C0816082308FF070E08F807E107F3
:103E50001108F407EF071308F9070F08E807EF0741
:103E60002208FC070C081108F307100808080008CE
:103E7000FB07FD07F907FE07ED07E9071008F00744
:103E80001008FF07FF07F907FD07F607FE07000800
:103E9000FC07F60707080A08FA07FA070208FC07F2
:103EA0000A08FF070608FC070008FF07FE070908C5
:103EB00000080A080C082B074409A3099F012F02D8
:103EC000F50F0000EF0FA50B4502C2089E01C806C2
:103ED00012062208F90C250FC30E6409EE07000034
:103EE00000005104F60A4D0A570D1D0C3F0ED60E68
:103EF000A404F10085043907200B2009B208210928
:103F0000E009FF07A80783089E0807059F04FC0730
:103F10001C09AA0BB50A7F085709E607AA06FE0482
:103F20005C056C072808B709450B8A09CF084C07C0
:103F3000C4066907A908C006FD051C0780078F098C
:103F4000D009D709C208E60782061E05DA059E07D2
:103F5000CA082109BC086208BB07FA07E30778080A
:103F60002708FE08F3072607B00691064A07B2089D
:103F7000CF09580986088707B4060607B9076B08F2
:103F8000A40887080A084B0726078907FB075E086D
:103F9000B208450886080608AD073F0796073A08A5
:103FA000B9085F08070881078707BE07F1073E08C1
:103FB0006A083708F907C207AC0717081B08140876
:103FC0000F0848080308290825089807DF07DA07BB
:103FD0000B080D082D08600847080108CD07C40725
:103FE000D3070208EA07FC071508D607F6075908A1
:103FF0009E083508B00602076C06CA061D0A8D0623
:104000002A09A208FA072D072B07EF05F70867080A
:10401000B50802098906E908B507CD0676085507EF
:104020004C08C1078F08AE078C08DF079507E30728
:10403000D7070808C9072C08E707770715080D08F0
:104040003D08CD0717080F08C4070D08C10726084B
:10405000E4072D08FA07DC07EE0702082108090823
:10406000FC07F807E707F307E1070608140821082B
:104070001108F907F807F207F60700080E080A0802
:104080000308EC07FD07D407FE07E40755081408EA
:10409000D4070A08BC070508DF070208EE07F20785
:1040A000FF07D307040801080908FF0700081408E0
:1040B000EB07F707090820080908F307FA07FC07C8
:1040C0000208FF07FD07F707F807EF07F507F907ED
:1040D0001308FF0707080008FD07F607FC07F207AB
:1040E000F607FF070408020807080408000800088C
:1040F000030801080008F907FB07FA07FF07010892
:10410000030800080208FE070108FF07FF0702086E
:10411000FE07F807FB07F807FD07FF070608070873
:104120000708FF07F9070108F707C6079B085709A3
:104130002D05C9080708F406CF07B808E3051608D7
:104140009C087F061C08EC06740852083A07FB0816
:10415000C507BF07070896074008180863088D07BA
:104160009C083B081F086A083F081208B607410868
:104170008807F4073308D507E507EB075108060859
:10418000F50711083B0809080708F4078807240801
:10419000FE07EB070908BB07EF07BB07F007F907A6
:1041A000F5071508EF07FA07FE07000805080608D7
:1041B00004080008FA070708F707FF07F3070508D0
:1041C000FA070108ED07D807ED0726080908D30705
:1041D000D2071D080308F207DF07EE07F6070108FC
:1041E000FA071E08EA07F6070B0804081E08F80776
:1041F000E60705080A080108F4070E08EF07F707A5
:10420000E9071D08EF070C082708E8070A08070850
:10421000DA071508FF07FE070708FD07FA07FA0780
:104220000008FE07110802080308F507FE07030847
:10423000F807FA0701080308FF070108FE07FC0753
:10424000FE07FD07FB070008FD07FC070308FE0744
:10425000FA07FE07FC07F9070F0805080F08DF0734
:10426000440F0D04E201FF0F0500C405E30F7600C3
:10427000140F8E0B4A01F00A95035907F20922091F
:104280007105B306A906030607075D044B0AE1089A
:104290007006BA0A80069B07520AB9073B078D09C8
:1042A0006C069D070409AC058C0860077A06260990
:1042B00040076207210A9F068008B9080107F8082D
:1042C000B407210897086D072A086408660745089F
:1042D0004B0876074C08AD07FF07410887072B08F6
:1042E0002C08C5071B080C08E6073808E107EC078F
:1042F0004208E507E9072408E107FC070808E60784
:1043000009081808E6071708EA07F4072208F20761
:104310009408EE07F307EE070D080B08230827089B
:10432000D80715080B08F9070608F5071008F30762
:10433000F607FD070208F3070A0807081008160821
:10434000F007FC07FE07FD071008E6070A080C083F
:10435000FF071608FD07FC07FE07070803080F08FC
:10436000090811080A08EC07E907E607F7070B0830
:104370001E080D080008F507E807F407F207F8071C
:10438000020803081B08160814080108F907F507B6
:10439000F70718081D0751072907480A940634082B
:1043A000DD09A5063108110889083006300B3506ED
:1043B0003D09A6077F07B307C207CE071308AC085D
:1043C0009407260839086107890894070B087F08B5
:1043D000E307FC087307FF07D9070E08FE07E50788
:1043E0007407B207EF07B307E7070B08F40767087E
:1043F000E6070508F8071208F7070608F107FF07A0
:104400000808E50715080808F7070308FC0704086B
:10441000FF070008FE07010809080008FF07F50765
:10442000FA070408030804080408FA07B7071B087A
:104430002C08A5096404D70D22032204FC0F9E0456
:104440008405D408C502E202CA08F205C60AFD0FB7
:10445000D00D4D0A4D0B2D020000A401B903D70663
:10446000A00B840F3B0FA00CDD07B603C204680746
:1044700052070D05CD07C307CF08B20ADA090C0AA7
:104480006709D3061105DD0452045706DF08C00A88
:10449000180DA40B310952068E04D704BD060B0972
:1044A000AD091E09E207A807D5071A085A084908E6
:1044B000930700072107C707B408860941092108A7
:1044C0008E07DF067D0656075D0855071C0AFA09A8
:1044D0004F095309900720096300FF0F00001B0ECE
:1044E000EE0D07026C0B4F010806BF05A107460B36
:1044F0008D0FFC0FDA09A208C8030200D300FE07E3
:10450000420A230A600D760CB10D6E08FE013604D6
:104510002207370925087607BF083F087609AE0845
:1045200088088008700623045406C5078309F20A28
:104530008009C609AE092F07E8051705290669078E
:1045400092086E0AEB0983089F07270789072D0841
:10455000520866075F0755079B07FA07B008D60998
:104560008809B208AA06D10526065C074E088D09FF
:104570008E093F09A90849077506B306BE07A108B9
:10458000BB087508C30771076907FA07DB08DF086E
:104590008608C4072E0703075407EA078F08DC08BC
:1045A000C5085108E10786073D077207FA07640846
:1045B0007D083D08DE079607B40710084D0854082B
:1045C0002F08EB07AF07A507CE0716084F083208DC
:1045D0001B081308F207DA07C407DA07F007050813
:1045E0002E08490841081408D607BA07BE07E10794
:1045F00001081E0828081A080408F607EE07040830
:10460000190811081B0880072C071D07B4050407AB
:104610002409F2080F082D0751084407500719070D
:104620009508C307310858081D08C507FD07E007AE
:10463000B6077D087408EC072C080208F907430840
:10464000E30796081F0826089707930736082008EF
:10465000F3071608E6072508D507B607C3070F08AE
:1046600002080808F2070208E807EA070408090830
:10467000F9071608FD071108F007E807FC070F08FF
:104680001B080D080808F007E707E307EF07010814
:10469000150813080B08FD07F807F207FC070908BF
:1046A000EB070308ED074808EB071608F507340881
:1046B000DE07F00717080C08F9070E080B08EA07D1
:1046C00021082B0816082108F1070208E707F80758
:1046D0000E080D08D2072E08F607490825084B08D2
:1046E000F107CA07AF07D807B907F307C307E607FB
:1046F000F007FC070F08E9071F0803080108F70780
:104700000108EF070408FC0704080608FC07010875
:10471000FF0700080008FF07FD07FE070008000864
:10472000FF07FF07FF07FE0702080508000801084A
:10473000FA070608F5070008F3070F084401FF0F02
:104740000000FB0FD8040000E60FAB08B303760DA2
:10475000EA07CB055D0C2E077304720A72068E09F8
:104760000409C706F70BE604B50778095C088D064F
:10477000290942096806090C28051107A408D20670
:10478000A409C1067A070B0A61050C08BD082607B3
:10479000CC0896079B07A8092207BC089F080807B2
:1047A000EA08D207B807AF08BA07AD0775086B0764
:1047B0000C081308B6072508F007DF0729080708C3
:1047C000B5074108F907F4072808DC0750082E0848
:1047D000DA070808EA07C107F307E0070F08190816
:1047E0001008110839080A080508E607C80709086B
:1047F000E007F907F507D507000811081D080108AB
:104800001A080B0816080408DF070B08F407F2075C
:104810001308F8071108E807F1071F080008040843
:104820001008EF07080805080208F607F907F90756
:10483000FC07EF07E9070D08F1071008FF07FF075E
:10484000F907FD07F707FE07FF07FC07F60707084C
:104850000908FD07F9070008FC070908FF07070812
:10486000FD07FF07FF07FD070A08FE070A080F08F4
:1048700026077209AB09D0017802FF0F1900FD0F5E
:10488000F80B5502B808EA00EB06B5058A083F0D9B
:10489000EE0E6B0F0C09610804000000F203C50A5C
:1048A0005F09390D130D870E210FC30470018604B3
:1048B0007A07BC0B2509E708E808B5095E087F08F8
:1048C00008089108D1046E0406084209CD0B8E0A2F
:1048D000AC0814094F071807D70464054207F90705
:1048E000B509F70AF909ED083607CC06E6079C0872
:1048F00002071B060F07E9075E09C709FC0918092B
:10490000CA0763064105F205970713093D09BE086A
:104910005408B607BB07D40762082E082B09ED0719
:1049200012075D065A067307DA08860977099708A1
:1049300095079F06EB06F1077608BA08AF0804084A
:10494000470754077B07EE071208A4088708A40846
:10495000040866076007C507450892085408F90768
:1049600087078807BF070108340867083308FE0770
:10497000B307CA07230804081F0816085C080108C3
:1049800023081E088B07EA07D5070C081708350807
:10499000560841080108C907BE07CD07FF07E4070D
:1049A00002081B08D707F2075A08CE077D08410600
:1049B00017078405EF0582090606A208D108F10849
:1049C0007C087C070007D90875060C0856093A07C9
:1049D00095083D089F076E08F7071509D8071608C0
:1049E0007D0769083108D907E407C8073A08C207F4
:1049F0002308D3079B070D08F3073C08D6072408B4
:104A00001B08C2070D08C6071F08E6072808FA0793
:104A1000DD07EE07FF071F080608FB07F807E60794
:104A2000F707E2070608150821081108FA07FA0730
:104A3000F307F60702080E080A080108EA07FF074D
:104A4000D507EE07E10761081B08D7070408BC0774
:104A50000C08F1071D08F007E3071208DE07140829
:104A6000F8070008EF0703081008F107FD0715080D
:104A700016080E08F507F907FC070708FF07FA07ED
:104A80000408EB07ED07FA07FE071208FD07080800
:104A9000FD07F807F707FD07F507F9070008030802
:104AA000020806080508FF07FF07030800080008BA
:104AB000F907FA07FB07FE070008040800080408C6
:104AC000FF0700080008FF070208FE07F907FB07B9
:104AD000F707FD07FF07070808080608FF07F9079B
:104AE000FE07FE071A085208B6051B0B0500FB0F50
:104AF00000009C0AF00F2A01F80B21017804AA0596
:104B0000A006B80A920EFB0F260A4C08880507007B
:104B1000000079072A0A1A0AF40CC50CB20DAE0976
:104B200033029E03C9061E0968084F07B8082F08FC
:104B30006109C30863089108B90627040606A80797
:104B40003A09F60AB9099309E509740714061E051E
:104B5000F005560740083F0A1B0AA408B8072807B3
:104B60007D0707085A0881074E0751078707EB079B
:104B7000980879097C09F3082407E605DB05FB069C
:104B800058085D0979094309FC086F078B06A606DA
:104B90009F078208B9087E08E00778075A07C90707
:104BA000BC08FB088808E307410707074007D5074B
:104BB0007C08D708CE086C08F707930741076907F8
:104BC000EC075C0883084408EF079C07AF0705085B
:104BD000490855083008F707B707A707CC070908A1
:104BE0004C0838081C081108FA07D807BE07D40774
:104BF000EA0700082708460843082008DD07B90728
:104C0000B907DE0700081C0826081D080308F80776
:104C1000F007FD0714080E08F307E50C9802B3012E
:104C2000FD0F00002306FF0F2E00E30EFD0CAC026B
:104C3000620B83034D068709910828040806330890
:104C400052075207EF04D8098D0836061C0B86065A
:104C50003808400ADB072C0772098106E0071509AE
:104C6000A8058D08470762062B09670772072A0AFD
:104C7000AA068708C6080B070509C2071808A10875
:104C8000700726086708660740084F087407480839
:104C9000AA07F9074408880728082E08C2071A0837
:104CA0000C08E6073708DF07EB074108E507E807C8
:104CB0002308E407FB070908E60709081808E207C4
:104CC0001308FA0706080F08EE077C07F807E50740
:104CD00002083108E00732082408D5071A08090835
:104CE000F6070208EC070F08F507EF07FD070408B1
:104CF000EF070B0803080E081908F207F907FE076B
:104D0000FC070F08EB0707081008FF07190804083D
:104D1000FB07FC07060803080F08080811080B0822
:104D2000EC07EA07E807F7070B081C080E08FF075F
:104D3000F407E807F307F107F707020802081D0860
:104D4000150815080308F807F407EF07E2074B08F2
:104D5000B4071B0790071B0583074B09A107A80889
:104D60006D0886081A063409FB05A8099607140879
:104D7000390745073D083E0890085207F7087608AE
:104D80008D07430864070B0856089A07ED08950736
:104D9000ED07C1072E082008FD076D07D607DC07C1
:104DA000BF0704080408F9073B0800080B08EF07D1
:104DB00013080408FD07F707FF071208E8071108A2
:104DC0000708FA070308FD0705080108FE07FE07A4
:104DD000FF0704080208FF07FB07FB070708040892
:104DE00003080208FB07AD073508EF07970A2904F7
:104DF000AA0D4903D403FE0FDA043E053809F9026F
:104E0000DF02BB08DB059F0AFE0FDE0D440A4A0BDA
:104E10005A0201008C01AD03CE06930B7E0F3D0FAD
:104E2000B10CEA07B503B8045E0750071105CD07BA
:104E3000C507CD08BB0AEA09130A6909E7060D058B
:104E4000E20448044606DD08B20A180DAB0B3B0924
:104E500052068F04D804B7060509A9092109E507F8
:104E6000A807D40719085A084C08960702071F0715
:104E7000C407B0088209470926089207E3067B06A3
:104E8000520777083F090E09FE070008FF07FF07D2
:104E9000FF07FF07FF07FF07FF07FF07FF07FF07E2
:104EA000FF07FF07FF07FF07FF07FF07FF07FF07D2
:104EB00000080908F6070908DB07F70776079E08C8
:104EC000C8086F05F1089A085807080ADF04210886
:104ED0008609D1071909C8050208A009EA075F0871
:104EE000E805C40838097C070208720600091B0996
:104EF0005007D2073F07CC0832095A0617083D0869
:104F000008083E092C06E1071909DD076D089E0611
:104F100004087A09AB07D907B706BF086309350744
:104F2000C6072A07D1084009D1067007DB07AA087F
:104F300003096606BF074A086808C308480624082C
:104F4000B40848085A08A30641080809D507F50718
:104F5000DD06AB0805096C07AB075107D308CE087F
:104F600033079D07DC07BF08A008AE06E00732083C
:104F70007E0863087B0649088E0850081B08B106A6
:104F80008308E808E107D107E606D408EA087E07A7
:104F9000A8073707F3089D083E07B307C307D808DB
:104FA0006408D506F10727089B082508A4066008B1
:104FB00073086108D707DA069B08B5080108BB0724
:104FC000F506F008AF087A07B1075207070973081A
:104FD0002D07D607CA07E0083408E006170831088D
:104FE000B808EE07BC06750869086108CB07E70634
:104FF000C1089008F207B8071207F9087E0873077E
:10500000C40768070109470836071D08CA07A3082F
:105010004C0882069A08F7078D07290840068C0875
:10502000B807DB07AF064207EE075608C10671074F
:10503000740626098E072B0710078C07860841087F
:10504000720621088C0737094A075507AA07D808AE
:105050004E0805086E061A094E08C308730736077E
:10506000FE080D09F0070F080F07AC098E0810089D
:10507000B50713080F09EF084107A408F1077D09D8
:105080001F0899075508C808900854081307B30863
:105090001909680857071908690BCB0997067406A0
:1050A000B2094A0A2A0555083C0D5F045906B7069D
:1050B000E208E4085003B1053009760C6F07B60228
:1050C0009E09730A1D079804EA098A0B10061E023E
:1050D000EC09FB0A05070E04E006780A3E0BFB0408
:1050E0004805E2088E0AEE05B306320A3A0BC606F8
:1050F00097053508450BC1053B07AA089C07B10871
:10510000B4078E075D0944063F08ED088309B2071E
:105110006B07A807660A3E088F050C08360B0507C3
:10512000F906E8071B09FA082E06CC07B108F807AC
:105130003A088D07C807B508B3081507E6077508CC
:105140003008A8078D0743084208F8078607540867
:105150002008CB07E407E50731080408AA0724085C
:105160000208DE07FD073C08E807EE07F3071F0803
:105170001F08D707B1076B081B08CD07D6071F0804
:1051800046080008900728085008F907BD070108DD
:1051900029081F08D807FD0736080B08DE070D0889
:1051A0001508FD07F5070D080D080408D5071D08AB
:1051B0003208E807DA07010833080E08BF07F007CE
:1051C00025081708E907E30719081408E707E507A2
:1051D0000E081008E907ED07010809080208FC0796
:1051E000F807F607F3070B082908E407EE07EB07B3
:1051F00019081308FD07DA071C0807080808DE0766
:105200000508FF071808EB07FD0702080E0801084C
:105210002708D3070D080A082608EE07EC07100830
:105220003908EE07F207010826080208EB07E6072F
:1052300024081908EA07DA0715081708FB07DC072E
:10524000FF072008FD07E907FE070208F607FB072E
:10525000EA070B08F207F507FB07F907E907F30769
:10526000E5071B08C7071B08F307ED089C06710933
:105270003B071A085608A7076B08A207CA0760076A
:105280003C083307D708FE062E085C07480892073B
:105290005E0804076E088D076F088B07DB079F0702
:1052A000BB08130789084607EB0876072E0879071D
:1052B000AE08C30775089B0788080408AA08D40726
:1052C000C008BA079C0806080F09C10794089F0781
:1052D000F908F40754088C07BF08C2076B08970742
:1052E0003108C80744084C0797088B0758087B0704
:1052F0003C089707580886073F08D707FD07EA07C5
:105300001908E2070708DE070C080D08F107F40783
:105310000708F707EB070908F0071508EB07060869
:10532000F5071908E4071708EB071708E8070F083F
:10533000F2071408E7070E08F5071708E80716082C
:10534000E8071508E9071408ED071908E9070D082B
:10535000F6071008F3070C08F5071308F60703080B
:10536000F9071108F4071008F3070B080308FF07F3
:10537000FB070808F9070608FA070608FC070008F3
:10538000F5070A08F7070408F5070508FB070408EE
:10539000EC070507DA063F0810076A0B54070D08EB
:1053A0008907CF067707B007AB09BA06BF0A91068F
:1053B000BF07F007A90571091107170A21078C0912
:1053C0006E0764075C08DD05F309E106710AD6077C
:1053D000D6070D0891069308DE06D009EF06400AAD
:1053E000CD07360709084906FF087007B3092107EA
:1053F0008109630732074908090673096E07060A1F
:1054000043075E086907ED06B4086506B60902079A
:10541000EB09A7076E07C607A806D8081B07DC0913
:10542000F606260991072F073A08830629098F07F0
:10543000D5092B077F08730728079A08A7068B0949
:105440005D07B60954070C087C071C07C80801074C
:10545000C80934071609A80762072008CC063E09C8
:105460003707F109D206CA08900737078B08D1061B
:1054700056099C07760928071008CB07FD0607097F
:10548000D206AD09490724096207A507D0070E0710
:105490000D094107A3090F079508C60720074C0807
:1054A000E60643095E07AB09EB063C08C20708079E
:1054B000C308FA065D095E0744094007C707D3071A
:1054C0000007300912077F094107B308AE075C07E0
:1054D00011080707550935079F092C074D08C8070C
:1054E0003107A308F20665096507B908AC079507F7
:1054F0003E073F077F096407560914073108F7077D
:105500006007A7088A06FB0860076009C607F80756
:105510009807E1061C09BC066409E2064A09C707A8
:105520009607300862064F09EA0653094107DE086C
:105530009F07880748086F069E09A006AB095B070E
:105540005708D3072107A508BE067A09A006A609B1
:1055500057074208FC07DA06CA08F406AB09B90681
:105560005E0933071508F707B2062E08AD073C0998
:105570009106340936075405EC07040955080D0750
:10558000F809C906F207EA05760ACC079C05300D32
:105590007E08410942075A064D06D60652083908C8
:1055A000E30B4E0621076D09850707061B07FC085C
:1055B0005508560B2F06C507880838074306F40719
:1055C00051090D08200A0407FB086D07AB064906C0
:1055D0008608B9091E080309F4064B093B07830630
:1055E0001E078D086C09440824091307A908AB0697
:1055F0002C0726087B08C4085C08C60822074E084A
:10560000FE06D806B508B807B60858082E0885075C
:10561000C40762086B074608CE078B08D607CB077E
:10562000F2074C0839089007EC070C08710890073E
:105630002A08120809081B0895073D081F080208D8
:10564000A00755080708BF071708F5073C08DA0741
:10565000F007F0075708C707E7072608D4072F0801
:10566000E8071108F5070B08BF0711083208C30740
:105670002B08E9073208EE07DA07EC071D081D08BA
:10568000CD072108EB071808F507D00724080708FD
:10569000F607F7072608F507F307FA07E2072B08CE
:1056A000FB07EE070D081208ED07EE070708DF07F6
:1056B0002208F907F7071E08ED07E80706080208A1
:1056C000F107F607F8071508F807FB070408F907BC
:1056D00004080708020800080908E807FF071F0870
:1056E0000408F0071D080B08D007F207FB070F0896
:1056F0001F08E40701080E080208ED07FD07F3077D
:10570000FF07FB07FB071F08FE07EA07000803085F
:10571000FB07FB07F3070D081808FE07EE0707084D
:10572000EB07FD070108FA07080805080508F80750
:105730000F08E507F6070B08F6070C08160804081B
:10574000FD07ED07EC07160814081008B6078508D2
:1057500013077908FE079D07ED074B082B087D0806
:10576000AA071707E508F907B308A7072908950747
:10577000D208C5077C072708C107AB0820083C08EA
:10578000930758088407FA073008BB077E08CA0742
:105790005808EF073E085A07C2075108FC0774086B
:1057A0009B073908FF07660855079F07110803087C
:1057B0009308CF071608BB074B088407E907E307E0
:1057C000C3076F08F9075B08CD07FF076B071008D1
:1057D0001408D5074B08D0075D08FE0720086E07A0
:1057E000DF07EF07F2075208DC0746080008360813
:1057F000A007E107CA07EA075208FC074F08E807B5
:105800003608B807FD07E407E2071A0804082C0861
:10581000FE070D08E707F607FE07F3070C08F80771
:1058200006080A080308FA07FA070208F907010838
:10583000FE0700080908FD070108F3070408FE0732
:105840000408F907FC07040802080608F807FF0720
:10585000FC070508F90700080008FD070308F90719
:105860000508FD070008F9070308FE07FF07FD0705
:105870000508FB07F507F207260804080F085C086F
:105880009E091807640985070309F30715097C07B2
:105890008F0917083509240868088108C6084108D7
:1058A0006508E5076B0812086908C2072108D507D3
:1058B0007808BD072E08F507F4078208C6073708E1
:1058C000E307460819083908AC074108E8073C080F
:1058D000D907EF079C0746088107470836074108A4
:1058E000410759081A073608210755082E074008AE
:1058F0001D07380851075508340761082B0792081F
:105900003807870831079F084F07B60845079B08E7
:105910007E07A6088F079B089107A508BC07A20869
:10592000AB07AF08B907B808BC078F08D6079008BF
:10593000DB078808D7077908F5076008D4074E0801
:10594000BA075708CD074208C3074108C3073C08F8
:10595000C6070208C4070D08EA070208EF07EA07AE
:10596000FA07F707FA07D7070008E2071F08D70763
:105970001D08C5073608B607320899074708A1076A
:1059800051088F074308900746087B073C087E07AD
:105990003C08800746087407480873073E087007EC
:1059A000450876074C0883074C083E078208940791
:1059B00005087207A1085207060945071308680879
:1059C000FB0798078108350716082E087E08AA07E6
:1059D0003B0833073609100801084E07BB088A0840
:1059E000D7089807F107FF07010994074508C3077F
:1059F0001C0819082D0801087508950722081608C3
:105A00004108CB071108B50777081408A707420813
:105A10002D08D507BC07780751081A089C078F077F
:105A2000EF078008FC07E70773074C080A08070818
:105A3000C70706089E072F08920750088E07CB0756
:105A400062076408F6070C08A3071C0884077B0894
:105A5000920754099C08310ACC059B09440B980D08
:105A60009B0AEA08A90BB80DC10704077508C20A0A
:105A70004E062E062A07BD067C05BC04A50649066F
:105A800028064106F1078D0734087D081A092B07FF
:105A9000B2073708520948079705F3076809F10864
:105AA0001C07E4084609180AD4072D099608A2091C
:105AB000D8060408DD063308AC0676071B06CC07BB
:105AC000DE078109AE0831087F090C0B680AB608A9
