:020000040800F2
:1000000000000220A9250008C10C0008C30C00084C
:10001000C50C0008C70C0008C90C0008000000004F
:10002000000000000000000000000000CB0C0008F1
:10003000CD0C000800000000CF0C0008D10C000817
:10004000F9250008F9250008F9250008F925000818
:10005000F9250008F925000849060008F9250008D7
:10006000F9250008F9250008F9250008F9250008F8
:10007000F9250008F9250008F9250008F9250008E8
:10008000D90C0008F9250008F9250008F925000811
:10009000F9250008F9250008F9250008F9250008C8
:1000A000F9250008F9250008F9250008F9250008B8
:1000B000F9250008F9250008F9250008F9250008A8
:1000C000F9250008F9250008F9250008F925000898
:1000D000F9250008F9250008F9250008F925000888
:1000E000F9250008F9250008F9250008F925000878
:1000F000F9250008F9250008F9250008F925000868
:10010000F9250008F9250008F9250008F925000857
:10011000F9250008F9250008F9250008F925000847
:10012000F9250008F9250008F9250008F925000837
:10013000F92500080000000000000000F925000873
:10014000F9250008F9250008F9250008F925000817
:10015000F9250008F9250008F9250008F925000807
:10016000F9250008F9250008F9250008F9250008F7
:10017000F9250008F9250008F9250008000000000D
:1001800000000000F9250008000000000000000049
:10019000F92500080000000000000000F925000813
:1001A000000000000000000000000000F925000829
:1001B000F9250008F9250008F9250008F9250008A7
:0401C000F925000815
:1001C40010B5054C237833B9044B13B10448AFF38D
:1001D40000800123237010BDE8D40120000000003A
:1001E4005426000808B5034B1BB103490348AFF379
:1001F400008008BD00000000ECD401205426000853
:1002040053B94AB9002908BF00281CBF4FF0FF3179
:100214004FF0FF3000F088B9ADF1080C6DE904CE61
:1002240000F006F8DDF804E0DDE9022304B07047CD
:100234002DE9F047089D8E4604468846002B4AD196
:100244008A42174662D9B2FA82F64EB1C6F1200349
:1002540001FA06F820FA03F3B74043EA0808B44069
:100264004FEA174E1FFA87FCB8FBFEF1230C0EFB76
:10027400118843EA084301FB0CF29A4209D9FB189E
:1002840001F1FF3080F0EA809A4240F2E7800239BF
:100294003B449A1AA3B2B2FBFEF00EFB102243EACF
:1002A400024300FB0CFC9C4509D9FB1800F1FF320A
:1002B40080F0D6809C4540F2D3803B44023840EA2B
:1002C4000140A3EB0C0300211DB1F3400022C5E95A
:1002D4000032BDE8F0878B4205D90DB1C5E90001B4
:1002E40000210846F5E7B3FA83F1002946D17345A6
:1002F40002D3824200F20581841A6EEB03020120CC
:100304009046002DE5D0C5E90048E2E7002A00F058
:100314009080B2FA82F6002E40F0A4808A1A030C70
:100324004FEA174E80B2BCB20121B2FBFEFC0EFBB9
:100334001C2243EA024304FB0CF29A4207D9FB183D
:100344000CF1FF3802D29A4200F2E080C4469B1AB4
:10035400B3FBFEF20EFB123340EA034302FB04F448
:100364009C4207D9FB1802F1FF3002D29C4200F2F2
:10037400CA8002461B1B42EA0C40A5E7C1F12006D5
:100384008B4022FA06F71F430EFA01F420FA06F313
:100394002EFA06FE4FEA1749234300FA01F81FFA22
:1003A40087FCBEFBF9F01C0C09FB10EE44EA0E447A
:1003B40000FB0CFEA64502FA01F209D93C1900F132
:1003C400FF3A80F09C80A64540F2998002383C4474
:1003D400A4EB0E041FFA83FEB4FBF9F309FB1344E8
:1003E4004EEA044403FB0CFCA44508D93C1903F170
:1003F400FF3E80F08280A4457FD9023B3C4443EA1F
:100404000040A4EB0C04A0FB02EC64457346E146F7
:1004140062D35FD05DB1B8EB030264EB090404FA64
:1004240006F622FA01F31E43CC40C5E9006400211C
:100434004FE7B1FBF2FC010C41EA0E4180B240EA05
:1004440001423B4638463C46B846BE462026B1FBF0
:10045400F7F1A2EB080241EA0C4166E7014618E70E
:1004640010462CE7C6F120022EFA02F3B740B14041
:1004740020FA02F24FEA174E0A43B3FBFEF8BCB26D
:100484000EFB1833110C41EA034108FB04F9B04098
:1004940089454FEA104380B23ED9791808F1FF3CF0
:1004A40001D289451FD8A1EB0901B1FBFEF909FB73
:1004B40004F80EFB191192B242EA0142424529D2D4
:1004C400BA1809F1FF31C4D24245C2D2A9F10201DE
:1004D4003A44BEE7F0459DD2BEEB02036CEB070C39
:1004E4000138E14696E7A7EB09094944A8F1020C53
:1004F400B1FBFEF909FB04F8DBE773467FE75046DE
:1005040066E70846FDE63B44023A33E7ACF1020CE9
:100514003B441CE749469CE7A1EB0901C446B1FBF7
:10052400FEF909FB04F8C4E7704700BF2DE9F04F5A
:1005340089B00024039404940594069407940094C9
:100544002F4B1A6B42F080021A631A6B02F080027E
:100554000092009A01941A6B42F001021A631A6B1A
:1005640002F001020192019A02941A6B42F0020213
:100574001A631B6B03F002030293029B4FF4404B7C
:10058400CDF80CB001260496DFF87CA003A95046F0
:1005940001F012FC4FF44079CDF80C90DFF86C8038
:1005A40003A9404601F008FC4FF410470397154D8A
:1005B40003A9284601F000FC22465946504601F0A2
:1005C400EBFC22464946404601F0E6FC2246394609
:1005D400284601F0E1FC03964FF488130493059632
:1005E40003A9284601F0E8FB22460221062001F077
:1005F40055FF062001F062FF09B0BDE8F08F00BF8F
:10060400003802400000024000080240000402409A
:1006140000B583B000210191094B1A6B42F400121A
:100624001A631B6B03F400130193019B0A46102009
:1006340001F034FF102001F041FF03B05DF804FB2A
:100644000038024010B501F09DFF264B1B68C31A09
:10065400C72B00D810BD234B1860234B1A68D368EE
:1006640023F40073D360214801F0C3FD20490A68D4
:100674000132204BA3FB02039B0803EB4303A2EBD1
:1006840043030B600B68052B0FD8DFE803F00D0361
:100694000507090B184C08E0184C06E0184C04E058
:1006A400184C02E0184C00E0184C42F21073184A3F
:1006B400126821460D4801F067FD0B4B1A68D36898
:1006C40043F40073D360012000F038FA084B1A6831
:1006D400104B53F8220000F025FA012001F064FCCD
:1006E400B8E700BF08D50120B4D501200CD50120FE
:1006F40004D50120ABAAAAAA8438012064EA002008
:10070400449C0020244E002004000020A4860120E4
:1007140000000020C4D4012072B6FEE700B58FB0FB
:1007240000230A930B930C930D930893099301935D
:1007340002930393049305930693079335484FF06C
:10074400804202604360836043F67F62C26003615B
:10075400836100F08DFC002850D14FF480530A933C
:100764000AA92C4800F0EAFD002849D1294800F0E4
:10077400ABFC002846D100230893099308A9254817
:1007840000F06EFF00283FD10022019202920392F2
:10079400059201A91F4800F027FD002836D1002347
:1007A40000931D4A116B41F400111163126B02F4A2
:1007B40000120092009A1948194A02604FF0C06270
:1007C400426040228260C3604FF4806202614FF451
:1007D400805242614FF4804282614FF48072C26160
:1007E4004FF400320262436201F068FC80B9094AA6
:1007F4000A4B53629A630FB05DF804FBFFF78CFF5A
:10080400FFF78AFFFFF788FFFFF786FFFFF784FFF4
:10081400FFF782FFB4D50120003802400CD5012037
:100824008860024000B58FB000230A930B930C93A9
:100834000D930893099301930293039304930593EF
:10084400069307931E481F4A02604360836040F684
:10085400FF72C2600361836100F00AFC28BB4FF49D
:1008640080530A930AA9164800F068FDF8B91448A1
:1008740000F056FCE8B900230893099308A910482E
:1008840000F0EEFEB8B960230193002302930393B2
:100894000593082201A90A4800F0D5FC68B9084864
:1008A40000F088FA0FB05DF804FBFFF735FFFFF79F
:1008B40033FFFFF731FFFFF72FFFFFF72DFF00BFD7
:1008C4006CD501200004004000B595B0342200210D
:1008D40007A801F090FE0023029303930493059369
:1008E40006930093194A116C41F080511164126C03
:1008F40002F080520092009A019315490A6822F48A
:10090400404242F480420A600A6802F44042019282
:10091400019A0222079201220A9210220B920D934D
:1009240007A801F027F868B90F2302930021039167
:1009340004910591069102A800F0D8FE20B915B0E3
:100944005DF804FBFFF7E8FEFFF7E6FE003802401F
:100954000070004008B501F0EFFDFFF7B5FFFFF7A9
:10096400E5FDFFF755FEFFF7D9FEFFF75BFF00F04B
:100974006DF90F4C23684FF47A525A6308210D48DD
:1009840000F0ECFD0021204600F066FD42F21073F9
:10099400094A126809490A4801F0F6FB094800F0BF
:1009A400C1F82268D36843F40073D360FEE700BF44
:1009B400B4D501206CD5012000000020A4860120BC
:1009C4000CD501206C26000882B000EB4000002307
:1009D400019304E000BF00BF019B01330193019B1D
:1009E4008342F7D302B0704710B51420FFF7ECFF31
:1009F400094CA36943F40043A3611420FFF7E4FF07
:100A0400A36943F00043A3611420FFF7DDFFA3694A
:100A140043F40043A36110BD0008024010B504462E
:100A24003D4A936943F48043936110F0800F41D1B0
:100A34003A4A936943F00043936114F0400F40D065
:100A4400364A936943F48053936114F0200F3ED0E7
:100A5400334A936943F40073936114F0100F3CD04C
:100A64002F4A936943F480739361FFF7BDFF14F039
:100A7400080F38D0294A936943F40043936114F072
:100A8400040F36D0254A936943F48053936114F0DC
:100A9400020F34D0224A936943F40073936114F033
:100AA400010F32D01E4A936943F480739361FFF7B8
:100AB4009BFF10BDA2F50062936943F40043936168
:100AC400BBE7164A936943F080539361BDE7144A28
:100AD400936943F000739361BFE7114A936943F04C
:100AE40080739361C1E70D4A936943F000439361B6
:100AF400C5E70A4A936943F080539361C7E7084AFC
:100B0400936943F000739361C9E7054A936943F01D
:100B140080739361CBE700BF0008024000000240ED
:100B24000004024038B50546002403E0FFF776FFD1
:100B34000134E4B2285D0028F8D138BD10B504466C
:100B44003F4A936943F08043936110F0800F45D18D
:100B54003C4A936943F00043936114F0400F44D03E
:100B6400384A936943F48053936114F0200F42D0C0
:100B7400354A936943F40073936114F0100F40D025
:100B8400314A936943F480739361FFF72DFF14F0A6
:100B9400080F3CD02B4A936943F40043936114F04B
:100BA400040F3AD0274A936943F48053936114F0B5
:100BB400020F38D0244A936943F40073936114F00C
:100BC400010F36D0204A936943F480739361FFF791
:100BD4000BFF40F6B830FFF7F7FE10BDA2F5006238
:100BE400936943F400439361B7E7164A936943F06A
:100BF40080539361B9E7144A936943F00073936196
:100C0400BBE7114A936943F080739361BDE70D4AD2
:100C1400936943F000439361C1E70A4A936943F03F
:100C240080539361C3E7084A936943F00073936167
:100C3400C5E7054A936943F080739361C7E700BF32
:100C440000080240000002400004024008B5194BAD
:100C54001A6B42F001021A631A6B42F002021A6321
:100C64001A6B42F004021A63134A136843F0824376
:100C7400136002F58062136843F4A023136002F545
:100C84008062136843F0A043136047F23050FFF7CB
:100C94009BFE3320FFF752FF3220FFF74FFF0C205B
:100CA400FFF74CFF2820FFF749FF0120FFF746FF1D
:100CB40008BD00BF0038024000000240FEE7FEE726
:100CC400FEE7FEE7FEE770477047704708B501F09E
:100CD4004DFC08BD08B5024801F09EFA08BD00BFEE
:100CE4000CD5012082B0002100910B4B5A6C42F4C8
:100CF40080425A645A6C02F480420092009A019134
:100D04001A6C42F080521A641B6C03F080530193F6
:100D1400019B02B0704700BF0038024010B582B09A
:100D24000368B3F1804F04D01E4A93422CD002B022
:100D340010BD0446002300931B4A116C41F00101CD
:100D44001164126C02F001020092009A1748184ACA
:100D540002604FF0C06242608360C3604FF48062FF
:100D640002614FF4805242614FF480428261C36158
:100D74000362436201F0A2F918B90C4B63629C63ED
:100D8400D5E7FFF7C9FCF8E700230193064B1A6C7B
:100D940042F002021A641B6C03F002030193019BEC
:100DA400C5E700BF00040040003802400CD5012014
:100DB4008860024000B587B0002301930293039337
:100DC4000493059302680E4B9A4202D007B05DF873
:100DD40004FB002300930B4B1A6B42F002021A63CC
:100DE4001B6B03F002030093009B01230193022376
:100DF4000293059301A9044800F0DEFFE6E700BF73
:100E040000040040003802400004024030B4036A89
:100E1400026A22F0010202624268846924F0730CBF
:100E24000C6844EA0C0423F0020C8B6843EA0C03BC
:100E3400114DA84203D005F58065A84205D123F0E1
:100E44000803CD682B4323F004030B4DA84203D0C1
:100E540005F58065A84207D122F440724D6945EA40
:100E6400020C8A6942EA0C02426084614A68426365
:100E7400036230BC704700BF0000014030B4036A15
:100E8400026A22F4807202624268C46924F0730C1C
:100E94000C6844EA0C0523F400738C6843EA0423C9
:100EA400114CA04203D004F58064A04206D123F47F
:100EB4000063CC6843EA042323F480630A4CA04211
:100EC40003D004F58064A04207D122F440524C6957
:100ED40042EA04128C6942EA04124260C5614A681B
:100EE400C263036230BC70470000014030B4036A3F
:100EF400026A22F4805202624468C26922F4E64221
:100F04000D6842EA052223F400538D6843EA053351
:100F1400094DA84203D005F58065A84204D124F404
:100F240080444D6944EA85144460C2614A6802649D
:100F3400036230BC704700BF0000014010B4036A74
:100F4400046A24F001040462846924F0F00C4CEA7D
:100F5400021223F00A030B43826103625DF8044B1F
:100F6400704710B4036A046A24F0100404628469AC
:100F740024F4704C4CEA023223F0A00343EA011338
:100F8400826103625DF8044B7047836823F0700349
:100F94000B4343F0070383607047704770470000BA
:100FA4000368324A904212D0B0F1804F0FD0A2F5BC
:100FB4007C4290420BD002F58062904207D002F549
:100FC4008062904203D002F57842904203D123F02C
:100FD40070034A681343254A90422AD0B0F1804FE7
:100FE40027D0A2F57C42904223D002F58062904241
:100FF4001FD002F5806290421BD002F578429042E5
:1010040017D002F57052904213D002F580629042DC
:101014000FD002F5806290420BD0A2F59832904234
:1010240007D002F58062904203D002F580629042BC
:1010340003D123F44073CA68134323F080034A693D
:1010440013438A68C2620A688262084A904203D0E3
:1010540002F58062904201D10A690263026842F09B
:1010640004020260012242610360704700000140F3
:1010740040B310B5044690F83D30F3B1022384F830
:101084003D30214651F8040BFFF78AFF012384F811
:10109400463084F83E3084F83F3084F8403084F899
:1010A400413084F8423084F8433084F8443084F882
:1010B400453084F83D30002010BD80F83C30FFF707
:1010C4002DFEDBE70120704740B310B5044690F8CD
:1010D4003D30F3B1022384F83D30214651F8040B2E
:1010E400FFF75EFF012384F8463084F83E3084F82D
:1010F4003F3084F8403084F8413084F8423084F83A
:10110400433084F8443084F8453084F83D3000207E
:1011140010BD80F83C30FFF740FFDBE7012070474B
:1011240040B310B5044690F83D30F3B1022384F87F
:101134003D30214651F8040BFFF732FF012384F8B8
:10114400463084F83E3084F83F3084F8403084F8E8
:10115400413084F8423084F8433084F8443084F8D1
:10116400453084F83D30002010BD80F83C30FFF756
:1011740015FFDBE70120704730B4036A026A22F0EE
:10118400100202624468826922F4E6420D6842EA6F
:10119400052223F020038D6843EA0513114DA8426C
:1011A40003D005F58065A84206D123F08003CD68FD
:1011B40043EA051323F040030A4DA84203D005F582
:1011C4008065A84207D124F440644D6944EA85044B
:1011D4008D6944EA8504446082614A6882630362DB
:1011E40030BC70470000014090F83C30012B28D0FF
:1011F40010B50446012380F83C300C2A1CD8DFE8E3
:1012040002F0071B1B1B0C1B1B1B111B1B1B1600BB
:101214000068FFF7FBFD00200FE00068FFF7ACFF5C
:1012240000200AE00068FFF729FE002005E00068BE
:10123400FFF75CFE002000E00120002384F83C302E
:1012440010BD0220704738B590F83C30012B66D0B1
:1012540004460D46012380F83C300C2A5AD8DFE8B6
:1012640002F0075959591B595959305959594400D1
:101274000068FFF7CBFD2268936943F0080393618C
:101284002268936923F004039361226893692969AE
:101294000B43936100203EE00068FFF76DFF226876
:1012A400936943F4006393612268936923F4806330
:1012B400936122689369296943EA012393610020B9
:1012C40029E00068FFF7DAFD2268D36943F00803D8
:1012D400D3612268D36923F00403D3612268D369FC
:1012E40029690B43D361002015E00068FFF7FEFD78
:1012F4002268D36943F40063D3612268D36923F479
:101304008063D3612268D369296943EA0123D361E5
:10131400002000E00120002384F83C3038BD022086
:10132400FCE710B4846824F47F4C42EA03220A43A5
:1013340042EA0C0282605DF8044B704790F83C303E
:10134400012B78D010B50446012380F83C300223E9
:1013540080F83D300268936823F47F4323F07703D9
:1013640093600B68602B4CD023D8402B54D011D8F9
:10137400202B03D00AD80BB1102B05D119462068B5
:10138400FFF703FE002028E0012026E0302BF5D0F3
:10139400012022E0502B0AD1CA6849680068FFF78F
:1013A400CDFD50212068FFF7F0FD002015E001205D
:1013B40013E0B3F5805F3AD0B3F5005F14D0702B1F
:1013C40037D1CB684A6889680068FFF7AAFF2268AA
:1013D400936843F0770393600020012384F83D3041
:1013E400002384F83C3010BDCB684A6889680068E3
:1013F400FFF797FF2268936843F4804393600020CB
:10140400EBE7CA6849680068FFF7ABFD6021206814
:10141400FFF7BBFD0020E0E7CA6849680068FFF7F2
:101424008DFD40212068FFF7B0FD0020D5E70020A6
:10143400D3E70120D1E70220704701F01F014FF0EC
:10144400010C0CFA01FC036A23EA0C030362036A2D
:101454008A4013430362704710B5044608460029C6
:1014640042D194F83E30DBB2013B18BF0123002B7C
:101474006ED1002851D1022384F83E300122014666
:101484002068FFF7DAFF2368334A934203D002F55A
:101494008062934203D15A6C42F400425A64236836
:1014A4002D4A934249D0B3F1804F46D0A2F57C42F5
:1014B400934242D002F5806293423ED002F58062AC
:1014C40093423AD002F57842934236D002F57052F4
:1014D400934232D0A2F5943293422ED01A6842F04D
:1014E40001021A60002032E0042908D008290DD036
:1014F40094F84130DBB2013B18BF0123B7E794F8FD
:101504003F30DBB2013B18BF0123B0E794F8403011
:10151400DBB2013B18BF0123A9E7042805D0082842
:1015240007D0022384F84130A8E7022384F83F302F
:10153400A4E7022384F84030A0E79A6802F0070287
:10154400062A07D01A6842F001021A60002010BD72
:101554000120FCE70020FAE70000014010B5044632
:101564000846002942D194F83E30DBB2013B18BF53
:101574000123002B6ED1002851D1022384F83E3080
:10158400012201462068FFF758FF2368334A93423B
:1015940003D002F58062934203D15A6C42F40042B4
:1015A4005A6423682D4A934249D0B3F1804F46D000
:1015B400A2F57C42934242D002F5806293423ED02F
:1015C40002F5806293423AD002F57842934236D0D3
:1015D40002F57052934232D0A2F5943293422ED047
:1015E4001A6842F001021A60002032E0042908D08F
:1015F40008290DD094F84130DBB2013B18BF012318
:10160400B7E794F83F30DBB2013B18BF0123B0E7E2
:1016140094F84030DBB2013B18BF0123A9E704284A
:1016240005D0082807D0022384F84130A8E7022314
:1016340084F83F30A4E7022384F84030A0E79A6896
:1016440002F00702062A07D01A6842F001021A6063
:10165400002010BD0120FCE70020FAE70000014053
:1016640090F83C20012A3DD010B40346012280F8B2
:101674003C20022280F83D2002685068946820F0E3
:10168400700C086840EA0C0050601A6816488242E0
:101694001AD0B2F1804F17D0A0F57C40824213D00B
:1016A40000F5806082420FD000F5806082420BD04A
:1016B40000F57840824207D000F57050824203D092
:1016C400A0F59430824204D124F080044968214377
:1016D4009160012283F83D20002083F83C005DF8EE
:1016E400044B70470220704700000140002800F0BE
:1016F4009B8070B50D4604464F4B1B6803F00F03E7
:101704008B4208D2CBB24C4A1370136803F00F0318
:101714008B4240F08B80236813F0020F17D013F034
:10172400040F04D0454A936843F4E053936023685C
:1017340013F0080F04D0414A936843F46043936064
:101744003E4A936823F0F003A1680B439360236837
:1017540013F0010F32D06368012B21D09A1E012AA5
:1017640025D9364A126812F0020F61D033498A68CB
:1017740022F0030213438B6000F004FF06462F4B54
:101784009B6803F00C036268B3EB820F16D000F081
:10179400F9FE801B41F288339842F0D9032042E0DD
:1017A400264A126812F4003FE0D101203BE0234AAC
:1017B400126812F0007FD9D1012034E01E4B1B685F
:1017C40003F00F03AB4207D9EAB21B4B1A701B6834
:1017D40003F00F03AB422DD1236813F0040F06D09E
:1017E400164A936823F4E053E1680B43936023683B
:1017F40013F0080F07D0114A936823F4604321695A
:1018040043EAC103936000F021F80C4B9B68C3F3D7
:1018140003130B4AD35CD8400A4B18600A4B186870
:1018240000F064FE002070BD012070470120FAE73B
:101834000120F8E70120F6E7003C024000380240AE
:10184400AC260008E4D40120E0D4012008B5464BBE
:101854009B6803F00C03082B05D00C2B43D0042BFE
:101864007FD1424819E0404B5A6802F03F025B685E
:1018740013F4800F12D03C4B5968C1F388113B48D4
:101884000023A1FB0001FEF7BBFC374B5B68C3F3ED
:10189400014301335B00B0FBF3F008BD324B5868E1
:1018A400C0F388104FEA401CBCEB000C6EEB0E0E2C
:1018B4004FEA8E1343EA9C634FEA8C11B1EB0C019F
:1018C40063EB0E03DB0043EA5173C90011EB000C18
:1018D40043F10003990200234FEA8C2041EA9C5112
:1018E400FEF78EFCD1E7204B5A6802F03F025B689A
:1018F40013F4800F10D01C4B5968C1F388111B4896
:101904000023A1FB0001FEF77BFC174B5B68C3F3CC
:101914000273B0FBF3F0C0E7134B5868C0F38810B0
:101924004FEA401CBCEB000C6EEB0E0E4FEA8E131C
:1019340043EA9C634FEA8C11B1EB0C0163EB0E0399
:10194400DB0043EA5173C90011EB000C43F10003BF
:10195400990200234FEA8C2041EA9C51FEF750FC87
:10196400D3E7034899E700BF0038024040787D017F
:101974000024F400002800F0018270B582B004460F
:10198400036813F0010F41D0994B9B6803F00C03DB
:10199400042B32D0964B9B6803F00C03082B27D002
:1019A400934B9B6803F00C030C2B59D06368B3F57D
:1019B400803F5BD0B3F5A02F5ED08D4B1A6822F424
:1019C40080321A601A6822F480221A606368002B3D
:1019D4005CD000F0D7FD0546854B1B6813F4003F2F
:1019E40014D100F0CFFD401B6428F5D90320CCE1CD
:1019F4007F4B5B6813F4800FD2D07D4B1B6813F4CC
:101A0400003F03D06368002B00F0BA81236813F011
:101A1400020F60D0764B9B6813F00C0F4AD0744BC6
:101A24009B6803F00C03082B3FD0714B9B6803F0B9
:101A34000C030C2B69D0E368002B75D06D4B01228D
:101A44001A6000F09FFD0546694B1B6813F0020FF6
:101A540061D100F097FD401B0228F5D9032094E1E1
:101A6400634B5B6813F4800FA0D0C6E7604A136829
:101A740043F480331360A9E75D4B1A6842F4802273
:101A84001A601A6842F480321A609FE700F07AFD07
:101A94000546574B1B6813F4003FB7D000F072FDA6
:101AA400401B6428F5D903206FE1514B5B6813F4A4
:101AB400800FBAD14E4B1B6813F0020F03D0E368BA
:101AC400012B40F05F814A4A136823F0F80321692F
:101AD40043EAC1031360236813F0080F49D0636914
:101AE400002B33D0434B0122C3F8802E00F04AFD73
:101AF40005463F4B5B6F13F0020F3AD100F042FDF5
:101B0400401B0228F5D903203FE1394B5B6813F4ED
:101B1400800F90D1CEE7364A136823F0F803216989
:101B240043EAC1031360D6E7324B00221A6000F087
:101B340029FD05462E4B1B6813F0020FCBD000F095
:101B440021FD401B0228F5D903201EE1294B002268
:101B5400C3F8802E00F016FD0546254B5B6F13F08D
:101B6400020F06D000F00EFD401B0228F5D9032019
:101B74000BE1236813F0040F76D01D4B1B6C13F09C
:101B8400805F33D100230193194B1A6C42F08052C9
:101B94001A641B6C03F080530193019B0125164BBF
:101BA4001B6813F4807F29D0A368012B3AD0052B3E
:101BB4003ED00F4B1A6F22F001021A671A6F22F0FF
:101BC40004021A67A368002B3CD000F0DBFC064635
:101BD400074B1B6F13F0020F45D100F0D3FC801BA1
:101BE40041F288339842F3D90320CEE00025D6E7AA
:101BF4000038024000004742007000406B4A1368FE
:101C040043F48073136000F0BDFC0646674B1B6809
:101C140013F4807FC8D100F0B5FC801B0228F5D9ED
:101C24000320B2E0624A136F43F001031367C9E76C
:101C34005F4B1A6F42F004021A671A6F42F00102F6
:101C44001A67BFE700F09EFC0646594B1B6F13F062
:101C5400020F08D000F096FC801B41F288339842B2
:101C6400F3D9032091E0EDB9A369002B00F08C8037
:101C74004F4A926802F00C02082A54D0022B17D063
:101C84004C4B00221A6600F07DFC0446484B1B684E
:101C940013F0007F45D000F075FC001B0228F5D935
:101CA400032072E0424A136C23F080531364DBE791
:101CB400404B00221A6600F065FC05463C4B1B684D
:101CC40013F0007F06D000F05DFC401B0228F5D91C
:101CD40003205AE0E369226A1343626A43EA8213E7
:101CE400A26A5208013A43EA0243E26A43EA0263FF
:101CF400226B43EA02732E4A53602E4B01221A666A
:101D040000F040FC04462A4B1B6813F0007F06D108
:101D140000F038FC001B0228F5D9032035E0002030
:101D240033E0002031E0012B31D0214B5B6803F418
:101D34008001E26991422CD103F03F02216A8A4278
:101D440029D1616A47F6C0721A40B2EB811F24D1CF
:101D540003F44031A26A5208013AB1EB024F1ED19A
:101D640003F07062E16AB2EB016F1AD103F0E04351
:101D7400226BB3EB027F16D1002006E001207047EE
:101D8400012002E0012000E0002002B070BD01202B
:101D9400FBE70120F9E70120F7E70120F5E701203F
:101DA400F3E70120F1E70120EFE700BF00700040F6
:101DB400003802400000474200230F2B00F2E3806A
:101DC40070B582B065E085684FEA430E032404FAD7
:101DD4000EF425EA0405CC6804FA0EF42C4384605E
:101DE400446824EA02044A68C2F300129A40224377
:101DF40042605CE0DC08083450F8242003F0070556
:101E0400AD004FF00F0E0EFA05FE22EA0E0E0A691F
:101E1400AA4042EA0E0240F824205CE0062200E0D8
:101E2400002202FA0EF22A430234574D45F82420C8
:101E3400564A94686FEA0C0224EA0C054E6816F4BC
:101E4400801F01D04CEA0405504CA560E46802EA06
:101E540004054E6816F4001F01D04CEA04054B4CEF
:101E6400E560646802EA04054E6816F4003F01D098
:101E74004CEA0405454C6560246822404D6815F41D
:101E8400803F01D04CEA0402404C226001330F2B06
:101E940077D801229A400C6804EA020C32EA04045E
:101EA400F4D14C6804F00304013C012C8BD94A683A
:101EB40002F00302032A09D0C4685D000322AA4089
:101EC40024EA02048A68AA402243C2604A6802F0F3
:101ED4000302022A8ED004684FEA430E032202FA58
:101EE4000EF224EA02044A6802F0030202FA0EF235
:101EF400224302604A6812F4403FC7D00022019294
:101F0400234A546C44F480445464526C02F4804276
:101F14000192019A9C08A51C1B4A52F8255003F013
:101F2400030E4FEA8E0E0F2202FA0EF225EA020584
:101F3400184A90423FF474AF02F58062904216D082
:101F440002F58062904214D002F58062904212D071
:101F540002F58062904210D002F5806290420ED069
:101F640002F5806290423FF459AF072259E70122FB
:101F740057E7022255E7032253E7042251E70522DB
:101F84004FE702B070BD704700380140003C01408B
:101F940000380240000002400AB181617047090420
:101FA400816170477047000008B5054B5B690342C7
:101FB40000D108BD024B5861FFF7F4FFF9E700BFF9
:101FC400003C014030B405682C6824F480242C6063
:101FD400046863608368402B05D0036899600368D4
:101FE400DA6030BC704703689A600368D960F8E728
:101FF40010B40368D9B210390A4AA2FB014212098B
:10200400094CA25CC2655F2907D96FF30903043345
:102014008365806D5DF8044B70476FF30903836536
:10202400F7E700BFABAAAAAAA4260008836A8269BC
:1020340092B9012B0AD0022B02D00BB100207047B9
:10204400C36A13F0807F28D100207047C36AB3F1BC
:10205400C07F24D000207047B2F5005F09D0022B66
:1020640025D9032B25D1C36A13F0807F23D1002007
:102074007047032B03D8DFE803F01404140A00208C
:102084007047C36A13F0807F0DD100207047C36A84
:10209400B3F1C07F09D000207047012070470120B0
:1020A40070470120704701207047012070470120CC
:1020B40070470020704701207047000070B5044647
:1020C40000F060FA002C5BD00546022384F835301A
:1020D400002384F834302268136823F0010313606A
:1020E40023681A6812F0010F0AD000F04BFA431B60
:1020F400052BF5D920236365032084F8350070BDD2
:102104001A68204911406268A0680243E0680243EB
:102114002069024360690243A0690243E069024303
:10212400206A02430A43616A04291ED01A602668A1
:10213400756925F00705636A1D43042B07D1A36A5B
:102144001D43E36A1BB12046FFF770FF90B9756128
:102154002046FFF74DFFE26D3F239340836000204C
:102164006065012384F83530C9E7E16A206B0143D7
:102174000A43DBE740236365012084F83500BEE7AA
:102184000120BCE73F8010F038B50446856D90F817
:10219400340001282BD0012084F8340094F8350051
:1021A400C0B2012804D0002384F83430022038BDA2
:1021B400022084F83500002060652046FFF702FF06
:1021C400E26D3F239340AB602268136843F016032B
:1021D4001360236C23B12268136843F0080313606F
:1021E4002268136843F0010313600020DFE7022034
:1021F400DDE790F83530DBB2022B03D08023436552
:1022040001207047052380F835300268136823F0F5
:102214000103136000207047F0B583B00446002327
:102224000193724B1D68724BA3FB0535AD0A876D94
:102234003E68C26D08239340334210D003681A6885
:1022440012F0040F0BD01A6822F004021A60C26D57
:1022540008239340BB60436D43F001034365E26D83
:1022640001239340334209D02268526912F0800F4F
:1022740004D0BB60636D43F002036365E26D042325
:102284009340334209D02268126812F0020F04D03E
:10229400BB60636D43F004036365E26D10239340F8
:1022A400334224D02268126812F0080F1FD0BB609A
:1022B40023681A6812F4802F0DD01B6813F4002FC2
:1022C40004D1236C9BB12046984710E0A36C73B1F2
:1022D400204698470BE01A6812F4807F03D11A68ED
:1022E40022F008021A60236C0BB120469847E26D75
:1022F40020239340334255D02268126812F0100F05
:1023040050D0BB6094F83530DBB2052B0ED0236877
:102314001A6812F4802F33D01B6813F4002F2AD1CB
:10232400636C002B3ED0204698473BE0226813683C
:1023340023F0160313602268536923F0800353616A
:10234400236CA3B12268136823F008031360E26DC1
:102354003F239340BB60012384F83530002384F885
:102364003430236D002B3FD0204698473CE0A36CCB
:10237400002BE7D1EBE7E36BA3B12046984711E0CC
:102384001A6812F4807F09D11A6822F010021A60C8
:10239400012384F83530002384F83430E36B0BB127
:1023A40020469847636DFBB1636D13F0010F17D09E
:1023B400052384F835302268136823F00103136081
:1023C400019B01330193AB4204D823681B6813F0CB
:1023D400010FF5D1012384F83530002384F834301B
:1023E400E36C0BB12046984703B0F0BDE4D4012060
:1023F400B5814E1B002807DB00F01F0240090123B2
:102404009340024A42F82030704700BF00E100E0E8
:10241400002808DB0901C9B200F1604000F5614001
:1024240080F80013704700F00F000901C9B2014B96
:102434001954704714ED00E000B500F00700C0F136
:10244400070CBCF1040F28BF4FF0040C031D062B2E
:102454000FD9C31E4FF0FF3E0EFA0CF021EA000123
:1024640099400EFA03FE22EA0E0241EA02005DF8E8
:1024740004FB0023EEE70000074AD36823F4E0637B
:102484001B041B0C000200F4E060034343F0BF6331
:1024940043F40033D360704700ED00E010B5044608
:1024A400054BD868C0F30220FFF7C6FF014620465B
:1024B400FFF7AEFF10BD00BF00ED00E008B5FFF769
:1024C40099FF08BD0138B0F1807F0BD24FF0E023B3
:1024D4005861054AF02182F82310002098610722F0
:1024E4001A6170470120704700ED00E010B5044602
:1024F4000E4B1A784FF47A73B3FBF2F30C4A10685C
:10250400B0FBF3F0FFF7DEFF68B90F2C01D901200F
:102514000AE0002221464FF0FF30FFF7BFFF054BD2
:102524001C60002000E0012010BD00BFDCD40120AD
:10253400E4D40120E0D4012008B50B4B1A6842F41E
:1025440000721A601A6842F480621A601A6842F4CF
:1025540080721A600320FFF78FFF0F20FFF7C6FF7A
:10256400FEF7C0FB002008BD003C0240034A11688E
:10257400034B1B780B441360704700BFFCD501204C
:10258400DCD40120014B1868704700BFFCD5012042
:10259400034AD2F8883043F47003C2F88830704795
:1025A40000ED00E0DFF834D0FFF7F2FF0C480D49EE
:1025B4000D4A002302E0D458C4500433C4188C429A
:1025C400F9D30A4A0A4C002301E013600432A24200
:1025D400FBD300F019F8FEF7BDF9704700000220A4
:1025E40000000020E8D40120CC260008E8D4012013
:1025F40000D60120FEE702440346934200D170470F
:1026040003F8011BF9E7000070B50D4D0D4C641B78
:10261400A4100026A64209D10B4D0C4C00F018F86A
:10262400641BA4100026A64205D170BD55F8043BD6
:1026340098470136EEE755F8043B98470136F2E730
:10264400C4260008C4260008C4260008C8260008BA
:10265400F8B500BFF8BC08BC9E467047F8B500BF8B
:08266400F8BC08BC9E4670475B
:10266C0053696E6500000000536177746F6F746876
:10267C0000000000547269616E67756C6172000035
:10268C005069616E6F0000004775697461720000DB
:10269C004472756D0000000000061016000610163E
:1026AC0000000000000000000102030406070809F6
:0826BC0078DBFF7F0100000044
:0426C400E901000820
:0426C800C501000840
:1026CC003C040040FF07FF07FF07FF07FF07FF075A
:1026DC00FF07FF07FF07000800080208FD07FD07BA
:1026EC00F80700080008FE07FF0704080108FA07AE
:1026FC000C08E3062309C908AA087307EC0B4D055F
:10270C00C70BFA0FC4061200AD00920F4B0F6E07E9
:10271C0000000000F80EFC0F460D110449022808B9
:10272C003F0B570508014A029905F306EF05770799
:10273C004D07BE07DB0B380E850FF80FF00FB20CF0
:10274C00100ACF08BC08B9087E0300000400000082
:10275C0036018C0447082F0A050A7009310AA40BAC
:10276C00710DDA0C790CAE0CF00D340C0F08F4036F
:10277C0035028E0242043D060F07520851094B09DF
:10278C000108F20694075808800814083C08E3086E
:10279C0071091C09AA0867088208C70884088907F8
:1027AC004206A5042A040E0566064607C3077908E7
:1027BC009909960AEE0A430A73094609D309110AC4
:1027CC00A309470823075F06E005640513056C059C
:1027DC00340603077207D007A708B109720A800AEA
:1027EC00E30916097D0803089907410729076107C2
:1027FC008A07CF07300873085108DB0763074E07B9
:10280C0061076307500761079F07D107FD0744085D
:10281C00BF087009EA09C70977092D09C608B0076E
:10282C00AE064A06C305B40529069C0637070408FC
:10283C0081081C0979098F09900957094F09230947
:10284C00B108DC072E07BE0681069A06C1062507CD
:10285C00C1074908A708CC08B50895086F082208D5
:10286C00C00791077807600762078B07FA07810892
:10287C00DB08F908E908BA0880082C08BC076807C7
:10288C00310712070A0717074A079407F207480887
:10289C009008CA08D608E108C708930854080E081F
:1028AC00DD07AE0786075D07420749077807BD07B6
:1028BC00FA073A0868087E087A08600839080D0893
:1028CC00DA07AD079507A107B607E6071108360822
:1028DC004E085308530840082F080C08ED07C90789
:1028EC00AD079D07A307B807CF07F10717083808EE
:1028FC004D084308320821081C081908130806085B
:10290C00F107E507D807C507C307CD07D907E207C5
:10291C00F007FB07060816082F083B08490849086A
:10292C0042082D081308F107D607C007BA07B907E4
:10293C00BE07CD07E207F107010810081F0827089A
:10294C0028081F08190809080408FA07F607EB07F6
:10295C00EE07FB0705080E081C081008F507810791
:10296C0032084109A207D1086F09E607E7063A06C3
:10297C00BA0D830A04000200270CFF0FA10D000002
:10298C000000730AFF0FED0F09079201DF03AD0B77
:10299C00180815015C014C0522078505AD061F06BC
:1029AC00B5075E0A4E0D340FF10FFF0F5C0ECC0A0B
:1029BC0000099F085F098C0505000000000000005D
:1029CC00CA034707F309570A4809FE09230BDC0C15
:1029DC006A0DAE0CCF0CAE0D090DBD09DA04230245
:1029EC008102A5038705CF06F40710093B096F0880
:1029FC00000741072908BA0844082208CD086109D4
:102A0C005209C2086D086808B4089208E107B706B5
:102A1C0010052704B2040C062307AC0740083D0937
:102A2C00530AF40A8F0AB40930099909000ADF091C
:102A3C00BA086E07950610068A051D053B05F505B7
:102A4C00D2065807AA0744086309420A970A190ACA
:102A5C005409A1082308B7075B0729074907800712
:102A6C00B20709086208590803087E074C074C078F
:102A7C006207510750078A07BF07EC0732089C080A
:102A8C0031097109AC0972096809F5082C0820078D
:102A9C007A0604069205DB058D060907B8076B0854
:102AAC00C608600977097F0972093E092609E808FA
:102ABC0036086B07D9068B069506B30600079907EF
:102ACC0026088308C708BE089F087A082B08E30766
:102ADC009D07740763075A077707CC075208B90894
:102AEC00F408FA08C1088D084308E0078D0744076D
:102AFC00250708070E0742078A07D50723087B0816
:102B0C00B208D908EB08CF08A7086C082208F6070A
:102B1C00BD0794076A07420741076907AD07EB0732
:102B2C002F085A087B088208650843081B08EF0722
:102B3C00BB079D079E07B007DE0705082C084A084F
:102B4C0056085408440830081808F707D307B70785
:102B5C00A207A607AB07CC07E107090830084C0809
:102B6C004808380828081B08180810080A08FA072B
:102B7C00E907D907CE07BE07C907D407E007EB075B
:102B8C00FA07000817082608370847084B084408B6
:102B9C0033081F08FA07DC07C707B807B807BA07D6
:102BAC00CC07DE07ED0700080A081C0827082608D2
:102BBC0021081C080B0803080008F907EF07F007A9
:102BCC00F507FE070E081208200816083C08F8073F
:102BDC004A013C0EF60FB7040000D901FF0FF90FA4
:102BEC00BE0400000000EA04FB0FFD0FA3080B005D
:102BFC00AD039F0A6D0D180FF4078603DA05E5087F
:102C0C00520C03084B07E70886041E097E0ADE07F0
:102C1C006906180597094A070909C506A606E106BB
:102C2C00E20B6707E404C606AC073F085A09AF0974
:102C3C0061081306890629092709AB085009FA0708
:102C4C003C069108E90BB2082205A4071207DA0B1F
:102C5C00A6080406D106B308A809C408A5061207DD
:102C6C0084074D080B0A3F086905870608087E098A
:102C7C00B90869071E073507CA08110A9C072706F9
:102C8C008D075108AB09390842071307B5084C09E1
:102C9C00A2087207EE061108D608B408D10743073C
:102CAC00AF078108A8088308BE078D07B5075E0823
:102CBC007A084608680793070F0850081A08CC07CB
:102CCC00B907DF072B082E08F507AC07E107F60755
:102CDC002A0829080808C807B707FD073F08140881
:102CEC00FC07E007F4072D0829080508D907F207A7
:102CFC00500858083008F507DA07EE070908FD07F1
:102D0C00EA07C307C107DF07F507F507DC07CD079F
:102D1C000E082C0819081B08120817082908250882
:102D2C002C0821080608EB07FD070708E207F00747
:102D3C00CA07D50715081208D307E1070A08F507D3
:102D4C000308FD07D807F307020809080F0808084D
:102D5C001C08F907F7071C080D08120810080708CB
:102D6C00160811080308E007E307FD070808F20737
:102D7C00F707F807F607FE0713080C08F707E8072C
:102D8C001008F607E407EA07EE07F5071C08120817
:102D9C00FF07F5070208100811080A08F107FE07DB
:102DAC00070805080508ED0703080C08F8070608CE
:102DBC00F807F807FB070608FA07EF07ED07040802
:102DCC00E80702080A08FB07F407040810080F08B4
:102DDC00FE070108FF07FD07F7070508FA07F607C6
:102DEC00F707FE07FE070908FC07FC07FB07FA07B5
:102DFC00F6070208080801080908FC07000805087E
:102E0C00F707FD07FF07F907FB07FE070408F5079F
:102E1C00FE07FF070908F907FC070408FC07FE0773
:102E2C000008FD07FA07F4070B080408FA070F0857
:102E3C000908EF070F0805082E071B089A09570504
:102E4C00AB09FE0F91020000A101FD0FA50F9C0024
:102E5C0000007904F50FEA0FEE0B94019E017C083B
:102E6C000B091A01DD00CC04B6076B067405B50618
:102E7C001B07FB09850C030ECA0EE70FA40F6D0C84
:102E8C005408EC0769081A0608000000010000004D
:102E9C006A038A06C20A3D0A990AB709870DE20C31
:102EAC00320DBB0BFC0D0A0FB60E110BB404E9016D
:102EBC002A018403C904B0056507A508A80B970966
:102ECC0055099607D9089E07D9083B08D208E3088C
:102EDC009E08CC08E407E407F307620826085006AE
:102EEC004A05F0039A04AF05C307F0077109420ABB
:102EFC003F0B2C0CBA0A2F0A5408FD0869094B0920
:102F0C00C4077C0623079605B2049F04A405B305E9
:102F1C002F073A08C4076708120A180A390BBB0AAC
:102F2C00950AAB089508D5073E07A9063C0681070C
:102F3C004D07F807D407A3081D075107FB05C50665
:102F4C00A6066A07F907BF084B0940091F0A9B0927
:102F5C008F097F09BE085E080108D407CA06FD0563
:102F6C00AA052A067F0617075807E0082609D20982
:102F7C0093098409FA082B0917086D07C207A407DF
:102F8C006D07A00721089A076A0844083C08C50881
:102F9C00F708C708C107E4074E07DD0677069B064E
:102FAC0089065107E2078208FE081C09DD09610940
:102FBC00C309DA08F908D5072E074A068106380630
:102FCC00C4062B07DC07E00778081F09F60863091D
:102FDC006608FD08E5071208990788074A078F0756
:102FEC007007A2070808DB0704084108B508570852
:102FFC00D7082F084408EF073F08A4078C074107A0
:10300C005407AD07AE07210874086F082F08850810
:10301C0075086B081E08E5079F0796073B07A00776
:10302C009107E507F0071308420839085E083108D4
:10303C0022080B08EC07D107A807B807B607F10759
:10304C001F081408D007F3072C08F60732081308DA
:10305C004C081308E7072C084C081008F407FE0767
:10306C00B407B807E507B207CD07DF070308FB076E
:10307C00ED073B0835082D0856085B0865080C0859
:10308C00EC07D907CC07D307CC07D207A60707084C
:10309C000008E607DE07150806080F0836080C08B6
:1030AC00E007EE07FD0738080208D707F1077D0790
:1030BC002706AD08A107760809090F07FF085B076B
:1030CC006B09BF07980A5B08B307DA086407660741
:1030DC0087056A078708FF062B09C4064308D20731
:1030EC00FE0518074209070ACE07E3073A08480706
:1030FC00B7071C08BC077C07800795082A07A90797
:10310C001A08C7095A083B0758074808DC082F0853
:10311C00080876075D0818089A07D3074208F707CE
:10312C001208D507AB078B07C8077F08A907AC07A0
:10313C00520868089B07AA0703082D08CF07DD076C
:10314C007F075F080A08470814082B0851081F0856
:10315C00DD07EA07F40709080B08DC07A007FC07E2
:10316C0004081408D507FA071708FF07D507F40752
:10317C001F082A08F407DC07EF071308F707FB07FB
:10318C000508F407100808080208FF07F8071608D6
:10319C00FD07E407EC07EE07F507EC07E307F2077A
:1031AC0005080308140810081C082208140809084C
:1031BC00F907FA07F707EB07F607F407F507010815
:1031CC00070805080E08FE070508F907FC0705089F
:1031DC00EB07F4070008E507DF07550864080B0840
:1031EC00F2075E081B08CA0705080608D007140872
:1031FC00F5074108E80714080E081D08160808080A
:10320C00F8071608F507F707E7071F082B08070844
:10321C00CF07DB071E081F081008E807F00709088E
:10322C000408E207FA07F107FB070508F407EB07A8
:10323C00FD07130812080A08180809080D08FC07EE
:10324C00F8070508FF07FE07FB07FE070008030841
:10325C000008F307FF070408EA07EA07F707F9076E
:10326C00FA07F807FE07FE07070816080E080808F5
:10327C0000080B080608FF07FA07FE070208F90703
:10328C00F607F707FB07F607FC07F707FB07FB0733
:10329C00060800080508010803080A0802080208C5
:1032AC0007080008060801080108FF0708080608B7
:1032BC000008FF07FD07F607F707F807F807F707F9
:1032CC00FA07FB07FB070008FE07FD0702080408C6
:1032DC00000801080508020801080008FF0701089A
:1032EC0003080208FC07FF07FF070008FE07F907A1
:1032FC00F907FB07FA07F907F507FA07FD070108B5
:10330C000208020807080608070808080408040849
:10331C00FD07FB07FC07FC07FA070008FA07230860
:10332C00E3077808DE06D5075B0960087C094406CC
:10333C0050084B08820618079707E508D90950086A
:10334C007E083309B107490728078108C4073108EB
:10335C003A085B06FA05E2070D073108D80836086B
:10336C003408C4082608B4073409D4077F06B90703
:10337C008207E00838086A07E906CA084C09CD0735
:10338C00F107C8089808A3088D07780710084608A5
:10339C00ED0757070208BF071508B5072F0889075F
:1033AC0026086508C70728081B084E08F007D10730
:1033BC00090854083808BC07A9074F086F08C2074A
:1033CC00060818080A0842082808E80722083B08DB
:1033DC0069080608FF071F082D08E507C6074D08F2
:1033EC00F9074708A307B6070F08EA0706082A08D3
:1033FC0042082E08CF07F8070A08F007EE07040862
:10340C0010080508F0071108FA07E407E507F607A6
:10341C0009080E08EB070C080708ED07F307FA0775
:10342C000708010802080708FF070708060805082F
:10343C0001080208FF07FB07FD070208FC07F70756
:10344C00FF070208F407FB0702080708FC07FE0742
:10345C00FD07F107EF070E084A08E1070F08D1072F
:10346C000B083C08EE07010897074A08FA07A6075D
:10347C00F60711082B082A08E107EF0708082808A7
:10348C0019080808ED07E6070D080E080508F707E8
:10349C001C08FF07ED07F20706081508F2070F08CE
:1034AC00F8070108FB071108E207170813081308AF
:1034BC00DB070808FA07F9070008E9071C081D08CC
:1034CC000408D807FC07F707FF07FD07E807030800
:1034DC00E307110816080808FF071308060809086F
:1034EC0010080A080008FC07E607FE070008F107A9
:1034FC00FD07FB070108E007F307FE0700081B08A0
:10350C002708FD07F507E6070808F107EE07F4079B
:10351C00F707F607EF070608090809080A08140850
:10352C00F6070B08FE07F80706080008FF07FF0759
:10353C0001080008FD070208FD07FE07FD07FF074D
:10354C00030802080308FC07FD07FE070008010832
:10355C00FC07FF07FD07FF07FE07FE07FF07FF0736
:10356C00FD07000802080008FF07FC07FB07FE0721
:10357C0001080108FD07FD07FD0707092308560888
:10358C00F1072C080908280898079303EE06F70F93
:10359C00010200004201FF0FF60FEE0515001100AD
:1035AC009505FF0FFB0FC90537006802C30AB60D5E
:1035BC00B60EA2027B05EB050B0F670F200533013E
:1035CC00C605C3051D0A2F0BB10A9D042D03B409B2
:1035DC005B08490706074A06F1050F0B7F0615071E
:1035EC0013079407A309B7099209B1084906E30820
:1035FC00F309CF089F06C607A5064508450B1E090B
:10360C0085073C05A806B1089A080C09DC06BB0422
:10361C00EE07440A67090B07B005D1065C087A0966
:10362C000408650683061C083D09A408DA07F006A1
:10363C00EB06A708A009A0089406C206450847098E
:10364C00E4086C07DF0682071509BC0816081C077E
:10365C000408DC08CF082408550730071D08BB08F0
:10366C007708E8075F07B20714086B086E08C907EC
:10367C007A07EA074A083B08B9078C07E7073008BE
:10368C005408F4078907AE071D0858083B08DA07E9
:10369C00AE07BE071E084D081908E607D7070F0826
:1036AC0028082B08E807CB07E6072E0840081F0858
:1036BC00E307DD07E407130825080B08E807DC0718
:1036CC00ED0719080D08F907EF07F20707080208BC
:1036DC000908FC07D307FC07160821080908D307BB
:1036EC00DF071A08F4072D08F8070E080708D90792
:1036FC00F707B507CA07F8072E080B080D08E307EC
:10370C00E5071708160826081108F007D907E2077D
:10371C00220807080E080E08F307FF07FF07F80733
:10372C00E907E3070D081A08FD07FA07EA07EF0790
:10373C0004080308F307E007FA0716080A08080844
:10374C00F607F30710081C0815080508E907F60723
:10375C00EF0706080C08EE07F107F707FF07FA0753
:10376C00F5070508F60700080208F507F507E8074E
:10377C001608FC0708080008FA07F207FC07FF0701
:10378C00FD07FD0709081208170811080A080608A2
:10379C000B0810080708F407F007EB07E807EB071E
:1037AC00F607F207F207FC070D0816080F080D08BC
:1037BC0015081308FE070008F107F107E807E907E9
:1037CC00E707EA07F107EA07F007FC0707080A080A
:1037DC00FE0711082708210817080E0815080E08FF
:1037EC0007080008F607F807FA07F507EB070A08B9
:1037FC00DE071108CB08B008E00624071E060A06EF
:10380C0062070307B4070E091107A6077F09E8062C
:10381C007606B808F4077708FA087808DE06DC0A9A
:10382C00DA042E07D2091A081B05F007D707FF0682
:10383C00D4074F0813075F07AC083007AC06A50781
:10384C00460873089808E307D107D508E907370835
:10385C0099085B08FE07B407250703099C0878073D
:10386C00F907E40702086607F3070E08D307B80741
:10387C00EA071708CC073D08BC07F807DE07F40772
:10388C00360824081E08DF07010820080E08EF0779
:10389C00E6072C082208C507FA070F082608270890
:1038AC00F3073D08050808081508EA07BB072A08AE
:1038BC00E607FE07EA07DD070C0812080F08F107F8
:1038CC000F081408F307F607FA07F5070208F807BC
:1038DC00E907FB0709080108F607E107F507F607F2
:1038EC00FD07FD07FA07FE070108FF07FA07FF07A8
:1038FC0001080708F2070008050808080808FA0775
:10390C000108F707070805080108F407030807086A
:10391C00F907FC070708FD07FE070008FF07030867
:10392C000508FE07BF07DB075F085F087F08310942
:10393C002D0A7C05E5031B045D0D100F68050000C6
:10394C0037029E0CFB0FF90F6F069300D403A40AE9
:10395C00100A8B065403FF00CD0239058308610859
:10396C000A06AA056A09E70EFF0FFF0F6D0E6B0B17
:10397C00480A160B510BE508640300000000000018
:10398C0034010B03AF03C7048406B208080B0B0DFC
:10399C00370FFC0F680F610EF90C400B62087705AE
:1039AC00D90398038704BE054307E1078A07EF058F
:1039BC001905E00581076F08F0078F077208080AE0
:1039CC00BC0A740AED09EB09FA09FD098109990889
:1039DC002F07CE051E05F104DD048E044504B50445
:1039EC00F9059107B70880097B0ADB0B030DEC0C7A
:1039FC00E20B970A6B091B08980652059B047D0481
:103A0C00C4046F057606C107DB087D09AA09930972
:103A1C003A099C08FB079B07A307BB07D107E907DB
:103A2C001108480859085B0855081808A9073D07EC
:103A3C000607FC0613075007B20726089B080F0958
:103A4C0073099F095A09C7083808E107A0075007EE
:103A5C00F406A4067A06AD063107B7074D08A2088E
:103A6C00A507B4089B09AC0772086308BF09AB092A
:103A7C008509A706B106290F200900000000480C93
:103A8C00CE0FA10D01000500670AFF0FE90FB30669
:103A9C00970146046E0BE7078E0093015205C3068F
:103AAC00440588063B066F07580A7B0D010FF30F80
:103ABC00FB0F3A0E9D0AC408C608FB0888050000D7
:103ACC00000000000300DE033207140A3B0A490918
:103ADC00F909250BE60C410D930CC80CBE0D020D1B
:103AEC00CA09BC0429026E02B1039105CC06EE078B
:103AFC00070932097508F2062D072508C0083F088A
:103B0C001A08D80864094F09C20873087508B30865
:103B1C009208E007B10603052404B5041206250734
:103B2C00B007480842095B0AF30A8D0AAE0931094D
:103B3C00A009040AD709B208680792060906870586
:103B4C001D054005FA05D7065907AC074B08660951
:103B5C00450A960A170A51099E082108B5075B0702
:103B6C0029074A078207B4070B085E085608FF07A7
:103B7C007B074D074D0760074F0750078B07C107A1
:103B8C00EE073208A0082E09A309AE0969095F09DE
:103B9C00010918080A076F0611068505E2059A0641
:103BAC002907C8077608C0085E097C098B097609C5
:103BBC0034093309CF0827086807DF068D069606F7
:103BCC00BC060007960731088808CE08C7089C0871
:103BDC0078082908E6079C07740756075C077A07DC
:103BEC00CF075508B708ED08F508C908950840082F
:103BFC00DF078507470725070B07090741078807D4
:103C0C00D40729087908B308DA08E808D208A70805
:103C1C006C082208F207BC0796076A073D074407A1
:103C2C006807B107EE072D085B087D088208660857
:103C3C0043081C08EE07BC079C079F07B307E00767
:103C4C0007082E084A085608550843082F08170875
:103C5C00F607D307B607A207A607AC07CD07E207FE
:103C6C00090830084D084808380828081B081808A7
:103C7C0010080A08FA07E907D907CF07BE07C907D2
:103C8C00D407E007EA07FA070008170826083708E0
:103C9C0047084B08440833081F08FA07DC07C70716
:103CAC00B807B807BA07CB07DE07ED0700080A0804
:103CBC001C082708250821081C080B080308000805
:103CCC00F907EE07F007F507FE070E0813081F08A3
:103CDC001808380824086308C1075B087B08B60578
:103CEC002E075309BA075805290BAD066E09500764
:103CFC008209EC099B072107DF0768087608E608AC
:103D0C00E806DB0630074D08EF07C4070809D5079E
:103D1C0058073008DF08290786080A09C207230854
:103D2C00B90798089308AC075108D5087D086F08A7
:103D3C0078087B07A1074C086D07E00701085F08AE
:103D4C00D307B007DD070E08E4070D08ED079E0743
:103D5C00430822086F08CD07080805080808C307A0
:103D6C00E307CF070C08F407F607FB0765083508CF
:103D7C003308F0071C08D10703085508BF070208D1
:103D8C00DB07DE07E807D9071A0827081D08100803
:103D9C00450821082508F807DE07F0072508EB077A
:103DAC00D6070A08F507EE070208000809081808E4
:103DBC0012080408180808080A08EF07F707E607AE
:103DCC00E707FC07F80702080D08120823081D086E
:103DDC0014080C080B08FD07EE07EB07E507F007C6
:103DEC00F107F507EB07F90703080A0810080D0897
:103DFC000C0815080B080208F2070208FA07FC0762
:103E0C00ED07F5070408EF07FE07FA07FF07E207BF
:103E1C00EA071308F5070508E7070F08EC07AE07D4
:103E2C00F40734082408160810080108FF07FA07DD
:103E3C00F707FB071808F407FE07EE07EC07DB078C
:103E4C00EF07290810081F08EB07F20702080908FA
:103E5C0023082D08F807F7072108EE07F6071A08BC
:103E6C00F307D407B707C90752082008E607C507A8
:103E7C003608E3075C08F1072808020810080B084D
:103E8C003A08FE07270809081E082C0805081F0811
:103E9C00FE07ED07030830080208EA07F107900750
:103EAC00F8070508FD07DD07CE07D407F50704085A
:103EBC00EF0733080908F407DC07F60710080C08AD
:103ECC00DF07E5070F08FA07F907FF07FE07FE07EC
:103EDC00FA07F50702080C080508FD070B08080887
:103EEC0006080208FB07FE070508FC07FD07FD078F
:103EFC000408FF070108FF07FF07FB07FF07FF0781
:103F0C00FE07FF07FF0701080208FE07FF07FB0774
:103F1C00FC07FA07FE07FE07FF07FE07FE0701086E
:103F2C000608030802080008FF070008FF07360808
:103F3C0010081A08F0071108F907F4070B0808080D
:103F4C000E08B40790063C06F70FAD037700370058
:103F5C00300EFF0F820A0A0004008904FF0FDF0FE6
:103F6C001408200075027C07250BC60F15064103AB
:103F7C0048065C08440A670C9D04450876029E0AB4
:103F8C009B0945086A074E051206F6081D0B7708B3
:103F9C009B041C07DA08C0086D07F4077504D409E4
:103FAC000B093B0B4D071D052808EA097709090A7F
:103FBC0007083407AF06AC08B3091A087D081405C6
:103FCC00FE08D6082D080108670464081C09F509C9
:103FDC00CF0614062B07AE089109B8086D06D50557
:103FEC003108650909099207A6066D074809BB083F
:103FFC00250833079506C4076109A5096107E7067B
:10400C0057083C09C308D707BC07A4079508D30871
:10401C002C0850075D075908D408850831081E077D
:10402C00810730086D080B08B8079507F8075C087E
:10403C004E08CB077E07C90730082F080C08A707C6
:10404C00C107ED072F0826080608C007D3070D087F
:10405C000C0828080208DE07E5071A0830080108D2
:10406C00E50700083308450840081008E307E50792
:10407C0002081408F207D207CA07C907F507F307A5
:10408C00E107E6070E081C081E0820082608F8079A
:10409C0009082B081D083A08C207C8070208DD07E3
:1040AC00FD07DA07F307F70712081308EA07DC071E
:1040BC00ED07EB0706082408D607D007E107FC0735
:1040CC001D0811080C080708FC0716082808FD072E
:1040DC00090816082B080708F207DC07DC07FC07A1
:1040EC00F607F607FC07F007F407050821080F0888
:1040FC00FE070008EF07EC07ED07E407F307FE07E0
:10410C000808090807080008020811081108170810
:10411C000508F00702080D08F407FC070208EC0775
:10412C0001081208FF07F40704080908FD07040832
:10413C00F507F407F1070F0805080A08FB070B0839
:10414C00FF070E0802080508FA07FF070108040814
:10415C00F607FC07F207FC0704080308F307FC0743
:10416C00FD07FB07FB070408FD07FF07F807FA0725
:10417C0012080A08FF07FD0702080408FD070108DA
:10418C00FA07FC070208F707FF07080808080508E4
:10419C00EB07FA070D080108F307F60702080608F3
:1041AC00FF07F807FA07FE0703080408E107A7074B
:1041BC00C108D30612083C0F360902000600960F00
:1041CC00FF0FC6080F000000410FF40F4D0F9103B5
:1041DC00D4023908390ADC04850190034807BD076D
:1041EC00B006E50683063C0A640CD10D360EFF0FB3
:1041FC007A0FEA0CDE096809DE0745075701030050
:10420C0000000000AE02D805790A710AC20A200922
:10421C006E0BEA0CF70CCD0BA40BAD0D3A0EC50BC7
:10422C00C305F0016D0065024604C50415070908B5
:10423C00750A6C0A8B09DC06CB08070814081C09E4
:10424C003C0925091309F308A60709083B07DB07F6
:10425C00BB08EA0637054D03920382046006E407A7
:10426C008108C009310B8E0CC90A050AE0077209D6
:10427C004309F208D408B10682061C06BB05DF040C
:10428C006D05F2054107AE07D007D60728095D0971
:10429C00C40A0F0B5D0A6209E90852086807250772
:1042AC001F0642079007D408FE07D308490780076A
:1042BC003506EB06C3063C075A072F089B093C0939
:1042CC00CC093C09FD099009050927086207D907A3
:1042DC00AF064A0669055A05DD05F406CB066308E8
:1042EC000C099E09AD0987097A09AF08DC07CB07D1
:1042FC00C6075007A907A707E007F5072708EA072D
:10430C001E0880085D0883087408EB0772078D0689
:10431C009F062907C506FC068907E707E008C908B8
:10432C0097096409850901097808BC076B07D6064B
:10433C007B061A06A506300736072F083F084B09DF
:10434C007308F3086208AF084D081B08800785073F
:10435C004D0719076B077107A507EE0733084D08C2
:10436C009108520889083608810837080A08FA07A4
:10437C0094075C070B077F07950707081308460887
:10438C00BC08AC087B085F087008E507F507520706
:10439C009D078107A0079C072908170875084C087A
:1043AC004A0868083C083608EA07CA079907B207A2
:1043BC008407DE07DF07F4072A08F707EE07FF0775
:1043CC000408230816081108C00700080D0818086F
:1043DC003E080708BA07A107CA07CF07E207F40788
:1043EC00DD070708D3072108420811084B085708B6
:1043FC004D0815080608D307CD07F407C807E407CE
:10440C00B207E3072008EE07EF07F4072A080C08A9
:10441C002E081008ED07E8070108000817083B08EC
:10442C00BA076E08840853087809BE083209850952
:10443C000E06F1074D091A07AD07A8088C064207AE
:10444C004408A60658069E0623091A0736075C0779
:10445C00AA094709E307B406CC0665087B074106A1
:10446C002209D10665098C085E077F0671076A0868
:10447C001208800878062308DD082B071A07840722
:10448C002E08A2074807B007E3076E08AD082D08F1
:10449C006508000805080608F6071F08A607760831
:1044AC00DA07A60739081708E607A807B50728088A
:1044BC0016084C08E6071A0818081108F60702082F
:1044CC00520820082308F107DE07230823080508F3
:1044DC00BA07FA0702081B08E807E907F9072B08CF
:1044EC00FF07F80703082608FF07FF07FB07FB0772
:1044FC00FA07E007FF07EF0700081508040805088E
:10450C0015081208F707EC07F007F907FC07E50791
:10451C00EA07ED070A0808080D0814080E081A081F
:10452C0011080508000800080008F607F207FA074A
:10453C000108F9070208F30707080108F907FC0747
:10454C00F90701080508E007FF070108CD07E70791
:10455C00F4072E08D707BE072B08B707F9071C0866
:10456C00E307FA074E08DE07F3070E08ED071B08F2
:10457C00FB07F5070408000824080B08E907FA07ED
:10458C0026081E08D507D907FA0723080508ED07E2
:10459C00FA0700080208EE07E307FE07EB070F080F
:1045AC00FC07F807FB0707081E0809080D080E088A
:1045BC0005080C08FC070108FF070108FC07F207B7
:1045CC00F90700080608F607E507FA0711080C08B2
:1045DC00F807ED070E08F50704080E08070803088E
:1045EC000F08090804080E0805080D08F507F6075A
:1045FC00FB07F607F2070008EF07F907FB07FF07B1
:10460C00FC07FD0703080408020801080208020859
:10461C0002080208FE070108060803080408FF0741
:10462C000408070800080108FA07FC07FA07F8074E
:10463C00F707FB07F807FD07FF07FE07FC07000855
:10464C00040806080408020805080408FD07FF070B
:10465C000008FD07010800080208FD07FF07FE0718
:10466C00FE07FE07F807FA07FD07FB07F907FA072D
:10467C00FD07FF07010801080108040805080308E5
:10468C000308030802080008FB07F907FE07FA07EE
:10469C00EA07F707AC075007E0078608C402630770
:1046AC00050D7D0210005D02F50FEE0F5F0102009B
:1046BC000104FF0FFA0FE70A6B01AB031F09460950
:1046CC003E03AC01CF0231075B061E07A605860729
:1046DC00A908B60C020FFF0FF90FD90E1D0C860995
:1046EC00B8082A0907088900000005000000ED0140
:1046FC007E056809EA0972097309DF0AB40C1D0DFD
:10470C00A00C970C660D310D040BAE06E902F701F7
:10471C00020317054F065707B908250923096A072D
:10472C001A07D207980886081B088C080B097C0905
:10473C00F1088A085E089A08B60842084307B905CA
:10474C005C0461047905C2068907EF07D708F709ED
:10475C00C30ACB0A080A56096909EA09FE0938098D
:10476C00E707D9063806AE053B051B05A6057806F6
:10477C002D078B07FE070909010A970A570AA30997
:10478C00D9085A08E10773072A0736076D079B07F4
:10479C00E7074A086A082B08B00758074807650757
:1047AC005A0750076B07AA07E307130865080709A0
:1047BC00AE09D409BB097B092F09A7086707C906ED
:1047CC0016068705E2052506CD0647071508A70836
:1047DC0030099309B3097D0966093609FD08830878
:1047EC008D070507AA068B069806CA064D07F6071D
:1047FC006408B108C108B9089D0854080408B90731
:10480C0087075D0745075007A9071B089208EC08A6
:10481C000109D708A40868080C08A3075D0720073E
:10482C000707060726076907AB070A085F089E08F3
:10483C00CB08E108DD08B50885083908FF07D00763
:10484C00A6076E074B073E0756079007D6071208B8
:10485C004A0870088308720855082A08FC07CC0718
:10486C00A6079B07A207C907F5071B0840084D08B8
:10487C0050084908390825080208DA07C307A407B5
:10488C00A307A407C507D207F807260842084C0857
:10489C003F082F081E081A0818080A080108F30711
:1048AC00DD07D107C407C607CC07DC07E507EC0713
:1048BC0000080908210833083F08470846083D0846
:1048CC0028080B08E607D007BD07B807BD07C307C4
:1048DC00D507E807F6070408170821082608280852
:1048EC001B08120809080308F907F207EC07EF0781
:1048FC00FD070C080F081D082B08D8072C08E70625
:10490C004604ED0FB208B60800007809FF0F5E0DE3
:10491C00150002005404F80FF60FB6061400C90176
:10492C00B2099F0D5A0F7C049700FF052C0BCA0E81
:10493C00350DC404320311000A0EF10A560ABC04E8
:10494C00B90596069A0AB2092007480475050E089F
:10495C007C0B6E088C07EE044B09DE08890979087C
:10496C00CF077F086908F0064A08860A5B074B07E1
:10497C000A09700A98089905CD055608CB0A1A0938
:10498C00050779048D076509E209E307A805EC061C
:10499C00AD08A209460832066E06CE073D093D0851
:1049AC0018089B06C30650086309E7086207EB0664
:1049BC006F070A091909D5073E0769071509F20897
:1049CC0049083507B9079A08E2084708A1074B07B9
:1049DC00EC077708860829086207580702087D0843
:1049EC006708CD079107C40722086708D107A107FC
:1049FC008D07240834080208AD078B07F2075E0800
:104A0C004608FA07AD07CF07080831082B0812082B
:104A1C00D907FF072F083F080608D207E20711083D
:104A2C002C083608F007D407CE0703082D08050814
:104A3C00E307D707E307100821080508F407020865
:104A4C00FD0707080808FC07E607F1072E083708DA
:104A5C000008E807D90723083908EB073408CD0705
:104A6C00EB070108E607E807FA074808F1071A08F8
:104A7C000A08D807E607FC0707080B0819080208FC
:104A8C00DF0710082008FF070908FA07FD070508CB
:104A9C0006080508FA07F207FC0704080508FD07D5
:104AAC00EA07E2070708FE07FD07FF0702080508EB
:104ABC0007080308F207F207060801081908080896
:104ACC00FB070308010806080508FE07EE07F107B7
:104ADC00F107FB0702080208F4070C081208F60796
:104AEC00F70702080208F40707080808FA07EE0798
:104AFC00FF07F607F907FD0701080A080A0801086D
:104B0C0012080A081B080E08FD07FD07F107E1074C
:104B1C00EF07ED07EC07EC07F90705080A0806088C
:104B2C00060816081A08090806080708F707E80710
:104B3C00EF07F507EC07EC07E707E707FA07FA07B3
:104B4C00FB07FC07060821081908170818081108A4
:104B5C00080800080C080108EF07F907FD07F20721
:104B6C00FD07F507CF0765086B07B008D207BD082E
:104B7C00F7095B07D307230B7C072005EA0CA2057A
:104B8C00670A3D085709D309210701075307830713
:104B9C005A0847086C07540603088B09BA06DF0746
:104BAC007F08D6081C07A708EE084D066209C20844
:104BBC0089074B0783078C08BA08CC0788079D0820
:104BCC00040814084A085108C007870804087B0722
:104BDC008908FE08C807EC074408790763089C0796
:104BEC009507F90738082608D2070208BD07690897
:104BFC00F907A907DB07F907430800081308D507CD
:104C0C00430830089E075B08DC07E907F607050830
:104C1C00F507E80705081808170806082C085408B3
:104C2C00D60712082A081D080208EB070A082108F3
:104C3C00FE07FE070E08F307F8070108F80712082D
:104C4C000A080008F707F70713080408FC07F10720
:104C5C0001080308FA070408FF07F307FC07FD0720
:104C6C000008FC0708080608FC07FD07FE070808F3
:104C7C0008080208FA07FE0708080608F407FA07EE
:104C8C00F607FD07FE0707080308EF0705080508E8
:104C9C000A080808FE07FB070108D007F10762089D
:104CAC004D082508E80A7A06DE020905FF09A80F57
:104CBC0044090A000B00F009EF0FFF0FA5093A0198
:104CCC00410248093D0B06073604B801BE012F040A
:104CDC00BF078F08E0068805F407A10DFF0FFF0F33
:104CEC002B0FF40B2A0AA20A9E0B020A05050000E0
:104CFC00000000009500A60296035704E805200862
:104D0C00410A850CBC0EF30FC10F9C0E4D0DD70B39
:104D1C002E093D0624048D032E046905EA06DB07E3
:104D2C00C20767063D058C05160752082D08880733
:104D3C0009089709B00A990A1B0AE509020A0E0A22
:104D4C00B309EA089F07110631050005EE04A40417
:104D5C003E047D049205250773085809280A800B28
:104D6C00D70C120D3B0CF70AC7097E0804079705F0
:104D7C00BA047504B004390525066507980862095C
:104D8C00A509A1095C09CA082308B0079C07BB0741
:104D9C00CB07DC070608360859085E085B082E08A6
:104DAC00CA0755070E07F40608073C079A070508BB
:104DBC007A08F0085A09A0097909F1085D08FB077F
:104DCC00B20766071007B9067E069C060007920715
:104DDC0024085508A8073009CE0A6E07D4071B080B
:104DEC003B077007FB07B3077B04A40DE10D7403AD
:104DFC000300CC05FF0FFF0F00001D002E07FC0F5A
:104E0C00F70FAB084101CC03E20A47086E027001B0
:104E1C007C03A7062A063907F4057C073209C30C64
:104E2C00660EFB0FFA0F2E0F560BAF09BA0864096A
:104E3C003307000000000100020094026F067409A1
:104E4C00310A7209AD09E90AD60C6A0DC60CAC0C14
:104E5C00540D380DAD0A0E064A02CB0137033A0544
:104E6C008B068F0715093909A50855072F07020866
:104E7C00A10848083708980826096B09D0087C084F
:104E8C005B08AA08A40818080907850539047704E3
:104E9C00AE05F4069B070608F908150AD90AB20AEA
:104EAC00E60941097409F709FD090E09BA07C2069A
:104EBC002F06A7052C051A05C10598063C07920775
:104ECC0018082E091C0A9A0A410A8609C8084608BD
:104EDC00D307650727073A077407A407F5075C088B
:104EEC0069081B089E074E074807660757075107B6
:104EFC007207B707E7071D0872081E09A109D00938
:104F0C00B9093F09130972084707A106E605B3055D
:104F1C00D3055406F30691072108AC084C097C090B
:104F2C009B099209470932091A094F087707FB06B2
:104F3C00AA068F06A106D1065C07FC076F08C708F6
:104F4C00C908B30891084D08F707BA078407540736
:104F5C0054076D07BB072F089D08E108FA08D30812
:104F6C0099086508FF0798075107200709070A07E2
:104F7C0032077007B80714086408B208CF08E308B2
:104F8C00D708B7087C083008FF07CA079F077707C0
:104F9C004C07410759079207E1071E084E08730892
:104FAC0085086C084E082B08F707C507A1079A0758
:104FBC00A807CE07F8071F084108520852084808EE
:104FCC0035082108FD07D707C107A007A607A507C5
:104FDC00C807D80701082A0845084A083F082C08C2
:104FEC001C08190819080C08FE07F307DA07CC0788
:104FFC00C307C407CB07DC07E107F20700080F085B
:10500C002308340842084C084508390824080408C9
:10501C00E207CF07BE07B807BC07C507D807E807E4
:10502C00FC0707081A082408250827081E080F087B
:10503C0005080308F807F007F007F007FE070D084E
:10504C0013081C08220840089908E006BA06300725
:10505C001A098A069C0A4505320CFF0F130400003E
:10506C00BD00FF0FEC0F67030600F202EB0FFE0F03
:10507C00120C12039102E608140A1E04AE01E1019F
:10508C0061063E062106E406F5062908FC0B240FF2
:10509C00F70FFF0F180FD10C92096908C3085C08B1
:1050AC003502000002000500C201ED04EC08A50A5F
:1050BC00070A87096F0A5E0C700DC00C5F0C1F0D80
:1050CC00AC0D970B72075903EC01BB02AB041A062B
:1050DC0039077C082A091309B4070107BE077508AC
:1050EC0062083508760802097109040989086C08F8
:1050FC00AD08CC0854085E070F0687044D044D0517
:10510C0099066A07D907AC08C309AF0AE30A210A52
:10511C0059095509DE090A0A67090C08EF064A06FF
:10512C00C0054D051305870559061D078607ED07B4
:10513C00DE08DF09890A6A0ABE09F4086B08ED0764
:10514C0082073307300769079407DB073F087608A7
:10515C003E08BA075E074B075F0760074F076807F3
:10516C00A507DB070A085608EB086D09DB09C70918
:10517C007F09E708AB086607B5061906AC05970565
:10518C001A06C6063407E707860829097C09A5090B
:10519C008B096C0929091509AB08A2071407AA0683
:1051AC0095069D06B8063407E8075F08B908CA08D3
:1051BC00B008960867080C08B7078A0761075407F8
:1051CC005707970707088D08E8080309E008B00897
:1051DC006A082008B0075A072507100709071B079C
:1051EC006007A107F6075408A308CE08EA08E008F0
:1051FC00B70887083F080908D607A4077A07550798
:10520C0041074D078107CA07080847086A08840840
:10521C0078085B0834080208D807A50795079F078C
:10522C00C407EB07140838084C0854084D083C0810
:10523C002A080508E307C807A807A307A507C1079D
:10524C00CC07F7071F083D084F08430831081F0813
:10525C001B0819080C080308EF07E607CC07C6075C
:10526C00C207CA07D807E507ED07FC07070820089F
:10527C0030083D084808490843082B081108EB077B
:10528C00D407BF07B907BB07BE07D207E407F2076D
:10529C00030816081E08270826081C081508090804
:1052AC000208F807F407EC07EE07FB0709080F08DC
:1052BC001D0830080A084F081E072205A30CDC0B3A
:1052CC00BD0900008707FF0F490F460000005C0373
:1052DC00440FDE0FD20E3D003D01F906450DC30F04
:1052EC007E08F902690615089F0BFB0B32063E0976
:1052FC006B03470CC507E309C2057605DB05EC0A11
:10530C00B507A4074308FD08F608D30B2D091606AC
:10531C00D804A608BA09780A140950074407C0092A
:10532C0089092B0A2A080C065407B008690A7D0A59
:10533C008C0657087807020AB60934074F05000790
:10534C0001094409B307F905D0055F073609BC0804
:10535C000306CD065207E508F608F8070506880689
:10536C00D407BF09670828075206F506DA092B0986
:10537C00B607C9067C0721094509670833079F074B
:10538C008508A90819086A079707DF07AE0893086C
:10539C00320855076D070A0876082508BA077F07F3
:1053AC00A90715085408DA07AF07C507140835080C
:1053BC001608B107B307E7073D081C08F307D30726
:1053CC00D307E6070A0831080E08D907EC071A08B4
:1053DC0028081208EA07D8071A085A0851080708BB
:1053EC00F207F90703080D080708DF07B307C10721
:1053FC00D407F807E307E4070208F40724081E089B
:10540C000808FF07F7071B0830082D080908E307F1
:10541C00F40702080B081108D607E707F5071E0862
:10542C00EE07CC07EE07EF07E0071908F807D007DF
:10543C00DC070908200817080D08F107F2070D080A
:10544C002D080E080D081F081B080E08F707D507B6
:10545C00D907F707F9070608F807F307EC07180848
:10546C0015081508FE07F507EF07F307FE07F40705
:10547C00EF07F207F70709080E080A080108FB07EF
:10548C000F080708FF070508F807FB0701080808BD
:10549C00F907FA070408FA07FC07FC07FE070208DD
:1054AC00F4070F08F807E907F307FF070208FF07DF
:1054BC0004080A08FA0709080C080108F807FB0792
:1054CC000208FB07FD07FC07010802080608FC0799
:1054DC00FF0707080108FA07FF070108FE07FF0787
:1054EC00020804080B08F907FA070408FE0700086D
:1054FC00F907FE07FB070408FE07FD0702080C0866
:10550C000608F607F30709080108FC07FD07F90769
:10551C00FB07F3070608FE070A0800081708F2073E
:10552C00FB072B07E5083707E706780ED00C0000C1
:10553C000000530CF70F9B0C00000000A40BF70F9E
:10554C009F0FC806A800B905F30AE406FC00D202B6
:10555C0089073A07110599061006D609E80B950D2F
:10556C003C0EFE0FCB0FF70EAD099A085008BF0783
:10557C00EA03000000000100F10097058F08100BF2
:10558C00E80A7E09060A1D0C900DEA0C630BDD0D72
:10559C00E50EFF0C33079F02240006021804710469
:1055AC00B605610764096B0A24091F084D087B08BE
:1055BC006D0847097B090B09500848099208CE076A
:1055CC004207CB0802086E072206D403D5034F0509
:1055DC0095069F07FD07090A690A010CA60B860AA6
:1055EC002B096708CA0952091609CD0708072406B2
:1055FC006A051505660561055A0696073C08C0073D
:10560C004408010A8E0A730A5A0A2C0ACA08A50809
:10561C00E3065207AA066407EB06AF0875083508BF
:10562C00FB0746074C0658068F06F906B607010815
:10563C005109AD09DC09AD09AA090F0A9209D10873
:10564C000E0888072C079406D705CB05BD0529063F
:10565C00FB062F0831097709980910094309260917
:10566C00A908B2076B0774078A07B307C70779073E
:10567C0069076308C40752087008D008140850085A
:10568C00B1072307F306A306A806F206F5072A08B6
:10569C009C08E0084B09C809FB093D09B2082A0817
:1056AC00C907ED064006A0064B066D07400721080A
:1056BC0035081609B6085A09F208AC087E083708EE
:1056CC00CE07650748073E075B079807CD07FE071F
:1056DC003A0849085208740847086A083508F80758
:1056EC00F00733081407BF078407BD078307DA07E1
:1056FC0043086C08A8088008A708A308850839087F
:10570C008A079807A5077C079607D807DD07330893
:10571C002108450866085B084A087408F8070C0855
:10572C00C0079407D507DA072808140826080B08C1
:10573C000308F80708081E0839086208D507F5079A
:10574C001A082C081A080E08D2078907B707F4079D
:10575C00BD07E107EC07ED07E90712084E080B0837
:10576C002208490849081D080A08F207F407F4073B
:10577C00D207F007BD07CA071008F807E407FE07B1
:10578C002B08FE0730080D08E807E507F207EB07C2
:10579C0016081C085F07B3078F073B072507FF0890
:1057AC00E706E907CD093C077609AB07730716092D
:1057BC006D06D30671089608C4090809EE074A0855
:1057CC003C08D107E3078D0868086D0624094408D6
:1057DC002A078E079509C708B2076B08FE06340620
:1057EC002409B008D007080890076208B909D60741
:1057FC006706DD073808850811080E089A08640941
:10580C004308C807FB0727080E08CD07FB07BF078F
:10581C007307C607DF078307A10741083008BD07D8
:10582C00E007E60728082F08DA0705080108F6073D
:10583C001508E10756082C080E080C080608FE0788
:10584C000408F307DD07D607F407FA07D507E707BF
:10585C00F8072A080008EC07FC0730082508E607BB
:10586C00DE07F3070A080008F907F507F707110820
:10587C000A080B0806081D08FE07EF07E907F007E2
:10588C00F107F307E407E307FA0702080108110818
:10589C0010081B0819080E0801080D080B08FD0755
:1058AC00F407EB07F107F607F407F707FA070E08FA
:1058BC000E08F507FB07FC070F08EA07E4072708A3
:1058CC00F707E607D707C707C607050821082F08FB
:1058DC0026083F084108C207EF073308CB07CD075E
:1058EC0000080F081308FC07F507150823082708FC
:1058FC00C707ED071E083B08E607C707E8071808A7
:10590C002108F00704081708E407F307F707FB075B
:10591C00EF070C080B08F707FE0706080C08000831
:10592C00050815081008F607FD070308FA07FF0716
:10593C00FB07FB07FB07FF070D08FA07F407E70750
:10594C00F907ED07F907FB07E707FE07080800084A
:10595C001108FF0712080F080408FD070A080B08B6
:10596C00F407F907F907FF07F807FA07F607FC072A
:10597C00F607FF07FE07FB07FB070508FE070608EF
:10598C00020801080308FF070108030807080608B6
:10599C000408FD070208010805080008FC07FA07BF
:1059AC00FA07FA07FB07FC07FA07F907FE070008D6
:1059BC00FD07030804080708000804080308040886
:1059CC00FE07FA07FE07FF07040801080008FD0799
:1059DC000008030800080008FC07FD07FC07F9078E
:1059EC00FA07F907FB07FF07FF0703080308070877
:1059FC0003080408020806080108FF07FC07F9075A
:105A0C00FB07FB07F307FE070D08B5073608C707AA
:105A1C00EB076007D8094806BE06C406C5081A0776
:105A2C00F507240704084C09EA062508D806FE06E3
:105A3C007D08220684091909280800072E088F09F9
:105A4C0004087A06C008CB0818082908C4083707C8
:105A5C0030084F08BB079607500795086408A8073D
:105A6C00A6086F08C9086B08AD078C0764088B077C
:105A7C0030075B0888089C075307A3076F088D083D
:105A8C004808F1072C08FB07540800088D07FC0791
:105A9C0029080E08E7078507E90744084208D207DA
:105AAC0091070F087508C407F207BD0709082B08F2
:105ABC00B907C007D307ED072408D007DB07E307B6
