:020000040800F2
:1000000000000220C11A00080D1000080F1000089F
:10001000111000081310000815100008000000005F
:1000200000000000000000000000000017100008A1
:1000300019100008000000001B1000081D10000827
:10004000111B0008111B0008111B0008111B0008E0
:10005000111B0008111B0008111B0008111B0008D0
:10006000111B0008111B0008111B0008111B0008C0
:10007000111B0008111B0008111B0008111B0008B0
:10008000111B0008111B0008111B0008111B0008A0
:10009000111B0008111B0008111B0008111B000890
:1000A000111B0008111B0008111B0008111B000880
:1000B000111B0008111B0008111B0008111B000870
:1000C000111B0008111B0008111B0008111B000860
:1000D000111B0008111B0008111B0008111B000850
:1000E000111B0008111B0008111B0008111B000840
:1000F000111B0008111B0008111B0008111B000830
:10010000111B0008111B0008111B0008111B00081F
:10011000111B0008111B0008111B0008111B00080F
:10012000111B0008111B0008111B0008111B0008FF
:10013000111B00080000000000000000111B000857
:10014000111B0008111B0008111B0008111B0008DF
:10015000111B0008111B0008111B0008111B0008CF
:10016000111B0008111B0008111B0008111B0008BF
:10017000111B0008111B0008111B000800000000E3
:1001800000000000111B000800000000000000003B
:10019000111B00080000000000000000111B0008F7
:1001A000000000000000000000000000111B00081B
:1001B000111B0008111B0008111B0008111B00086F
:0401C000111B000807
:1001C80010B5054C237833B9044B13B10448AFF389
:1001D80000800123237010BD2000002000000000D3
:1001E8006C1B000808B5034B1BB103490348AFF368
:1001F800008008BD00000000240000206C1B0008DF
:1002080081F0004102E000BF83F0004330B54FEABF
:1002180041044FEA430594EA050F08BF90EA020F2C
:100228001FBF54EA000C55EA020C7FEA645C7FEABF
:10023800655C00F0E2804FEA5454D4EB5555B8BFE2
:100248006D420CDD2C4480EA020281EA030382EA53
:10025800000083EA010180EA020281EA0303362DE5
:1002680088BF30BD11F0004F4FEA01314FF4801CB8
:100278004CEA113102D0404261EB410113F0004FCA
:100288004FEA03334CEA133302D0524263EB430381
:1002980094EA050F00F0A780A4F10104D5F1200E1F
:1002A8000DDB02FA0EFC22FA05F2801841F100017A
:1002B80003FA0EF2801843FA05F359410EE0A5F14E
:1002C80020050EF1200E012A03FA0EFC28BF4CF07F
:1002D800020C43FA05F3C01851EBE37101F0004535
:1002E80007D54FF0000EDCF1000C7EEB00006EEB42
:1002F8000101B1F5801F1BD3B1F5001F0CD34908CC
:100308005FEA30004FEA3C0C04F101044FEA445222
:1003180012F5800F80F09A80BCF1004F08BF5FEAA9
:10032800500C50F1000041EB045141EA050130BD89
:100338005FEA4C0C404141EB0101013C28BFB1F59B
:10034800801FE9D291F0000F04BF01460020B1FAE6
:1003580081F308BF2033A3F10B03B3F120020CDAB9
:100368000C3208DD02F1140CC2F10C0201FA0CF097
:1003780021FA02F10CE002F11402D8BFC2F1200CFC
:1003880001FA02F120FA0CFCDCBF41EA0C019040B2
:10039800E41AA2BF01EB0451294330BD6FEA0404FB
:1003A8001F3C1CDA0C340EDC04F11404C4F12002E6
:1003B80020FA04F001FA02F340EA030021FA04F3F8
:1003C80045EA030130BDC4F10C04C4F1200220FA4F
:1003D80002F001FA04F340EA0300294630BD21FA8D
:1003E80004F0294630BD94F0000F83F4801306BF53
:1003F80081F480110134013D4EE77FEA645C18BF47
:100408007FEA655C29D094EA050F08BF90EA020FDD
:1004180005D054EA000C04BF1946104630BD91EAD5
:10042800030F1EBF0021002030BD5FEA545C05D1D8
:100438004000494128BF41F0004130BD14F5800417
:100448003CBF01F5801130BD01F0004545F0FE418B
:1004580041F470014FF0000030BD7FEA645C1ABFC0
:10046800194610467FEA655C1CBF0B46024650EAF7
:10047800013406BF52EA033591EA030F41F4002123
:1004880030BD00BF90F0000F04BF0021704730B5A9
:100498004FF4806404F132044FF000054FF000017E
:1004A80050E700BF90F0000F04BF0021704730B53F
:1004B8004FF4806404F1320410F0004548BF404214
:1004C8004FF000013EE700BF42004FEAE2014FEA69
:1004D80031014FEA02701FBF12F07F4393F07F4F44
:1004E80081F06051704732F07F4208BF704793F047
:1004F8007F4F04BF41F40021704730B54FF460745A
:1005080001F0004521F000411CE700BF50EA01025C
:1005180008BF704730B54FF000050AE050EA010205
:1005280008BF704730B511F0004502D5404261EB75
:1005380041014FF4806404F132045FEA915C3FF4B6
:10054800D8AE4FF003025FEADC0C18BF03325FEA53
:10055800DC0C18BF033202EBDC02C2F1200300FA04
:1005680003FC20FA02F001FA03FE40EA0E0021FA29
:1005780002F11444BDE600BF70B54FF0FF0C4CF417
:10058800E06C1CEA11541DBF1CEA135594EA0C0FC9
:1005980095EA0C0F00F0DEF82C4481EA030621EA04
:1005A8004C5123EA4C5350EA013518BF52EA03353F
:1005B80041F4801143F4801338D0A0FB02CE4FF0F1
:1005C8000005E1FB02E506F00042E0FB03E54FF021
:1005D8000006E1FB03569CF0000F18BF4EF0010E19
:1005E800A4F1FF04B6F5007F64F5407404D25FEA15
:1005F8004E0E6D4146EB060642EAC62141EA5551C8
:100608004FEAC52040EA5E504FEACE2EB4F1FD0C09
:1006180088BFBCF5E06F1ED8BEF1004F08BF5FEA87
:10062800500E50F1000041EB045170BD06F0004639
:1006380046EA010140EA020081EA0301B4EB5C04E6
:10064800C2BFD4EB0C0541EA045170BD41F48011DE
:100658004FF0000E013C00F3AB8014F1360FDEBF03
:10066800002001F0004170BDC4F10004203C35DADF
:100678000C341BDC04F11404C4F1200500FA05F362
:1006880020FA04F001FA05F240EA020001F0004203
:1006980021F0004110EBD37021FA04F642EB060179
:1006A8005EEA430E08BF20EAD37070BDC4F10C04A3
:1006B800C4F1200500FA04F320FA05F001FA04F267
:1006C80040EA020001F0004110EBD37041F1000153
:1006D8005EEA430E08BF20EAD37070BDC4F120055E
:1006E80000FA05F24EEA020E20FA04F301FA05F2C6
:1006F80043EA020321FA04F001F0004121FA04F26E
:1007080020EA020000EBD3705EEA430E08BF20EA3D
:10071800D37070BD94F0000F0FD101F00046400077
:1007280041EB010111F4801F08BF013CF7D041EAF9
:10073800060195F0000F18BF704703F000465200FD
:1007480043EB030313F4801F08BF013DF7D043EACE
:100758000603704794EA0C0F0CEA135518BF95EA84
:100768000C0F0CD050EA410618BF52EA4306D1D10B
:1007780081EA030101F000414FF0000070BD50EA2A
:10078800410606BF1046194652EA430619D094EAB4
:100798000C0F02D150EA013613D195EA0C0F05D19E
:1007A80052EA03361CBF104619460AD181EA0301F2
:1007B80001F0004141F0FE4141F470014FF00000AA
:1007C80070BD41F0FE4141F4780170BD70B54FF045
:1007D800FF0C4CF4E06C1CEA11541DBF1CEA1355C5
:1007E80094EA0C0F95EA0C0F00F0A7F8A4EB0504A7
:1007F80081EA030E52EA03354FEA013100F088809E
:100808004FEA03334FF0805545EA131343EA126366
:100818004FEA022245EA111545EA10654FEA00261B
:100828000EF000419D4208BF964244F1FD0404F5D4
:10083800407402D25B084FEA3202B61A65EB030530
:100848005B084FEA32024FF480104FF4002CB6EBED
:10085800020E75EB030E22BFB61A754640EA0C006D
:100868005B084FEA3202B6EB020E75EB030E22BFAD
:10087800B61A754640EA5C005B084FEA3202B6EBEE
:10088800020E75EB030E22BFB61A754640EA9C00AD
:100898005B084FEA3202B6EB020E75EB030E22BF7D
:1008A800B61A754640EADC0055EA060E18D04FEA3B
:1008B800051545EA16754FEA06164FEAC30343EADB
:1008C80052734FEAC2025FEA1C1CC0D111F4801FA8
:1008D8000BD141EA00014FF000004FF0004CB6E7A1
:1008E80011F4801F04BF01430020B4F1FD0C88BF40
:1008F800BCF5E06F3FF6AFAEB5EB030C04BFB6EB4B
:10090800020C5FEA500C50F1000041EB045170BD3D
:100918000EF0004E4EEA113114EB5C04C2BFD4EB6A
:100928000C0541EA045170BD41F480114FF0000EEE
:10093800013C90E645EA060E8DE60CEA135594EA6A
:100948000C0F08BF95EA0C0F3FF43BAF94EA0C0F6D
:100958000AD150EA01347FF434AF95EA0C0F7FF4E2
:1009680025AF104619462CE795EA0C0F06D152EA36
:1009780003353FF4FDAE1046194622E750EA41061A
:1009880018BF52EA43067FF4C5AE50EA41047FF42B
:100998000DAF52EA43057FF4EBAE12E753B94AB9FB
:1009A800002908BF00281CBF4FF0FF314FF0FF306F
:1009B80000F088B9ADF1080C6DE904CE00F006F836
:1009C800DDF804E0DDE9022304B070472DE9F047C3
:1009D800089D8E4604468846002B4AD18A4217460F
:1009E80062D9B2FA82F64EB1C6F1200301FA06F8CE
:1009F80020FA03F3B74043EA0808B4404FEA174E19
:100A08001FFA87FCB8FBFEF1230C0EFB118843EAA2
:100A1800084301FB0CF29A4209D9FB1801F1FF3097
:100A280080F0EA809A4240F2E78002393B449A1A01
:100A3800A3B2B2FBFEF00EFB102243EA024300FB16
:100A48000CFC9C4509D9FB1800F1FF3280F0D680D8
:100A58009C4540F2D3803B44023840EA0140A3EB76
:100A68000C0300211DB1F3400022C5E90032BDE8A6
:100A7800F0878B4205D90DB1C5E900010021084670
:100A8800F5E7B3FA83F1002946D1734502D38242D0
:100A980000F20581841A6EEB030201209046002DB6
:100AA800E5D0C5E90048E2E7002A00F09080B2FAF4
:100AB80082F6002E40F0A4808A1A030C4FEA174EE3
:100AC80080B2BCB20121B2FBFEFC0EFB1C2243EA41
:100AD800024304FB0CF29A4207D9FB180CF1FF38C9
:100AE80002D29A4200F2E080C4469B1AB3FBFEF29F
:100AF8000EFB123340EA034302FB04F49C4207D97D
:100B0800FB1802F1FF3002D29C4200F2CA80024672
:100B18001B1B42EA0C40A5E7C1F120068B4022FAD4
:100B280006F71F430EFA01F420FA06F32EFA06FE22
:100B38004FEA1749234300FA01F81FFA87FCBEFB66
:100B4800F9F01C0C09FB10EE44EA0E4400FB0CFE05
:100B5800A64502FA01F209D93C1900F1FF3A80F0E2
:100B68009C80A64540F2998002383C44A4EB0E04D0
:100B78001FFA83FEB4FBF9F309FB13444EEA04445D
:100B880003FB0CFCA44508D93C1903F1FF3E80F097
:100B98008280A4457FD9023B3C4443EA0040A4EB51
:100BA8000C04A0FB02EC64457346E14662D35FD0B7
:100BB8005DB1B8EB030264EB090404FA06F622FA05
:100BC80001F31E43CC40C5E9006400214FE7B1FBA7
:100BD800F2FC010C41EA0E4180B240EA01423B4678
:100BE80038463C46B846BE462026B1FBF7F1A2EB94
:100BF800080241EA0C4166E7014618E710462CE76F
:100C0800C6F120022EFA02F3B740B14020FA02F2F0
:100C18004FEA174E0A43B3FBFEF8BCB20EFB18337B
:100C2800110C41EA034108FB04F9B04089454FEA39
:100C3800104380B23ED9791808F1FF3C01D28945AA
:100C48001FD8A1EB0901B1FBFEF909FB04F80EFB63
:100C5800191192B242EA0142424529D2BA1809F161
:100C6800FF31C4D24245C2D2A9F102013A44BEE7DB
:100C7800F0459DD2BEEB02036CEB070C0138E14650
:100C880096E7A7EB09094944A8F1020CB1FBFEF964
:100C980009FB04F8DBE773467FE7504666E708463A
:100CA800FDE63B44023A33E7ACF1020C3B441CE757
:100CB80049469CE7A1EB0901C446B1FBFEF909FBD3
:100CC80004F8C4E7704700BF00B595B0342200218E
:100CD80007A800F01AFF00230293039304930593D7
:100CE80006930093214A116C41F080511164126CF3
:100CF80002F080520092009A01931D4A136823F46F
:100D0800404343F480431360136803F44043019362
:100D1800019B012307934FF48033089302230D931B
:100D28004FF480020E920F220F929022109211938C
:100D38001293139307A800F0D3FA98B90F230293DC
:100D480002230393002304934FF4A05305934FF415
:100D580080530693032102A800F07CF920B915B04E
:100D68005DF804FB72B6FEE772B6FEE70038024093
:100D7800007000400000000070B5354B9FED327BDD
:100D880083ED007B0E1E0EDD04460025284629460D
:100D9800B7EE002AF0EE0C2AB0EE043A4FF0000E3F
:100DA800B1EE004A38E00020014670BD0023181853
:100DB80041EBE3710CF1010C64452AD007EE90CAAF
:100DC800F8EEE77A87EEA35A25EE225A35EE435A13
:100DD800002AEBDD002307EE10EA07EE90EA67EE43
:100DE800A76A27EE076A76EE865AF4EEC45AF1EE41
:100DF80010FADCDC77EEA77A27EE877A37EE247ACA
:100E080076EEC66A76EE857A01339A42E7D11346C2
:100E1800CDE70135AE42C8D0002CFADD07EE905A76
:100E2800F8EEE77A07EE106AB8EEC77AC7EE874A97
:100E380074EEA44A74EEC24A4FF0000C07EE904AD2
:100E4800F8EEE73ABAE700BF000000000000000033
:100E5800980000202DE9F04F8BB000F0E3FDFFF77C
:100E680033FF002405940694079408940994029487
:100E7800574B1A6B42F004021A631A6B02F0040211
:100E88000292029A03941A6B42F080021A631A6B58
:100E980002F080020392039A04941A6B42F0020251
:100EA8001A631B6B03F002030493049B494D22460B
:100EB800FF21284600F02EFDFF230593012306930A
:100EC8000794089405A9284600F02EFC424AD2F857
:100ED800FC3043F08073C2F8FC30404B5C601A6809
:100EE80042F001021A60DFF81081DFF810B13C4FC0
:100EF8003C4E1D46DFF808A100F0BAFD4FF000098E
:100F08003060C6F804906B6800936B6858F8040B5F
:100F180064220146FFF730FFEBE8020100F0A8FD6C
:100F28000446CAF80000CAF804906868009BC01A12
:100F3800FFF7A8FACDE900012B4B1868FFF7A2FAD2
:100F480002460B46DDE90001FFF740FC274BC3E9E9
:100F580000016B6832687368A41A63EB43033C6052
:100F68007B600837224B9845C6D11A4C01220221D2
:100F7800204600F0CFFC4FF47A7000F07FFD4A461F
:100F88000121204600F0C6FC4A460221204600F016
:100F9800C1FC00F06DFD174B1860012502262A469A
:100FA8002946204600F0B6FC2A463146204600F085
:100FB800B1FC4FF47A7000F061FD0022294620460A
:100FC80000F0A8FC00223146204600F0A3FCE6E72A
:100FD800003802400004024000ED00E0001000E08C
:100FE80040000020A80000201C00002090000020E5
:100FF800140000203C0000200000002068000020B1
:10100800A0000020FEE7FEE7FEE7FEE7FEE77047E8
:101018007047704708B500F01FFD08BD82B0002179
:1010280000910B4B5A6C42F480425A645A6C02F499
:1010380080420092009A01911A6C42F080521A6420
:101048001B6C03F080530193019B02B0704700BFF3
:1010580000380240002800F09D802DE9F0410D463F
:101068000446504B1B6803F00F038B4208D2CBB2E7
:101078004C4A1370136803F00F038B4240F08C80C6
:10108800236813F0020F17D013F0040F04D0464A58
:10109800936843F4E0539360236813F0080F04D077
:1010A800414A936843F4604393603F4A936823F04E
:1010B800F003A1680B439360236813F0010F32D04B
:1010C8006268012A21D0931E012B25D9364B1B6853
:1010D80013F0020F62D034498B6823F003031343E3
:1010E8008B6000F0C5FC06462F4F41F28838BB687C
:1010F80003F00C036268B3EB820F14D000F0B8FC65
:10110800801B4045F3D9032042E0274B1B6813F4AA
:10111800003FE0D101203BE0234B1B6813F0007F28
:10112800D9D1012034E01F4B1B6803F00F03AB42F9
:1011380007D9EAB21B4B1A701B6803F00F03AB42C6
:101148002ED1236813F0040F06D0174A936823F4AE
:10115800E053E1680B439360236813F0080F07D04E
:10116800114A9368216923F4604343EAC1039360F9
:1011780000F022F80C4B9B68C3F303130B4AD35CB3
:10118800D8400B4B18600B4B186800F025FC00206A
:10119800BDE8F081012070470120F9E70120F7E759
:1011A8000120F5E7003C024000380240841B00089B
:1011B8001C0000201800002008B5464B9B6803F06F
:1011C8000C03082B07D00C2B45D04348434A042B6B
:1011D80018BF104608BD3F4B5A6802F03F025B68D3
:1011E80013F4800F12D03B4B5968C1F388113A4869
:1011F8000023A1FB0001FFF7D1FB364B5B68C3F36B
:10120800014301335B00B0FBF3F0E3E7314B58686F
:10121800C0F388104FEA401CBCEB000C6EEB0E0EBE
:101228004FEA8E1343EA9C634FEA8C11B1EB0C0131
:1012380063EB0E03DB0043EA5173C90011EB000CAA
:1012480043F10003990200234FEA8C2041EA9C51A4
:10125800FFF7A4FBD1E71F4B5A6802F03F025B6817
:1012680013F4800F10D01B4B5968C1F388111A482A
:101278000023A1FB0001FFF791FB164B5B68C3F34A
:101288000273B0FBF3F0A5E7124B5868C0F388105F
:101298004FEA401CBCEB000C6EEB0E0E4FEA8E13AF
:1012A80043EA9C634FEA8C11B1EB0C0163EB0E032C
:1012B800DB0043EA5173C90011EB000C43F1000352
:1012C800990200234FEA8C2041EA9C51FFF766FB04
:1012D800D3E700BF0038024040787D010024F400C5
:1012E800002800F004822DE9F04182B0044603682A
:1012F80013F0010F41D09A4B9B6803F00C03042BA9
:1013080032D0974B9B6803F00C03082B27D0944BE3
:101318009B6803F00C030C2B59D06368B3F5803F2E
:101328005BD0B3F5A02F5ED08D4B1A6822F48032C3
:101338001A601A6822F480221A606368002B5CD055
:1013480000F096FB0546864E336813F4003F14D12F
:1013580000F08EFB401B6428F6D90320CEE1804BB9
:101368005B6813F4800FD2D07D4B1B6813F4003FE9
:1013780003D06368002B00F0BC81236813F0020FD0
:1013880060D0774B9B6813F00C0F4AD0744B9B6866
:1013980003F00C03082B3FD0714B9B6803F00C0340
:1013A8000C2B69D0E368002B75D06E4B01221A60B4
:1013B80000F05EFB05466A4E336813F0020F61D1F8
:1013C80000F056FB401B0228F6D9032096E1644B37
:1013D8005B6813F4800FA0D0C6E7614A136843F432
:1013E80080331360A9E75E4B1A6842F480221A60C2
:1013F8001A6842F480321A609FE700F039FB05460C
:10140800574E336813F4003FB7D000F031FB401B50
:101418006428F6D9032071E1514B5B6813F4800FFF
:10142800BAD14F4B1B6813F0020F03D0E368012BAE
:1014380040F061814A4A1368216923F0F80343EABE
:10144800C1031360236813F0080F49D06369002BA8
:1014580033D0444B0122C3F8802E00F009FB054627
:101468003F4E736F13F0020F3AD100F001FB401B9F
:101478000228F6D9032041E1394B5B6813F4800F49
:1014880090D1CEE7364A1368216923F0F80343EA7E
:10149800C1031360D6E7334B00221A6000F0E8FA64
:1014A80005462F4E336813F0020FCBD000F0E0FA58
:1014B800401B0228F6D9032020E12A4B0022C3F85A
:1014C800802E00F0D5FA0546254E736F13F0020FF3
:1014D80006D000F0CDFA401B0228F6D903200DE112
:1014E800236813F0040F77D01D4B1B6C13F0805F3B
:1014F80033D1002301931A4B1A6C42F080521A64BC
:101508001B6C03F080530193019B0125164B1B684C
:1015180013F4807F2AD0A368012B3BD0052B3FD042
:101528000F4B1A6F22F001021A671A6F22F0040299
:101538001A67A368002B3DD000F09AFA0646084FB8
:1015480041F288383B6F13F0020F44D100F090FA53
:10155800801B4045F6D90320D0E00025D6E700BF20
:101568000038024000004742007000406B4A136890
:1015780043F48073136000F07BFA0646674F3B68BC
:1015880013F4807FC7D100F073FA801B0228F6D9C4
:101598000320B3E0624A136F43F001031367C8E7FF
:1015A8005F4B1A6F42F004021A671A6F42F0010289
:1015B8001A67BEE700F05CFA0646594F41F28838D0
:1015C8003B6F13F0020F06D000F052FA801B404523
:1015D800F6D9032092E0EDB9A369002B00F08D80C5
:1015E8004F4A926802F00C02082A54D0022B17D0F6
:1015F8004C4B00221A6600F03BFA0446484D2B6813
:1016080013F0007F45D000F033FA001B0228F6D90A
:10161800032073E0424A136C23F080531364DBE722
:10162800404B00221A6600F023FA05463C4E336808
:1016380013F0007F06D000F01BFA401B0228F6D9F1
:1016480003205BE0E369226A1343626A43EA821378
:10165800E26A43EA0263226B43EA0273A26A52080F
:10166800013A43EA02432E4A53602E4B01221A667E
:1016780000F0FEF904462A4D2B6813F0007F06D1CE
:1016880000F0F6F9001B0228F6D9032036E0002006
:1016980034E0002032E0012B33D0214B5B6803F4A7
:1016A8008001E26991422ED103F03F02216A8A4209
:1016B8002BD1616A47F6C0721A40B2EB811F26D15E
:1016C80003F44031A26A5208013AB1EB024F20D12B
:1016D80003F07062E16AB2EB016F1CD1226B03F078
:1016E800E043B3EB027F14BF0120002006E0012095
:1016F8007047012002E0012000E0002002B0BDE8B0
:10170800F0810120FAE70120F8E70120F6E701203F
:10171800F4E70120F2E70120F0E700BF0070004085
:1017280000380240000047422DE9F04F83B0002204
:1017380013464FF0010E03254FF00F08724C4BE093
:10174800876805FA02FA27EA0A0ACF68974047EA43
:101758000A078760476827EA0C0C4F68C7F3001729
:101768009F4047EA0C07476044E04FF0000C0CFA32
:101778000BFC4CEA0A0CC7F808C0A7686FEA090C0A
:101788004E6816F4801F0CBF0CEA070749EA0707E2
:10179800A760E7684E6816F4001F0CBF0CEA07073D
:1017A80049EA0707E76067684E6816F4003F0CBF10
:1017B8000CEA070749EA0707676027684E6816F4C6
:1017C800803F0CBF0CEA070749EA07072760013387
:1017D8000232102B00F094800EFA03FC0F680CEA1A
:1017E80007093CEA0707F2D14F6807F00307013FF2
:1017F800012FA5D94F6807F00307032F23D0C76827
:1018080005FA02FC27EA0C0C8F68974047EA0C0798
:10181800C7604F6807F00307022F14D14FEAD30CB3
:1018280000EB8C0CDCF8207003F0070B4FEA8B0BF5
:1018380008FA0BFA27EA0A0A0F6907FA0BF747EAC8
:101848000A07CCF82070076805FA02FC27EA0C0C96
:101858004F6807F00307974047EA0C0707604F688F
:1018680017F4403FB3D000270197284E776C47F410
:1018780080477764776C07F480470197019F23F0CE
:10188800030707F1804707F59C37D7F808A003F04E
:10189800030B4FEA8B0B08FA0BFC2AEA0C0AA6F595
:1018A8006056B0423FF461AF06F58066B04218D08A
:1018B80006F58066B04217D0DFF854C0604516D0F0
:1018C8000CF5806C604515D00CF5806C604514D023
:1018D8000CF5806C604514BF4FF0070C4FF0060CF8
:1018E80045E74FF0010C42E74FF0020C3FE74FF09D
:1018F800030C3CE74FF0040C39E74FF0050C36E7D2
:1019080003B0BDE8F08F00BF003C01400038024042
:10191800000C02400AB18161704709048161704777
:101928000749CA68030203F4E06322F4E062120480
:10193800120C134343F0BF6343F40033CB6070478A
:1019480000ED00E000B5184BDB68C3F30223C3F1D8
:10195800070CBCF1040F28BF4FF0040C03F1040E70
:10196800BEF1060F8CBF033B00234FF0FF3E0EFA7B
:101978000CFC21EA0C0199400EFA03FE22EA0E0241
:101988001143002809DB0901C9B200F1604000F5E4
:10199800614080F800135DF804FB00F00F000901B6
:1019A800C9B2024B1954F6E700ED00E014ED00E06F
:1019B8000138B0F1807F0BD24FF0E0235861054A1F
:1019C800F02182F823100020986107221A617047DD
:1019D8000120704700ED00E010B504460E4B1A7860
:1019E8004FF47A73B3FBF2F30C4A1068B0FBF3F0D0
:1019F800FFF7DEFF68B90F2C01D901200AE00022A9
:101A080021464FF0FF30FFF79DFF054B1C6000207B
:101A180000E0012010BD00BF140000201C000020C1
:101A28001800002008B50B4B1A6842F400721A60BF
:101A38001A6842F480621A601A6842F480721A6066
:101A48000320FFF76DFF0F20FFF7C6FFFFF7E6FA49
:101A5800002008BD003C0240034A1168034B1B7874
:101A68000B441360704700BFB00000201400002032
:101A7800014B1868704700BFB000002038B5044615
:101A8800FFF7F6FF0546B4F1FF3F02D0044B1B7881
:101A98001C44FFF7EDFF401BA042FAD338BD00BF3E
:101AA80014000020034AD2F8883043F47003C2F8C7
:101AB8008830704700ED00E0DFF834D0FFF7F2FF20
:101AC8000C480D490D4A002302E0D458C450043391
:101AD800C4188C42F9D30A4A0A4C002301E0136067
:101AE8000432A242FBD300F019F8FFF7B3F97047AC
:101AF800000002200000002020000020A41B000895
:101B080020000020B4000020FEE702440346934270
:101B180000D1704703F8011BF9E7000070B50D4DBF
:101B28000D4C641BA4100026A64209D10B4D0C4C89
:101B380000F018F8641BA4100026A64205D170BD59
:101B480055F8043B98470136EEE755F8043B9847AB
:101B58000136F2E79C1B00089C1B00089C1B000830
:101B6800A01B0008F8B500BFF8BC08BC9E4670472B
:0C1B7800F8B500BFF8BC08BC9E467047E2
:101B84000000000000000000010203040607080929
:081B940040EEFF7F010000009C
:041B9C00ED0100084F
:041BA000C90100086F
:101BA40080000000A0000000C0000000E000000071
:101BB4000001000001000000100000000024F400F7
:0400000508001AC114
:00000001FF
