:020000040800F2
:10000000000002203D14000881090008830900084F
:100010008509000887090008890900080000000018
:100020000000000000000000000000008B09000834
:100030008D090008000000008F09000891090008E0
:100040008D1400088D1400088D1400088D1400080C
:100050008D1400088D1400088D1400088D140008FC
:100060008D1400088D1400088D1400088D140008EC
:100070008D1400088D1400088D1400088D140008DC
:100080008D1400088D1400088D1400088D140008CC
:100090008D1400088D1400088D1400088D140008BC
:1000A0008D1400088D1400088D1400088D140008AC
:1000B0008D1400088D1400088D1400088D1400089C
:1000C0008D1400088D1400088D1400088D1400088C
:1000D0008D1400088D1400088D1400088D1400087C
:1000E0008D1400088D1400088D1400088D1400086C
:1000F0008D1400088D1400088D1400088D1400085C
:100100008D1400088D1400088D1400088D1400084B
:100110008D1400088D1400088D1400088D1400083B
:100120008D1400088D1400088D1400088D1400082B
:100130008D14000800000000000000008D1400086D
:100140008D1400088D1400088D1400088D1400080B
:100150008D1400088D1400088D1400088D140008FB
:100160008D1400088D1400088D1400088D140008EB
:100170008D1400088D1400088D1400080000000084
:10018000000000008D1400080000000000000000C6
:100190008D14000800000000000000008D1400080D
:1001A0000000000000000000000000008D140008A6
:1001B0008D1400088D1400088D1400088D1400089B
:0401C0008D14000892
:1001C40010B5054C237833B9044B13B10448AFF38D
:1001D40000800123237010BD3000002000000000C7
:1001E400E814000808B5034B1BB103490348AFF3F7
:1001F400008008BD0000000034000020E81400085E
:100204007BB972B90029BEBF00204FF0004106E05F
:1002140008BF00281CBF6FF000414FF0FF3000F012
:10022400D3B9ADF1080C6DE904CE002909DB002B2C
:100234001ADB00F04DF8DDF804E0DDE9022304B038
:100244007047404261EB4101002B1BDB00F040F89A
:10025400DDF804E0DDE9022304B0404261EB410132
:10026400524263EB43037047524263EB430300F093
:100274002FF8DDF804E0DDE9022304B0404261EB2D
:1002840041017047524263EB430300F021F8DDF86B
:1002940004E0DDE9022304B0524263EB43037047F8
:1002A40053B94AB9002908BF00281CBF4FF0FF31D9
:1002B4004FF0FF3000F088B9ADF1080C6DE904CEC1
:1002C40000F006F8DDF804E0DDE9022304B070472D
:1002D4002DE9F047089D8E4604468846002B4AD1F6
:1002E4008A42174662D9B2FA82F64EB1C6F12003A9
:1002F40001FA06F820FA03F3B74043EA0808B440C9
:100304004FEA174E1FFA87FCB8FBFEF1230C0EFBD5
:10031400118843EA084301FB0CF29A4209D9FB18FD
:1003240001F1FF3080F0EA809A4240F2E78002391E
:100334003B449A1AA3B2B2FBFEF00EFB102243EA2E
:10034400024300FB0CFC9C4509D9FB1800F1FF3269
:1003540080F0D6809C4540F2D3803B44023840EA8A
:100364000140A3EB0C0300211DB1F3400022C5E9B9
:100374000032BDE8F0878B4205D90DB1C5E9000113
:1003840000210846F5E7B3FA83F1002946D1734505
:1003940002D3824200F20581841A6EEB030201202B
:1003A4009046002DE5D0C5E90048E2E7002A00F0B8
:1003B4009080B2FA82F6002E40F0A4808A1A030CD0
:1003C4004FEA174E80B2BCB20121B2FBFEFC0EFB19
:1003D4001C2243EA024304FB0CF29A4207D9FB189D
:1003E4000CF1FF3802D29A4200F2E080C4469B1A14
:1003F400B3FBFEF20EFB123340EA034302FB04F4A8
:100404009C4207D9FB1802F1FF3002D29C4200F251
:10041400CA8002461B1B42EA0C40A5E7C1F1200634
:100424008B4022FA06F71F430EFA01F420FA06F372
:100434002EFA06FE4FEA1749234300FA01F81FFA81
:1004440087FCBEFBF9F01C0C09FB10EE44EA0E44D9
:1004540000FB0CFEA64502FA01F209D93C1900F191
:10046400FF3A80F09C80A64540F2998002383C44D3
:10047400A4EB0E041FFA83FEB4FBF9F309FB134447
:100484004EEA044403FB0CFCA44508D93C1903F1CF
:10049400FF3E80F08280A4457FD9023B3C4443EA7E
:1004A4000040A4EB0C04A0FB02EC64457346E14657
:1004B40062D35FD05DB1B8EB030264EB090404FAC4
:1004C40006F622FA01F31E43CC40C5E9006400217C
:1004D4004FE7B1FBF2FC010C41EA0E4180B240EA65
:1004E40001423B4638463C46B846BE462026B1FB50
:1004F400F7F1A2EB080241EA0C4166E7014618E76E
:1005040010462CE7C6F120022EFA02F3B740B140A0
:1005140020FA02F24FEA174E0A43B3FBFEF8BCB2CC
:100524000EFB1833110C41EA034108FB04F9B040F7
:1005340089454FEA104380B23ED9791808F1FF3C4F
:1005440001D289451FD8A1EB0901B1FBFEF909FBD2
:1005540004F80EFB191192B242EA0142424529D233
:10056400BA1809F1FF31C4D24245C2D2A9F102013D
:100574003A44BEE7F0459DD2BEEB02036CEB070C98
:100584000138E14696E7A7EB09094944A8F1020CB2
:10059400B1FBFEF909FB04F8DBE773467FE750463D
:1005A40066E70846FDE63B44023A33E7ACF1020C49
:1005B4003B441CE749469CE7A1EB0901C446B1FB57
:1005C400FEF909FB04F8C4E7704700BF30B589B0F1
:1005D4000024039404940594069407940094184BFF
:1005E4001A6B42F004021A631A6B02F004020092BE
:1005F400009A01941A6B42F080021A631A6B02F09B
:1006040080020192019A02941A6B42F002021A6368
:100614001B6B03F002030293029B0A4D2246FF2147
:10062400284600F029FEFF23039301230493059435
:10063400069403A9284600F02FFD09B030BD00BF81
:1006440000380240000402402DE9F04F8DB0074607
:100654000D4601929B4601269E40052303FA0BF3A7
:100664005B08C3F10009734202930024710FF30085
:10067400981B4FEA470247F3807361F10001FFF7CB
:10068400BFFD8046B01944EB04012A46EB17FFF77F
:10069400B7FD042303FA0BFA2346CDF82890CDF8CE
:1006A4001C800B90069709950394264688E0029BCC
:1006B4001D440137019B9F4267DA4FEAE1780846FF
:1006C40001FB08F3A1FB012101EB43010BF1FF3C0A
:1006D400012404FA0CF44FEAE4792346121941EB9D
:1006E400E471CBF12004BBF1200622FA0BF201FAEB
:1006F40004F442EA040202D441FA06F63243EC1747
:100704002E4604FB05F5A6FB06E101EB450113EBC0
:100714000E0349EB0101CBF12005BBF1200E23FAB6
:100724000BF301FA05F543EA050303D441FA0EFE7F
:1007340043EA0E03D91713EB020E41EBE2714FEAC1
:10074400EA75F2458D4120DBD21A009BD11800FBDB
:1007540004F406FB0844A0FB06500444ABF1020376
:10076400012202FA03F3ED1844EBE373CCF1200207
:10077400BCF1200025FA0CF503FA02F245EA020561
:1007840095D443FA00F0054391E7049A059E039B30
:10079400F918039146EBE776009B07990B44009305
:1007A4000132069B9A4205DA00273D4639460492F7
:1007B40005967FE7089B029A0B990A44029201333B
:1007C400099A934204DA0A9A009200220893E8E70D
:1007D400039831460DB0BDE8F08F00002DE9F041DB
:1007E400002536E000F004FE4FF000081C4F38608E
:1007F400C7F804801B4B53F824001B4B53F82530D7
:1008040064220146FFF720FF184EC6E9000100F0FC
:10081400EFFD174B1860C3F804803B687A68C01A70
:1008240062EB4202134B18605A60134905EB8503CF
:10083400234401EBC30741F833007A600F4A02EB0B
:10084400C303D6E90001C3E900010134042CC9DD66
:100854000135022D01DC0024F8E7BDE8F08100BF7A
:10086400580100200C000020000000204801002056
:10087400500100204001002050000020C80000204A
:1008840072B6FEE700B595B03422002107A800F047
:10089400FCFD0023029303930493059306930093B2
:1008A400214A116C41F080511164126C02F08052A3
:1008B4000092009A01931D4A136823F4404343F4C1
:1008C40080431360136803F440430193019B0123A5
:1008D40007934FF48033089302230D934FF480025F
:1008E4000E920F220F92902210921193129313934F
:1008F40007A800F0AFF998B90F23029302230393DA
:10090400002304934FF4A05305934FF480530693AC
:10091400032102A800F05AF820B915B05DF804FBD1
:10092400FFF7AEFFFFF7ACFF003802400070004055
:1009340008B500F037FDFFF7A5FFFFF747FE0E4CA3
:1009440001221146204600F097FCFFF747FF0122E1
:100954000221204600F090FC4FF47A7000F04EFD26
:1009640000220121204600F087FC002202212046BB
:1009740000F082FCFEE700BF00040240FEE7FEE751
:10098400FEE7FEE7FEE770477047704708B500F0E2
:1009940023FD08BD82B0002100910B4B5A6C42F438
:1009A40080425A645A6C02F480420092009A019187
:1009B4001A6C42F080521A641B6C03F0805301934A
:1009C400019B02B0704700BF00380240002800F0CD
:1009D4009B8070B50D4604464F4B1B6803F00F0314
:1009E4008B4208D2CBB24C4A1370136803F00F0346
:1009F4008B4240F08B80236813F0020F17D013F062
:100A0400040F04D0454A936843F4E0539360236889
:100A140013F0080F04D0414A936843F46043936091
:100A24003E4A936823F0F003A1680B439360236864
:100A340013F0010F32D06368012B21D09A1E012AD2
:100A440025D9364A126812F0020F61D033498A68F8
:100A540022F0030213438B6000F0CAFC06462F4BBE
:100A64009B6803F00C036268B3EB820F16D000F0AE
:100A7400BFFC801B41F288339842F0D9032042E046
:100A8400264A126812F4003FE0D101203BE0234AD9
:100A9400126812F0007FD9D1012034E01E4B1B688C
:100AA40003F00F03AB4207D9EAB21B4B1A701B6861
:100AB40003F00F03AB422DD1236813F0040F06D0CB
:100AC400164A936823F4E053E1680B439360236868
:100AD40013F0080F07D0114A936823F46043216987
:100AE40043EAC103936000F021F80C4B9B68C3F305
:100AF40003130B4AD35CD8400A4B18600A4B18689E
:100B040000F02AFC002070BD012070470120FAE7A4
:100B14000120F8E70120F6E7003C024000380240DB
:100B240000150008280000202400002008B5464BCA
:100B34009B6803F00C03082B05D00C2B43D0042B2B
:100B44007FD1424819E0404B5A6802F03F025B688B
:100B540013F4800F12D03C4B5968C1F388113B4801
:100B64000023A1FB0001FFF79BFB374B5B68C3F33A
:100B7400014301335B00B0FBF3F008BD324B58680E
:100B8400C0F388104FEA401CBCEB000C6EEB0E0E59
:100B94004FEA8E1343EA9C634FEA8C11B1EB0C01CC
:100BA40063EB0E03DB0043EA5173C90011EB000C45
:100BB40043F10003990200234FEA8C2041EA9C513F
:100BC400FFF76EFBD1E7204B5A6802F03F025B68E7
:100BD40013F4800F10D01C4B5968C1F388111B48C3
:100BE4000023A1FB0001FFF75BFB174B5B68C3F31A
:100BF4000273B0FBF3F0C0E7134B5868C0F38810DE
:100C04004FEA401CBCEB000C6EEB0E0E4FEA8E1349
:100C140043EA9C634FEA8C11B1EB0C0163EB0E03C6
:100C2400DB0043EA5173C90011EB000C43F10003EC
:100C3400990200234FEA8C2041EA9C51FFF730FBD4
:100C4400D3E7034899E700BF0038024040787D01AC
:100C54000024F400002800F0018270B582B004463C
:100C6400036813F0010F41D0994B9B6803F00C0308
:100C7400042B32D0964B9B6803F00C03082B27D02F
:100C8400934B9B6803F00C030C2B59D06368B3F5AA
:100C9400803F5BD0B3F5A02F5ED08D4B1A6822F451
:100CA40080321A601A6822F480221A606368002B6A
:100CB4005CD000F09DFB0546854B1B6813F4003F98
:100CC40014D100F095FB401B6428F5D90320CCE136
:100CD4007F4B5B6813F4800FD2D07D4B1B6813F4F9
:100CE400003F03D06368002B00F0BA81236813F03F
:100CF400020F60D0764B9B6813F00C0F4AD0744BF4
:100D04009B6803F00C03082B3FD0714B9B6803F0E6
:100D14000C030C2B69D0E368002B75D06D4B0122BA
:100D24001A6000F065FB0546694B1B6813F0020F5F
:100D340061D100F05DFB401B0228F5D9032094E14A
:100D4400634B5B6813F4800FA0D0C6E7604A136856
:100D540043F480331360A9E75D4B1A6842F48022A0
:100D64001A601A6842F480321A609FE700F040FB70
:100D74000546574B1B6813F4003FB7D000F038FB0F
:100D8400401B6428F5D903206FE1514B5B6813F4D1
:100D9400800FBAD14E4B1B6813F0020F03D0E368E7
:100DA400012B40F05F814A4A136823F0F80321695C
:100DB40043EAC1031360236813F0080F49D0636941
:100DC400002B33D0434B0122C3F8802E00F010FBDC
:100DD40005463F4B5B6F13F0020F3AD100F008FB5E
:100DE400401B0228F5D903203FE1394B5B6813F41B
:100DF400800F90D1CEE7364A136823F0F8032169B7
:100E040043EAC1031360D6E7324B00221A6000F0B4
:100E1400EFFA05462E4B1B6813F0020FCBD000F0FF
:100E2400E7FA401B0228F5D903201EE1294B0022D2
:100E3400C3F8802E00F0DCFA0546254B5B6F13F0F7
:100E4400020F06D000F0D4FA401B0228F5D9032083
:100E54000BE1236813F0040F76D01D4B1B6C13F0C9
:100E6400805F33D100230193194B1A6C42F08052F6
:100E74001A641B6C03F080530193019B0125164BEC
:100E84001B6813F4807F29D0A368012B3AD0052B6B
:100E94003ED00F4B1A6F22F001021A671A6F22F02C
:100EA40004021A67A368002B3CD000F0A1FA06469E
:100EB400074B1B6F13F0020F45D100F099FA801B0A
:100EC40041F288339842F3D90320CEE00025D6E7D7
:100ED4000038024000004742007000406B4A13682B
:100EE40043F48073136000F083FA0646674B1B6873
:100EF40013F4807FC8D100F07BFA801B0228F5D957
:100F04000320B2E0624A136F43F001031367C9E799
:100F14005F4B1A6F42F004021A671A6F42F0010223
:100F24001A67BFE700F064FA0646594B1B6F13F0CB
:100F3400020F08D000F05CFA801B41F2883398421B
:100F4400F3D9032091E0EDB9A369002B00F08C8064
:100F54004F4A926802F00C02082A54D0022B17D090
:100F64004C4B00221A6600F043FA0446484B1B68B7
:100F740013F0007F45D000F03BFA001B0228F5D99E
:100F8400032072E0424A136C23F080531364DBE7BE
:100F9400404B00221A6600F02BFA05463C4B1B68B6
:100FA40013F0007F06D000F023FA401B0228F5D985
:100FB40003205AE0E369226A1343626A43EA821314
:100FC400A26A5208013A43EA0243E26A43EA02632C
:100FD400226B43EA02732E4A53602E4B01221A6697
:100FE40000F006FA04462A4B1B6813F0007F06D172
:100FF40000F0FEF9001B0228F5D9032035E000209B
:1010040033E0002031E0012B31D0214B5B6803F445
:101014008001E26991422CD103F03F02216A8A42A5
:1010240029D1616A47F6C0721A40B2EB811F24D1FC
:1010340003F44031A26A5208013AB1EB024F1ED1C7
:1010440003F07062E16AB2EB016F1AD103F0E0437E
:10105400226BB3EB027F16D1002006E0012070471B
:10106400012002E0012000E0002002B070BD012058
:10107400FBE70120F9E70120F7E70120F5E701206C
:10108400F3E70120F1E70120EFE700BF0070004023
:10109400003802400000474200230F2B00F2E38097
:1010A40070B582B065E085684FEA430E032404FA04
:1010B4000EF425EA0405CC6804FA0EF42C4384608B
:1010C400446824EA02044A68C2F300129A402243A4
:1010D40042605CE0DC08083450F8242003F0070583
:1010E400AD004FF00F0E0EFA05FE22EA0E0E0A694D
:1010F400AA4042EA0E0240F824205CE0062200E006
:10110400002202FA0EF22A430234574D45F82420F5
:10111400564A94686FEA0C0224EA0C054E6816F4E9
:10112400801F01D04CEA0405504CA560E46802EA33
:1011340004054E6816F4001F01D04CEA04054B4C1C
:10114400E560646802EA04054E6816F4003F01D0C5
:101154004CEA0405454C6560246822404D6815F44A
:10116400803F01D04CEA0402404C226001330F2B33
:1011740077D801229A400C6804EA020C32EA04048B
:10118400F4D14C6804F00304013C012C8BD94A6867
:1011940002F00302032A09D0C4685D000322AA40B6
:1011A40024EA02048A68AA402243C2604A6802F020
:1011B4000302022A8ED004684FEA430E032202FA85
:1011C4000EF224EA02044A6802F0030202FA0EF262
:1011D400224302604A6812F4403FC7D000220192C1
:1011E400234A546C44F480445464526C02F48042A4
:1011F4000192019A9C08A51C1B4A52F8255003F041
:10120400030E4FEA8E0E0F2202FA0EF225EA0205B1
:10121400184A90423FF474AF02F58062904216D0AF
:1012240002F58062904214D002F58062904212D09E
:1012340002F58062904210D002F5806290420ED096
:1012440002F5806290423FF459AF072259E7012228
:1012540057E7022255E7032253E7042251E7052208
:101264004FE702B070BD704700380140003C0140B8
:1012740000380240000002400AB18161704709044D
:1012840081617047002808DB0901C9B200F16040A0
:1012940000F5614080F80013704700F00F00090169
:1012A400C9B2014B1954704714ED00E000B500F0C9
:1012B4000700C0F1070CBCF1040F28BF4FF0040C69
:1012C400031D062B0FD9C31E4FF0FF3E0EFA0CF080
:1012D40021EA000199400EFA03FE22EA0E0241EAD5
:1012E40002005DF804FB0023EEE70000074AD36820
:1012F40023F4E0631B041B0C000200F4E0600343CE
:1013040043F0BF6343F40033D360704700ED00E063
:1013140010B50446054BD868C0F30220FFF7C6FF9A
:1013240001462046FFF7AEFF10BD00BF00ED00E010
:101334000138B0F1807F0BD24FF0E0235861054AA9
:10134400F02182F823100020986107221A61704767
:101354000120704700ED00E010B504460E4B1A78EA
:101364004FF47A73B3FBF2F30C4A1068B0FBF3F05A
:10137400FFF7DEFF68B90F2C01D901200AE0002233
:1013840021464FF0FF30FFF7C3FF054B1C600020E0
:1013940000E0012010BD00BF200000202800002034
:1013A4002400002008B50B4B1A6842F400721A603E
:1013B4001A6842F480621A601A6842F480721A60F1
:1013C4000320FFF793FF0F20FFF7C6FFFFF7E2FAB2
:1013D400002008BD003C0240034A1168034B1B78FF
:1013E4000B441360704700BF600100202000002000
:1013F400014B1868704700BF6001002038B50446EF
:10140400FFF7F6FF0546B4F1FF3F02D0044B1B780B
:101414001C44FFF7EDFF401BA042FAD338BD00BFC8
:1014240020000020034AD2F8883043F47003C2F845
:101434008830704700ED00E0DFF834D0FFF7F2FFAA
:101444000C480D490D4A002302E0D458C45004331B
:10145400C4188C42F9D30A4A0A4C002301E01360F1
:101464000432A242FBD300F019F8FFF761FA704787
:1014740000000220000000202C000020201500089D
:101484003000002064010020FEE70244034693423A
:1014940000D1704703F8011BF9E7000070B50D4D4A
:1014A4000D4C641BA4100026A64209D10B4D0C4C14
:1014B40000F018F8641BA4100026A64205D170BDE4
:1014C40055F8043B98470136EEE755F8043B984736
:1014D4000136F2E718150008181500081815000859
:1014E4001C150008F8B500BFF8BC08BC9E46704740
:0C14F400F8B500BFF8BC08BC9E4670476D
:1015000000000000000000000102030406070809B3
:08151000C4EDFF7F01000000A3
:04151800E9010008DD
:04151C00C5010008FD
:101520000A0000000D000000140000008000000010
:10153000A0000000C0000000E0000000000100006A
:0C15400001000000100000000024F40076
:040000050800143D9E
:00000001FF
