:020000040800F2
:1000000000200020A513000861080008650800080A
:1000100000000000000000000000000000000000E0
:100020000000000000000000000000006908000857
:1000300000000000000000006D08000871080008C2
:10004000F5130008F5130008F5130008F513000870
:10005000F5130008F5130008F5130008F513000860
:10006000F5130008F5130008F5130008F513000850
:10007000F5130008F5130008F5130008F513000840
:10008000F5130008F513000800000000F513000840
:10009000F5130008F5130008F5130008F513000820
:1000A000F5130008F5130008F5130008F513000810
:1000B000F513000800000000F51300080000000020
:1000C00010B5064C2378002B07D1054B002B02D02E
:1000D000044800E000BF0123237010BD2000002071
:1000E0000000000050140008044B10B5002B03D092
:1000F0000349044800E000BF10BDC04600000000F6
:100100002400002050140008002243088B4274D3BE
:1001100003098B425FD3030A8B4244D3030B8B4208
:1001200028D3030C8B420DD3FF22090212BA030C11
:100130008B4202D31212090265D0030B8B4219D3F2
:1001400000E0090AC30B8B4201D3CB03C01A524112
:10015000830B8B4201D38B03C01A5241430B8B425A
:1001600001D34B03C01A5241030B8B4201D30B0343
:10017000C01A5241C30A8B4201D3CB02C01A52416A
:10018000830A8B4201D38B02C01A5241430A8B422D
:1001900001D34B02C01A5241030A8B4201D30B0216
:1001A000C01A5241CDD2C3098B4201D3CB01C01A30
:1001B000524183098B4201D38B01C01A524143093A
:1001C0008B4201D34B01C01A524103098B4201D328
:1001D0000B01C01A5241C3088B4201D3CB00C01A95
:1001E000524183088B4201D38B00C01A524143080D
:1001F0008B4201D34B00C01A5241411A00D2014632
:10020000524110467047FFE701B5002000F006F8A4
:1002100002BDC0460029F7D076E770477047C04658
:10022000002B15D1002A13D1002906DB01DC0028A0
:1002300006D00020C043410802E0802109060020CA
:1002400007B4024801A14018029003BDD1FFFFFF8F
:1002500003B4684601B5029800F034F8019B9E464D
:1002600002B00CBC7047C046F0B5CE469946030CB0
:100270009C46130447461B0C1D000E0061460404F7
:10028000240C80B50700100C4B4365434143604389
:100290002C0CC01824188C46A34203D980235B027F
:1002A0009846C444494679435643230C2D042D0CEB
:1002B0008919634424046019C918C0BCB946B04602
:1002C000F0BDC046F8B5CE46474680B59146984643
:1002D00004000D0000F032F807000E0002000B00D1
:1002E00048464146FFF7C0FF241A8D41089B38005D
:1002F00031001C605D60C0BCB946B046F8BDC04668
:100300001C2101231B04984201D3000C10391B0A45
:10031000984201D3000A08391B09984201D3000909
:10032000043902A2105C40187047C0460403020260
:10033000010101010000000000000000F0B54F467F
:100340004646D646C0B506000F001000190082B020
:10035000002F5DDB34003D00002B0BDB16001F007F
:10036000AB4217D90020002102B0E0BCBA46B1462A
:10037000A846F0BD002746428F41AF42F2D800D1D7
:10038000A0E001235B42994609E0002746428F41E5
:10039000AF42E7D8AF4200D190E000239946390040
:1003A000300000F0B7F880462900200000F0B2F8D5
:1003B00043461B1A9846203B75D4310099409A4613
:1003C0000B003100404681400A00AB422ED82BD0B2
:1003D0005146A41A9D41002900DA90E00021002036
:1003E00001260090019151468E400196414601261A
:1003F0008E404146009600291FD1009801994B4636
:10040000002BB1D003000C0000215842A141ABE702
:1004100000257442BD41002BB7DB16001F00AB4224
:10042000A0D8AF42ADD14DE0A142D1D900210020EA
:100430000090019141460029DFD0D90756085F0896
:100440000E4343460EE0AF4201D1A6420CD8A41B96
:10045000BD41012124196D410022013B6418554121
:10046000002B06D0AF42EED9013B24196D41002B81
:10047000F8D1009A019B514612196B41002925DBE6
:100480002E002C00CE404146CC40514600292DDBA9
:1004900034008C4021004446A6403000121A8B41A3
:1004A00000920193A9E7424638009A462023310082
:1004B00090409B1AD94003000B4382E7A64200D923
:1004C00050E76AE7A64200D85BE74BE740462021A9
:1004D000091A28008840260001004046C6402C002A
:1004E0000E434146CC4051460029D1DA40462021F6
:1004F00035008440091ACD4021002943CBE741460D
:1005000020260127761A00200021F7400090019153
:1005100001976BE710B5002903D1FFF7F1FE2030FA
:1005200002E00800FFF7ECFE10BDC04600B591B038
:100530002C22002105A800F05EFF10220021684651
:1005400000F059FF0223012204930C93A023079289
:100550009B030F3204A808920E9300F0A5F900281F
:1005600001D072B6FEE70722022300920193002217
:100570000023012168460292039300F0EDFB00285E
:1005800001D072B6FEE711B000BDC046F0B5DE4640
:1005900057464E464546E0B5A3B000F0B3FCFFF722
:1005A000C5FF142200211CA800F025FF8021A14BCB
:1005B000C9035A69A0480A435A615A6980260A4009
:1005C00080211992199A5A69C9020A435A615A69D3
:1005D00000270A4080211A921A9A5A6989020A430E
:1005E0005A615B6900220B401B93FF211B9B00F0AB
:1005F0008DFEFF2201231C921D93002300228E48B2
:100600001CA91E921F9300F0B1FC8C4B36029B4636
:100610008B4B9846C246D8468A4B15938A4B139308
:100620008A4B14930122834B8024D96900251143FE
:10063000D961DB69E40513401C931C9B01235B42D9
:10064000A562E362656223681343236000F076FCD1
:10065000534621C3636A4346E0201C6800216200C0
:10066000D317C0020D94FFF7DBFD0E908020E31737
:10067000220000218002FFF7D3FD0023002C00DCC4
:10068000D4E0002499460A930B94029C039D704B7E
:1006900012900793434616934B460F935346179376
:1006A00000230C936B4B0693002300209846994639
:1006B0009A469B46029305932BE04B46DB174A462E
:1006C000484619009B46FFF7CFFD801979410B047E
:1006D000000C0343CA4699464346DB1742461900BD
:1006E00040460593FFF7C0FD02000B0092197B41C5
:1006F0004C461804120C1043C317E51700900193E1
:10070000009A019B12196B41002B00DD89E000D19A
:1007100082E04B46181A069B424699465946059B6D
:1007200081445046FFF7A0FD80220023D2018018AB
:1007300059414B04C00B1843079B9846029B8044C9
:1007400001330293642BB8D16422002308920993E9
:100750000A9A0B9B0898099912184B410A920B931D
:100760000E9A069B9446634406930C9B0D9A0133A4
:100770000C939A4298D1129A079B9446634407932C
:100780000F9B0D9A01330F939A4289D1169B0294C5
:1007900003959846179B9A460A9B0B9C159A1360E3
:1007A000546000F0CBFB00231193139B1090109822
:1007B0001199186059608023DB055B6A53461A68FB
:1007C0005B68801A99410B00020014990A604B6023
:1007D00004239C46204BE044984500D022E700F0DB
:1007E000ADFB1E4B186001220121134800F08EFD65
:1007F00001220221104800F089FDFA20800000F05B
:10080000A3FB002201210C4800F080FD0022022100
:10081000094800F07BFDE6E78021C9028A4200D842
:1008200077E7029B0893DB17099391E700240A936B
:100830000B94B1E7001002400004004800000020C3
:1008400058000020480000205000002040000020F8
:100850000000FFFF0080FDFF140000203C0000208E
:10086000FEE7C046FEE7C0467047C0467047C04638
:1008700010B500F057FB10BD01220A4B82B09969F8
:100880001143996199690A4080210092009ADA69BE
:1008900049050A43DA61DB690B400193019B02B011
:1008A0007047C04600100240F0B5CE46474680B5BE
:1008B000040083B0002800D1F2E00368DA0735D5E0
:1008C0000C21C34842680A40042A00D101E1426871
:1008D0001140082900D1F8E06368012B0FD0002BEC
:1008E00000D11EE1052B00D1A7E1B94BB9491A6827
:1008F0000A401A601A68B8490A401A6005E0802365
:10090000B34A5B0211680B43136000F017FB8026AB
:100910000500AF4FB60205E000F010FB401B642855
:1009200000D9FCE03B683342F6D023689A0729D50A
:100930000C22A7494868024200D1AAE04868024058
:10094000082A00D1A1E0E368A14D002B00D11FE1EE
:1009500001222B68022713432B6000F0EFFA0600F8
:1009600005E000F0EBFA801B022800D9D7E02B68E5
:100970001F42F6D0F8212A6823698A43DB0013431B
:100980002B6023681A072DD45A0744D580220020F3
:100990008F4B5205D9698146114208D1D96911435B
:1009A000D961DB6913400193019B0123994680279C
:1009B0008A4E7F0033683B4200D194E0A368012B4C
:1009C00000D1F8E0002B00D1C4E0052B00D140E1BC
:1009D00001217F4B1A6A8A431A621A6A03318A43D9
:1009E0001A62ECE0E3697A4D002B5BD001226B6A5E
:1009F000022713436B6200F0A1FA060005E000F045
:100A00009DFA801B022800D989E06B6A1F42F6D04C
:100A100023685A07BAD4DB0612D56369012B00D1CB
:100A20003CE1053300D0E9E00421F820684A536B2B
:100A30008B435363516BA3698143DB000B435363C7
:100A4000236A002B1BD00C22614D69680A40082ADA
:100A500000D108E1022B00D13EE12B68604A8026DC
:100A600013402B6000F06AFAB604040004E000F0C2
:100A700065FA001B022852D82B683342F7D10020B8
:100A800003B0C0BCB946B046F0BD4A68D20300D539
:100A900059E74F4A1268920735D5E268012A32D0E9
:100AA0000120EDE701226B6A022793436B6200F09D
:100AB00045FA060004E000F041FA801B02282ED817
:100AC0006B6A1F42F7D12368A3E74268D20300D4C0
:100AD00002E73F4A1268920300D427E76268002ABF
:100AE00000D023E7DCE733683B43336000F026FAAD
:100AF000050004E000F022FA401B64280FD8336898
:100B00003B42F7D05AE7F825314822690168D20004
:100B1000A9430A4302601A0700D435E762E70320BD
:100B2000AEE72B4D2B4A2B68802713402B602B6898
:100B3000294ABF0213402B6000F000FA060004E0CF
:100B400000F0FCF9801B6428E9D82B683B42F7D100
:100B50002368EBE601221E4E224D336A9343336233
:100B6000336A03329343336200F0E8F9022307004B
:100B7000984604E000F0E2F9C01BA842CFD84246F4
:100B8000336A1A42F6D14B46012B4FD0236842E715
:100B900001222B68022793432B6000F0CFF9060057
:100BA00004E000F0CBF9801B0228B8D82B681F4264
:100BB000F7D12368E6E606490A6A13430B6200F0A0
:100BC000BDF9034B060098460227064D11E0C046CA
:100BD00000100240FFFFFEFFFFFFFBFF0070004020
:100BE000FFFFFFFE8813000000F0A8F9801BA84259
:100BF00095D843461B6A1F42F6D0C4E70422524DE3
:100C000002276B6B13436B636B6B033A93436B630A
:100C100000F094F9060005E000F090F9801B02282E
:100C200000D97CE76B6B1F42F6D109E7464A47497A
:100C3000D3690B40D3612368EDE68022424BD20298
:100C400019680A431A608022196852020A431A601E
:100C50005BE604213C4B1A6A0A431A621A6A03399A
:100C60000A431A62ABE7012B00D119E780226B68B7
:100C7000616A5202E86A1A408A4200D010E70F22E5
:100C8000E16A02408A4200D00AE7F022A06A920399
:100C90001340181A431E9841C0B2F1E604212A4DB0
:100CA00002276A6B0A436A636A6B13436B6300F043
:100CB00045F9060005E000F041F9801B022800D943
:100CC0002DE76B6B1F42F6D0F8216A6BA3698A434C
:100CD000DB0013436B63B3E62B681D4A8027134088
:100CE0002B6000F02BF9BF04060005E000F026F9A8
:100CF000801B022800D912E72B683B42F6D10F2255
:100D0000EB6A114E9343E26A1343EB62616AA36A92
:100D10006A680B430F490A4013436B6080232A68BB
:100D20005B0413432B6000F009F980250400AD0437
:100D300005E000F003F9001B022800D9EFE6336854
:100D40002B42F6D09BE6C04600100240FFFFFFEFAB
:100D5000FFFFFFFEFFFFC2FFF8B5CE464746040087
:100D60000D0080B500280DD001234A490A681A40B9
:100D7000AA420CD20A689A432A430A600A681340BE
:100D8000AB4204D00120C0BCB946B046F8BD2368D0
:100D90009A070ED55A0705D5E0223F49D200486888
:100DA00002434A60F0203C494A688243A0680243FB
:100DB0004A60DB0722D5384B62681B68012A5BD08A
:100DC000022A56D09B07DDD50321334E73688B432F
:100DD0001343736000F0B2F80C2398462F4B0700C2
:100DE000994604E000F0AAF8C01B484547D843469E
:100DF00072681A4063689B009A42F3D10121254A28
:100E000013680B40AB4205D913688B43136013681A
:100E10001942B7D123685B0706D51F4A204953689A
:100E20000B40E1680B4353600C231B494A68134095
:100E3000082B0ED01B48184B1B4A5B681B491B062E
:100E40001B0FD35CD8400860032000F035F8002069
:100E500099E70F251648930C2B40C45CC96AD2034E
:100E60000FD5144B0D40595D0E48FFF74DF9604307
:100E7000E1E79B01A8D485E79B03A5D482E7032083
:100E800081E763011B1B9801C01AC0000019000212
:100E9000D1E7C04600200240001002408813000045
:100EA000FFF8FFFF00127A00881400081C000020E1
:100EB000781400086814000870B50400FA200E4B7E
:100EC00080001978FFF720F90C4D01002868FFF722
:100ED0001BF900F04BFA00280CD10130032C00D98B
:100EE00070BD02380022210000F016FA044B0020E9
:100EF0001C60F5E70120F3E7140000201C0000202F
:100F0000180000201021064A10B5136803200B4377
:100F10001360FFF7D1FFFFF7AFFC002010BDC04604
:100F200000200240034A044B11681B785B181360D1
:100F30007047C0466000002014000020014B186874
:100F40007047C0466000002070B50400FFF7F6FF50
:100F50000500631C02D0044B1B78E418FFF7EEFF7A
:100F6000401BA042FAD370BD14000020F0B5DE464D
:100F700057464E464546E0B50A688B4687B0002A7C
:100F800075D090210023C905884200D1D2E0D9490B
:100F9000D94F8C465946029101219940884611400B
:100FA000009141460A425ED0029C5D0061688B461A
:100FB00003215C4621400324AC40E4434E1E0194CF
:100FC000012E5BD9032900D073E1A9400668019C7A
:100FD00034402143C02401605946A402214242D03A
:100FE00061460124654689690F262143A961A969E3
:100FF00003252140C14C1D40A046AD00AE400591E7
:1010000005999908890041448C68B443BC4EB042AC
:1010100000D18BE0BB4EB04200D175E0BA4EB04279
:1010200000D142E10526AE40344380265D468C6007
:10103000009C7603E443B968354200D073E0214058
:101040005D46B960F968AD026AD421405D46F96039
:101050007968AD0361D421405D4679603968ED035C
:1010600056D42140396011000133D94094D107B0E2
:10107000F0BCBB46B246A946A046F0BD86682640F5
:10108000B246029EF668AE40B14656464C462643EE
:101090008660446826004446A6435C462409B1465F
:1010A0002600012426409E40B0464E464446264334
:1010B0004660C4682600019C2640029CB146A46894
:1010C0002600AE40B0464E4644462643C66002293E
:1010D00000D07AE7DC08A400A04680444446266A93
:1010E00007241C40A400A14603960F244E46B4409A
:1010F000039EA64303964E46029C2469B440039E79
:1011000026434446266260E70226AE4034438CE71D
:10111000009C0C4321003960A5E7009D29439BE713
:10112000009D294392E7009D294389E70126AE40AF
:1011300034437AE76F4900238A46594601270291D2
:1011400048E0032900D0C1E0A9400668019C344072
:101150002143C02401605946A402214235D05146A2
:10116000544603250F2689691D403943A161A169B1
:10117000624CAD00A446AE405D46394005910599EC
:101180009908890061448C68B4438C605A49009C7A
:101190008968E443ED0200D584E02140564DA96002
:1011A000E9685D46AD027AD42140534DE960696833
:1011B0005D46AD0370D421404F4D696029685D469E
:1011C000ED0365D421404C4C216011000133D9401E
:1011D00000D14CE7390099408C461140009161469E
:1011E0001142F2D002995D0049688B4603215C46AA
:1011F00021400324AC40E4434E1E0194012EA0D8AC
:1012000086682640029CB146E668AE40B0464E462F
:10121000444626438660446826006446A6435C46EE
:101220002409B04626003E409E40B44646466446E9
:1012300026434660C4682600019C2640029CB046B6
:10124000A4682600AE40B446464664462643C660BF
:10125000022900D078E7DC08A400A4469024E40525
:10126000A046C4446446266A07241C40A400A14644
:1012700003960F244E46B440039EA64303964E4663
:10128000029C2469B440039E2643644626625BE7C1
:10129000009C0C43210096E7009D29438CE7009DAC
:1012A000294382E7009D294378E70326AE40344373
:1012B000BBE62600C4683440A146029CA468AC404A
:1012C000A0464C4646463443C4607EE62600902441
:1012D000E405A046E4683440A146029CA468AC4002
:1012E000A4464C4666463443A44644466646E660F9
:1012F0002AE7C046001002400004014000000140FF
:101300000004004800080048000C0048002A01D0F2
:10131000816170478162FCE7FF22032310B514004E
:101320000340DB009C4089010A40E4439A400028C6
:101330000BDB0C4BC0219C46800880006044890078
:10134000435823401343435010BD0F230649034025
:101350008C46083B9B089B006344D9690C401443AE
:10136000DC61F1E700E100E000ED00E08022431ED7
:101370005204012093420ED2C021074A074853600D
:10138000036A09061B021B0A0B43036200230020A9
:10139000936007331360704710E000E000ED00E059
:1013A0007047C0460D488546FFF7FAFF0C480D49C7
:1013B0000D4A002302E0D458C4500433C4188C42B0
:1013C000F9D30A4A0A4C002301E013600432A24216
:1013D000FBD300F019F8FFF7D9F8FEE70020002052
:1013E0000000002020000020A81400082000002099
:1013F00064000020FEE703008218934200D170478A
:1014000019700133F9E7000070B500260C4C0D4D42
:10141000641BA410A64209D1002600F019F80A4C5A
:101420000A4D641BA410A64205D170BDB300EB5851
:1014300098470136EEE7B300EB5898470136F2E7DC
:10144000A0140008A0140008A4140008A0140008A8
:10145000F8B5C046F8BC08BC9E467047F8B5C04613
:08146000F8BC08BC9E46704771
:101468000102030405060708090A0B0C0D0E0F10EC
:1014780002030405060708090A0B0C0D0E0F1010CD
:10148800000000000000000001020304060708092C
:08149800A4EEFF7F010000003B
:0414A000E900000857
:0414A400C10000087B
:1014A80080000000A0000000C0000000E000000074
:1014B80000010000010000000400000000127A0092
:04000005080013A537
:00000001FF
